:200000002AC044C043C042C041C040C03FC03EC03DC06CCB3BC03AC039C038C0EBCB36C029
:2000200035C034C033C04DC75FC770C780C7BAC7D0C7E3C7F0C789CA91CA9FCAA7CAB5CAAC
:20004000BFCAC5CACDCAEBCAF3CA00CB08CB17CB22CB28CB2FCB11241FBECFE5D4E0DEBF0E
:20006000CDBF11E0A0E6B0E0E2EBFBE102C005900D92A836B107D9F721E0A8E6B1E001C007
:200080001D92A53AB207E1F7D3DB91CDB9CFCF93DF9300D000D000D0CDB7DEB79E838D831F
:2000A0001A82198229813A818D819E8128173907E8F41C821B828B819C818831914050F4EA
:2000C0008B819C8101969C838B838B819C8188319140B0F389819A8101969A83898329814E
:2000E0003A818D819E812817390718F326960FB6F894DEBF0FBECDBFDF91CF910895CF93BC
:20010000DF93EC01949A83E090E0C1DF9498CE01BEDFDF91CF910895882314F4909A01C03C
:20012000909886FF02C0919A01C0919885FF02C0929A01C0929884FF02C0939A08959398A4
:20014000089583FF02C0909A01C0909882FF02C0919A01C0919881FF02C0929A01C09298FA
:2001600080FF02C0939A0895939808951F93CF93DF93182FEB01D0DF80E090E0C0DF812F25
:20018000E0DFCE01BCDFDF91CF911F91089562E070E081E0EBDF089562E070E082E0E6DF06
:2001A0000895962F823051F0853071F0813089F460E070E0892F8068D9DF089560E070E091
:2001C000892F806CD3DF089560E070E0892F8064CDDF0895CF93DF93959AEC011EC08A302F
:2001E00031F4959860E082E0DCDF959A16C08D3021F49598D1DF959A10C0893059F495986A
:2002000060E070E084E1B2DF60E070E084E1AEDF959A03C060E070E0A9DF89918111DFCF72
:200220009598DF91CF910895959A60E070E09EDF959808950F931F93CF93DF93082F192F77
:20024000660F660F660F85E0ACDFC02FD12F10E08991EADF1F5F1830D9F7DF91CF911F9177
:200260000F9108958C3339F08E3349F460E070E084E17CDF089560E070E080E177DF08958A
:200280004F925F926F927F928F929F92AF92BF92CF92DF92EF92FF924B015C01992354F405
:2002A0008DE2C2DFB094A09490948094811C911CA11CB11C8AE088169104A104B1040CF4B3
:2002C00064C0C12CD12C7601C394CC0CDD1CEE1CFF1CD701C601880F991FAA1FBB1F880F24
:2002E000991FAA1FBB1FC80ED91EEA1EFB1EC501B401A7019601E4DB2A3031054105510510
:2003000024F780E3820F90DFC701B6012AE030E040E050E0D5DB69017A012115310541052F
:200320005105B1F10F2EFAE04F2E512C612C712CF02DD701C601880F991FAA1FBB1FAC012F
:20034000BD01440F551F661F771F440F551F661F771F9A01AB01280F391F4A1F5B1FC5019C
:20036000B401AEDBA7019601ABDB80E3820F5CDFC701B601A3019201A3DB69017A012115FC
:20038000310541055105A9F603C080E3880D4CDFFF90EF90DF90CF90BF90AF909F908F904E
:2003A0007F906F905F904F900895CF93DF93EC01623009F442C020F4613009F462C07CC072
:2003C0006330A9F0643009F077C09C01369527953695279536952795A5ECB0E28DDB929549
:2003E00082958F7089279F708927805D1DDF9E013695279536952795ABE7B4E17DDBAC01C6
:20040000569547959A01ADECBCEC76DB9695879596958795969587959C01220F331F880F5C
:20042000991F880F991F880F991F820F931F9A01281B390BC901805DF7DE9E01ADECBCECA5
:200440005BDBAC015695479556954795569547959A0152DB969587959695879596958795C7
:200460009C01220F331F880F991F880F991F880F991F820F931F9A01281B390BC901805D63
:20048000D3DE9E01ADECBCEC37DB9695879596958795969587959C01220F331F880F991F75
:2004A000880F991F880F991F820F931F9E01281B390BC901805DB8DEDF91CF910895FF92FA
:2004C0000F931F93CF93DF93C5EAD0E000E06894FF24F3F8602F85E064DE1F2D8881A4DE9E
:2004E0001150E1F7085F21960033A1F760E081E058DEDF91CF911F910F91FF9008950F9315
:200500001F93CF93DF93C09168016DECC69F612D112466956695182F813508F010E5C11762
:20052000D0F482E03EDEDDECCF5FCD9F812D112486958695982F990F990F890F9C2F981BD0
:20054000892F19F485E070DE03C06EDE8CE38ADEC113EACF2EC08DECC89F812D11248695E4
:200560008695982F990F990F890FC81301C0615082E017DE60E070E084E0F8DDC117A9F0D3
:200580000DECC150C09FD12D1124D695D6958D2F880F880FD80F8C2F8D1BD82F45DEDD238B
:2005A00011F08EE35FDEC113ECCF60E070E086E0DDDD10936801DF91CF911F910F91089584
:2005C000CF93C82FA9DD80E090E099DD80E090E096DD8C2FB6DD80E090E091DDCF9108952A
:2005E0008CE2EEDF60E070E08CE0C0DD60E070E086E0BCDD62E070E081E0B8DD62E070E07E
:2006000082E0B4DD5CDF089598E038E1262F282720FD02C0669503C06327669560688695D5
:200620009150A1F7862F0895EF92FF920F931F93CF93DF937C018C01095F1F4FEC0160E0A8
:200640008991E2DF682FC017D107D1F781E0F7019781691301C080E0DF91CF911F910F9183
:20066000FF90EF900895EF92FF920F931F93CF93DF937C018C01085F1F4FEC0160E089916F
:20068000C3DF682FC017D107D1F781E0F7019085691301C080E0DF91CF911F910F91FF90F0
:2006A000EF9008951F93CF93DF93D82F162FC8E0D0FF03C0812F0CD102C0812F23D1D695B4
:2006C000C150B1F7DF91CF911F9108951F93CF93DF93182FD8E0C0E0C695812F2DD1811184
:2006E000C068D150C9F78C2FDF91CF911F910895FF920F931F93CF93DF938C01F62E85E545
:20070000D1DFE801085F1F4F6F2D8991CBDFC017D107D1F7DF91CF911F910F91FF90089548
:20072000BF92CF92DF92EF92FF920F931F93CF93DF93EC01D62EF42E642F80EFB3DF11E0C4
:20074000B12C01E0CC24C3948F2DF6D0E82E8F2DF3D0EE20A1F181112EC09881912B98836D
:2007600019C02881912F90959223988313C00D1104C08881812B88830DC0D01638F49881D5
:20078000812F809589238883B02E04C09881912339F003C09881912321F08F2D99D003C0BC
:2007A000B02E8F2DAFD00F5F110F11F421961C2D013451F602C08FEF05C08B2D03C08111FF
:2007C000D0CFD5CFDF91CF911F910F91FF90EF90DF90CF90BF9008958F929F92AF92BF920A
:2007E000CF92DF92EF92FF920F931F93CF93DF938C01942E7901662371F0DC0120E088E0F5
:2008000007C011929150E9F72F5F1896261719F0FD01982FF6CFC02ED12EE02FF12FB12CA8
:20082000A12C6894882483F8AC2DBD2D882D01900D928A95E1F7892DA0D0882351F1492DA0
:200840006A2D8C2D9D2D6CDFA82EB394E80188E0B89EC00DD11D1124AA2029F0EC2DFD2D59
:20086000CC2EDD2EE1CFBB20B1F0D0E0C0E0DD24D394C801D9DE811105C0F70190819F5FB1
:20088000908301C0DD2DCF5F085F1F4FCB11F1CF04C08FEF03C080E001C08D2FDF91CF9129
:2008A0001F910F91FF90EF90DF90CF90BF90AF909F908F90089594B38095982394BB95B3E5
:2008C000892385BB8CE599E00197F1F700C008959FB7F89424B3282B24BB25B38095282342
:2008E00025BB23E22A95F1F700C024B3282324BB25B3822385BBECE3F1E03197F1F700C0DE
:200900009FBF08959FB7F89424B3282B24BB25B38095282325BBE8E2F1E03197F1F700C0CE
:2009200024B3282324BB25B3822385BBFEE3FA95F1F700009FBF08952FB7F89494B3982B2A
:2009400094BB35B3982F9095392335BB33E23A95F1F700C034B3392334BB35B3932395BB7C
:2009600097E39A95F1F700C093B3EFE0F1E03197F1F700C02FBF892308952FB7F89494B3E0
:20098000982B94BB35B3982F9095392335BBECE5F9E03197F1F700C034B3392334BB35B3F1
:2009A000932395BBEAE5F1E03197F1F700C093B3EEEFF7E03197F1F700C02FBF90958923F8
:2009C0000895CF9380E090E0C5D8C82F882321F060E080E090E0CBD88AE090E0BBD89CEE4E
:2009E000980F923418F48093870103C084E18093870188E090E0B6D89C012456310929340C
:200A0000364228F4909386018093850106C024E630E0309386012093850187E090E09AD853
:200A20009CE4980F973418F48093840103C086EE8093840185E090E095D881322CE19207B6
:200A400028F4909383018093820104C0109283011092820184E090E07DD88093810183E00D
:200A600090E078D8CF3F19F08093800103C084E68093800182E090E06DD8811103C010923C
:200A8000620003C081E08093620081E090E062D8833018F480937F0102C010927F01CF91BA
:200AA0000895609187018AE090E061D8609185017091860188E090E067D86091840187E01A
:200AC00090E055D8609182017091830185E090E05BD86091810184E090E049D8609180019E
:200AE00083E090E044D86091620082E090E03FD860917F0181E090E03AD80895CF93DF9306
:200B0000CDB7DEB7C054D1090FB6F894DEBF0FBECDBF88E0E5E6F0E0DE01119601900D92CE
:200B20008A95E1F788E0EDE6F0E0DE01199601900D928A95E1F788E0E5E7F0E0DE01519634
:200B400001900D928A95E1F788E0EDE7F0E0DE01599601900D928A95E1F788E0E5E8F0E068
:200B6000DE01919601900D928A95E1F788E0EDE8F0E0DE01999601900D928A95E1F788E09E
:200B8000E5E9F0E0DE01D19601900D928A95E1F788E0EDE9F0E0DE01D99601900D928A959F
:200BA000E1F760E0CE01019645DB61E0CE01099641DB62E0CE0141963DDB63E0CE014996DB
:200BC00039DB64E0CE01819635DB65E0CE01899631DB66E0CE01C1962DDB67E0CE01C9969F
:200BE00029DBC05CDF4F0FB6F894DEBF0FBECDBFDF91CF910895813019F0823059F014C06A
:200C0000662331F080917F01823010F4AA980895AA9A0895662331F080917F018D7F11F4D7
:200C2000A9980895A99A0895662339F080917F01811103C0AA98A9980895AA9AA99A08951A
:200C400080918C01811114C010928A012AE831E048E062E085E991E0BFDD80938B0190919B
:200C60008A01923029F4813019F08FEF80938C0108950F931F93CF93DF93182FEB01042F07
:200C80007CDE612FCE0134DD612F8EE40BDD612F80E008DD612F80E005DD612F802F02DDDB
:200CA000DF91CF911F910F910895BF92CF92DF92EF92FF920F931F93CF93DF93CDB7DEB701
:200CC00029970FB6F894DEBF0FBECDBFB82E8B016A0153DE6B2DC8010BDD6B2D84E4E2DCF8
:200CE0008B2D2ADE8823E1F38B2D47DE6B2DC801FFDC6B2D8EEBD6DC8E010F5F1F4F7E01EF
:200D00008AE0E80EF11C8B2DE1DCF80181938F01EE15FF05C1F7CE010196A5DC81110AC052
:200D20002A8130E0322F22279981292BF6013183208301C081E029960FB6F894DEBF0FBEF6
:200D4000CDBFDF91CF911F910F91FF90EF90DF90CF90BF900895CF93DF9300D0CDB7DEB762
:200D60001A82198228E0829FC0011124BC016B567E4FAE014F5F5F4F88E097DF80938B014A
:200D8000813091F089819A8199232CF49195819591099A83898389819A81929582958F70BF
:200DA00089279F70892701C080E00F900F90DF91CF9108958EE387BB87E088BB8FE884BBE5
:200DC00086E285BB8FE381BB80EC82BB89B7816089BF83B7816083BF8FB5816A8FBD8EB590
:200DE00081608EBD85B58C6685BD8FE783BD3A9A86B18F6086B985B58093760115BC9D999F
:200E000004C081E08093690102C010926901D9DD8091810190E09BBD8ABD8091800190E008
:200E200099BD88BDDDDBB3D960E081E0BAD98BEA90E0D0D960E082E0B4D98AEB90E0CAD95A
:200E400088E039DD80918C018F3F29F0F9DE80918C018F3FD9F7109264004FE165E971E0A7
:200E600088E007DF4FE16DE971E088E002DF80E072DF8093750181E06EDF8093740187D934
:200E800060E081E08ED988EC90E0A4D960E082E088D986ED90E09ED9089560E081E081D9F4
:200EA00084EE90E097D960E082E07BD98091880190E08830910508F0BBC0FC01ED5EFF4F89
:200EC00009948BE191E086D981E0AED98FEE90E081D98091870162E090E067DA80E0A4D9A1
:200EE00085EF90E077D9089583E091E073D982E09BD98FEE90E06ED964E0809185019091FB
:200F0000860153DA87EF90E065D908958BE191E061D984E089D98AEF90E05CD980918401CB
:200F200063E090E042DA8FEF90E054D9089582E091E050D983E078D98BE091E04BD9809169
:200F400082019091830160E17EE0A6D5CB0162E02CDA85E091E03ED92091820130918301D5
:200F6000A9E8B8E8C9D5AC0156954795529542954F7045275F7045279A01BED59695879595
:200F8000929582958F7089279F7089276CE3689F9001699F300D112462E0CA01821B930BFC
:200FA00004DA089587E091E015D980917F01813041F018F0823049F008958EE091E00AD92B
:200FC000089582E191E006D9089586E191E002D908958AE191E0FED887E026D98BE091E0E0
:200FE000F9D880916200882321F08EE191E0F2D8089582E291E0EED808958AE191E0EAD8D4
:2010000085E012D98BE091E0E5D88091810163E090E0CBD908958AE191E0DCD886E004D98D
:201020008BE091E0D7D88091800163E090E0BDD9089510927C0110927B0110927A011092B1
:20104000790108959F92AF92BF92CF92DF92EF92FF920F931F93CF93DF935C019C01ADEC17
:20106000BCEC4AD56C010024CC0CDD1C001CCC0CDD1C001CCD2CD02C90908901A114B10435
:20108000F1F0C0E0D0E000E010E00F2EFCE6EF2EF1E0FF2EF02D369A83E09816B9F0EFE996
:2010A000FFE03197F1F700C00000F70180819181080F191F2196CA15DB0569F702C000E00F
:2010C00010E0C801B501E8D4CB010BC0F70140815181040F151FCE01B601DED4862F0FDAA6
:2010E000E9CFDF91CF911F910F91FF90EF90DF90CF90BF90AF909F900895CF92DF92EF928F
:20110000FF9284E690E09EDF20916A0130916B012817390720F4BC01621B730B02C060E051
:2011200070E080E090E0C7D320E030E040E250E428D420E030E040E85AE323D420E030E017
:2011400040E250E41ED420E030E040EF51E419D46B017C016091840170E080E090E0ADD3E7
:201160009B01AC01C701B6010CD479D3CB01FF90EF90DF90CF900895C0DF909373018093ED
:20118000720120918501309186018217930778F08091700181110BC0FAD781E0809370012D
:2011A00048DF60E080E027DD8091760185BD80917101882351F01092710180E0CCDD8093FB
:2011C000750181E0C8DD8093740180917001811131C08091820190918301892B21F08091F7
:2011E0007C01882351F18091750190918701891750F4882321F061E081E0FDDC07C060E033
:2012000081E0F9DC03C060E081E0F5DC8091740190918701891750F4882321F061E082E0F1
:20122000EADC0BC060E082E0E6DC07C060E082E0E2DC03C060E080E0DEDC80918901823028
:20124000A1F42AB53BB58091810190E02817390711F09BBD8ABD28B539B58091800190E03B
:201260002817390711F099BD88BD08951F93CF93DF93C82FD62F142F60E093D7112321F002
:201280008CE191E0A7D703C086E291E0A3D781E0CBD76C2F70E080E090E0F2D788E291E07A
:2012A00099D762E08D2F90E080D880E0BDD785EF90E090D7DF91CF911F910895CF93DF93C8
:2012C000EC0169E081E06DD782E0AED788E291E081D764E0CE0169D888EF90E07BD7DF911C
:2012E000CF9108950F931F93CF93DF93EB0120917C01222309F457C020917B01211157C0E0
:20130000FC01E61BF70B20E13EE0CF01B901C4D3629FA001639F500D729F500D1124E031D8
:201320002EE0F207B0F49F01241B350BA9E8B8E8E3D396958795929582958F7089279F70B9
:201340008927082FE41B1E2F2CE3829F1019112410C0062F9F01241B350BA9E8B8E8CCD3D8
:2013600096958795929582958F7089279F708927182F69E082E015D783E056D788E291E031
:2013800029D762E0802F90E010D8C0FD04C085E091E020D703C08CE191E01CD762E0812F30
:2013A00090E003D813C080917B01882349F069E082E0F7D683E038D78AE291E00BD706C02F
:2013C00069E082E0EED681E391E004D7DF91CF911F910F9108958091700181111BC043B34C
:2013E00044706091750181E041DF43B342706091740182E03BDF80917201909173015EDF71
:201400006091790170917A01809182019091830169DF089560E081E0C4D689E391E0DAD6FF
:2014200060E082E0BED68AE491E0D4D60895379A369AADD660E081E0B4D688E591E0CAD683
:2014400060E082E0AED6789484EF91E0FBDD90936B0180936A019BD6F89450DB789497D6F0
:2014600081E0809389010895869954C02FEF80E792E0215080409040E1F700C000008091FD
:201480006300813031F41092630083E08093890129C17DD680918901823061F540918801D4
:2014A000242F30E08091600090E001972817390724F44F5F409388012DC0F3DA10928801CA
:2014C0008091820190918301892B29F0B2DD81E080937C0104C080917C018111AADD80910A
:2014E0007001882319F015BC1092700181E080938901F8C0823050F480917001811115BC52
:20150000809189018F5F8093890104C081E080938901E8C080918901823009F0D3C0879942
:2015200068C02FEF80E792E0215080409040E1F700C000008091880190E08830910508F0A3
:20154000D4C0FC01E55EFF4F099480918701853508F0CBC08B5F809387010895809185013D
:20156000909186018C3A26E2920708F0BEC0C29690938601809385010895809184018A3F4F
:2015800008F0B3C08F5F809384010895809182019091830180322CE1920708F0A6C0CC966C
:2015A0009093830180938201089580917F01823020F48F5F80937F01089510927F0108951D
:2015C0009091620081E08927809362000895809181018F3F09F489C08B5F809381010895A2
:2015E000809180018F3F09F480C08B5F809380010895B0997AC08FEF90E722E08150904018
:201600002040E1F700C000008091880190E08830910508F06AC0FC01ED5DFF4F0994809115
:201620008701853108F461C0855080938701089580918501909186018536910508F455C0A1
:20164000C2979093860180938501089580918401853B08F44AC081508093840108958091DE
:20166000820190918301009739F0CC979093830180938201892BC9F5DCDC15BC0895809139
:201680007F01882321F0815080937F01089582E080937F0108959091620081E089278093D4
:2016A00062000895809181018823F9F08550809381010895809180018823B9F0855080932F
:2016C0008001089590916901992379F09D9B0DC0813059F4879909C0B09907C088E08093C5
:2016E0006000089580918901EDCF08951F920F920FB60F9211242F933F934F935F936F93A2
:201700007F938F939F93AF93BF93EF93FF9380917D0190917E01019690937E0180937D01C2
:201720008432944F08F455C080917C018823B9F08091790190917A01019690937A018093AE
:20174000790120918201309183018217930738F070DC60E080E04FDA81E080937B01809125
:201760006200882319F180917B018823F9F0809178018530B0F480917701811109C0809159
:20178000760185BD809177018F5F8093770110C015BC10927701809178018F5F80937801CF
:2017A00007C010927B011092780102C010927B0180916100853020F48F5F8093610005C0E7
:2017C00081E0809361008093710110927E0110927D01FF91EF91BF91AF919F918F917F916E
:2017E0006F915F914F913F912F910F900FBE0F901F9018951F920F920FB60F9211248F9313
:201800009F93AF93BF9384B195B1A0E0B0E080936C0190936D01A0936E01B0936F01BF91C1
:20182000AF919F918F910F900FBE0F901F901895C1DA1ADE80918901823031F0833031F0DC
:20184000813029F4C8DD03C028DB01C0F0DD80918901882371F3833061F38EDCEACF70D0AD
:2018600088F09F5790F0B92F9927B751A0F0D1F0660F771F881F991F1AF0BA95C9F712C024
:20188000B13081F077D0B1E0089574C0672F782F8827B85F39F0B93FCCF386957795679547
:2018A000B395D9F73EF490958095709561957F4F8F4F9F4F0895E89409C097FB3EF4909544
:2018C0008095709561957F4F8F4F9F4F9923A9F0F92F96E9BB279395F695879577956795A9
:2018E000B795F111F8CFFAF4BB0F11F460FF1BC06F5F7F4F8F4F9F4F16C0882311F096E973
:2019000011C0772321F09EE8872F762F05C0662371F096E8862F70E060E02AF09A95660F3A
:20192000771F881FDAF7880F9695879597F9089557FD9058440F551F59F05F3F71F0479567
:20194000880F97FB991F61F09F3F79F087950895121613061406551FF2CF4695F1DF08C052
:20196000161617061806991FF1CF86957105610508940895E894BB2766277727CB0197F973
:2019800008950BD078C069D028F06ED018F0952309F05AC05FC01124EECFCADFA0F3959FB4
:2019A000D1F3950F50E0551F629FF001729FBB27F00DB11D639FAA27F00DB11DAA1F649F01
:2019C0006627B00DA11D661F829F2227B00DA11D621F739FB00DA11D621F839FA00D611DB9
:2019E000221F749F3327A00D611D231F849F600D211D822F762F6A2F11249F5750408AF0DA
:201A0000E1F088234AF0EE0FFF1FBB1F661F771F881F91505040A9F79E3F510570F014C0E1
:201A2000AACF5F3FECF3983EDCF3869577956795B795F795E7959F5FC1F7FE2B880F911D70
:201A40009695879597F9089597F99F6780E870E060E008959FEF80EC089500240A94161662
:201A6000170618060906089500240A9412161306140605060895092E0394000C11F4882330
:201A800052F0BB0F40F4BF2B11F460FF04C06F5F7F4F8F4F9F4F0895AA1BBB1B51E107C05B
:201AA000AA1FBB1FA617B70710F0A61BB70B881F991F5A95A9F780959095BC01CD01089535
:201AC000052E97FB16F400940FD057FD05D020D007FC02D046F408C050954095309521959F
:201AE0003F4F4F4F5F4F089590958095709561957F4F8F4F9F4F0895A29FB001B39FC001FE
:201B0000A39F01D0B29F700D811D1124911D0895A1E21A2EAA1BBB1BFD010DC0AA1FBB1FF2
:201B2000EE1FFF1FA217B307E407F50720F0A21BB30BE40BF50B661F771F881F991F1A947E
:201B400069F760957095809590959B01AC01BD01CF010895E199FECF9FBB8EBBE09A992759
:201B60008DB30895A8E1B0E042E050E012C0262FE199FECF9FBB8EBB2DBB0FB6F894E29A57
:201B8000E19A0FBE01960895F2DF272FF1CFDC01CB01FC01E199FECF06C0FFBBEEBBE09A52
:201BA00031960DB20D9241505040B8F70895F894FFCF06010101010609090600000000040D
:201BC0000A0A0E1F1F0E00070E1C1F0E1C10001F1F0E040E1F1F000A0A1F1F0E0402040EF9
:201BE000111B150E0E04000E17131313170E00060A1313130A06000010181C1E1F09546565
:201C00006D702E2073656E736F72730009646574656374696E672E2E2E0009546F20636192
:201C20006C6962726174650009507265737320224D4F44452200090953455454494E47539F
:201C4000006D61783A20004300205700696E3A20002056000909003A000909204D3A20005E
:201C6000312632003120200032202000090920004F4E20004F4646003E003D003D2D2D3AE2
:201C80002D2D0020202020202020005720412052204E2049204E204721212100094F5645DE
:1A1CA00052504F574552212121002043414C4942524154494E472E2E2E001E
:00000001FF
