:10000000A4C0BEC0BDC0BCC0BBC0BAC0B9C0B8C02F
:10001000B7C0CBC8B5C0B4C0B3C0B2C03DC9B0C092
:10002000AFC0AEC0ADC0F6C408C519C529C563C50B
:1000300076C583C505C80DC81BC823C831C837C8D5
:100040003FC85DC865C872C879C884C88AC891C8E5
:1000500000407A10F35A00A0724E18090010A5D47F
:10006000E80000E87648170000E40B54020000CADC
:100070009A3B000000E1F505000080969800000022
:1000800040420F000000A086010000001027000081
:100090000000E803000000006400000000000A0007
:1000A000000000000100000000002C76D888DC670A
:1000B0004F0823DFC1DFAE59E1B1B796E5E3E45362
:1000C000C63AE651997696E8E6C28426EB898C9B7F
:1000D00062ED407C6FFCEFBC9C9F40F2BAA56FA51F
:1000E000F490055A2AF75C936B6CF9676DC11BFCA1
:1000F000E0E40D47FEF520E6B500D0ED902E0300BC
:10010000943577050080841E080000204E0A000008
:1001100000C80C333333330F986E12831141EF8DC7
:100120002114893BE65516CFFEE6DB18D1844B3807
:100130001BF77C1D901DA4BBE424203284725E2238
:100140008100C9F124ECA1E53D2711241FBECFE5B4
:10015000D4E0DEBFCDBF11E0A0E6B0E0E0E0FBE11F
:1001600002C005900D92A835B107D9F721E0A8E5A6
:10017000B1E001C01D92AA37B207E1F7B4D8BECCF6
:100180003FCFCF93DF9300D000D000D0CDB7DEB704
:100190009E838D831A82198229813A818D819E8165
:1001A00028173907E8F41C821B828B819C818A3FC7
:1001B000910550F48B819C8101969C838B838B816C
:1001C0009C818A3F9105B0F389819A8101969A8337
:1001D000898329813A818D819E812817390718F3F7
:1001E00026960FB6F894DEBF0FBECDBFDF91CF913C
:1001F0000895CF93DF93EC01949A81E090E0C1DF02
:100200009498CE01BEDFDF91CF910895882314F436
:10021000909A01C0909886FF02C0919A01C091986F
:1002200085FF02C0929A01C0929884FF02C0939AFF
:1002300008959398089583FF02C0909A01C0909802
:1002400082FF02C0919A01C0919881FF02C0929AE8
:1002500001C0929880FF02C0939A089593980895E0
:100260001F93CF93DF93182FEB01D0DF80E090E056
:10027000C0DF812FE0DFCE01BCDFDF91CF911F9186
:10028000089562E070E081E0EBDF089562E070E0E5
:1002900082E0E6DF0895962F823051F0853071F0CC
:1002A000813089F460E070E0892F8068D9DF08959B
:1002B00060E070E0892F806CD3DF089560E070E02B
:1002C000892F8064CDDF0895CF93DF93959AEC0159
:1002D0001EC08A3031F4959860E082E0DCDF959AA8
:1002E00016C08D3021F49598D1DF959A10C08930D1
:1002F00059F4959860E070E084E1B2DF60E070E06E
:1003000084E1AEDF959A03C060E070E0A9DF8991D7
:100310008111DFCF9598DF91CF910895959A60E094
:1003200070E09EDF959808950F931F93CF93DF930E
:10033000082F192F660F660F660F85E0ACDFC02F00
:10034000D12F10E08991EADF1F5F1830D9F7DF91D4
:10035000CF911F910F9108958C3339F08E3349F46A
:1003600060E070E084E17CDF089560E070E080E1AF
:1003700077DF08954F925F926F927F928F929F9254
:10038000AF92BF92CF92DF92EF92FF924B015C014E
:10039000992354F48DE2C2DFB094A0949094809499
:1003A000811C911CA11CB11C8AE088169104A10437
:1003B000B1040CF464C0C12CD12C7601C394CC0CD4
:1003C000DD1CEE1CFF1CD701C601880F991FAA1F58
:1003D000BB1F880F991FAA1FBB1FC80ED91EEA1E7C
:1003E000FB1EC501B401A7019601BED82A30310514
:1003F0004105510524F780E3820F90DFC701B60164
:100400002AE030E040E050E0AFD869017A012115E0
:10041000310541055105B1F10F2EFAE04F2E512C57
:10042000612C712CF02DD701C601880F991FAA1FCE
:10043000BB1FAC01BD01440F551F661F771F440F42
:10044000551F661F771F9A01AB01280F391F4A1FDE
:100450005B1FC501B40188D8A701960185D880E348
:10046000820F5CDFC701B601A30192017DD869014B
:100470007A012115310541055105A9F603C080E334
:10048000880D4CDFFF90EF90DF90CF90BF90AF9042
:100490009F908F907F906F905F904F900895CF9333
:1004A000DF93EC01623009F442C020F4613009F4BA
:1004B00062C07CC06330A9F0643009F077C09C0151
:1004C000369527953695279536952795A5ECB0E274
:1004D00067D8929582958F7089279F708927805D54
:1004E0001DDF9E013695279536952795ABE7B4E13C
:1004F00057D8AC01569547959A01ADECBCEC50D855
:100500009695879596958795969587959C01220F48
:10051000331F880F991F880F991F880F991F820F0B
:10052000931F9A01281B390BC901805DF7DE9E01DC
:10053000ADECBCEC35D8AC01569547955695479532
:10054000569547959A012CD89695879596958795B7
:10055000969587959C01220F331F880F991F880F4E
:10056000991F880F991F820F931F9A01281B390B1F
:10057000C901805DD3DE9E01ADECBCEC11D896952F
:10058000879596958795969587959C01220F331FA1
:10059000880F991F880F991F880F991F820F931F2B
:1005A0009E01281B390BC901805DB8DEDF91CF9118
:1005B0000895FF920F931F93CF93DF93C3EAD0E088
:1005C00000E06894FF24F3F8602F85E064DE1F2DBF
:1005D0008881A4DE1150E1F7085F21960033A1F76E
:1005E00060E081E058DEDF91CF911F910F91FF9085
:1005F00008950F931F93CF93DF93C09158016DEC33
:10060000C69F612D112466956695182F813508F0D7
:1006100010E5C117D0F482E03EDEDDECCF5FCD9F68
:10062000812D112486958695982F990F990F890F02
:100630009C2F981B892F19F485E070DE03C06EDEB5
:100640008CE38ADEC113EACF2EC08DECC89F812DCA
:10065000112486958695982F990F990F890FC813A5
:1006600001C0615082E017DE60E070E084E0F8DDF8
:10067000C117A9F00DECC150C09FD12D1124D69502
:10068000D6958D2F880F880FD80F8C2F8D1BD82FC4
:1006900045DEDD2311F08EE35FDEC113ECCF60E0B9
:1006A00070E086E0DDDD10935801DF91CF911F915E
:1006B0000F910895CF93C82FA9DD80E090E099DDD8
:1006C00080E090E096DD8C2FB6DD80E090E091DD5B
:1006D000CF9108958CE2EEDF60E070E08CE0C0DD49
:1006E00060E070E086E0BCDD62E070E081E0B8DDF3
:1006F00062E070E082E0B4DD5CDF089594B3809541
:10070000982394BB95B3892385BB8CE797E0019729
:10071000F1F700C00895CF9380E090E06DD7C82F27
:10072000882321F060E080E090E073D789E090E0DA
:1007300063D79CEE980F973418F48093760103C02A
:1007400084E18093760187E090E05ED79C01245697
:1007500031092934364228F490937501809374014D
:1007600006C024E630E0309375012093740186E0E2
:1007700090E042D79CE4980F973418F4809373016B
:1007800003C08CED8093730184E090E03DD781320B
:100790002CE1920728F4909372018093710104C0B8
:1007A000109272011092710183E090E025D780933E
:1007B000700182E090E020D7CF3F19F080936F0165
:1007C00003C084E680936F0181E090E015D781112A
:1007D00003C01092600003C081E080936000CF915D
:1007E00008956091760189E090E013D760917401DB
:1007F0007091750187E090E019D76091730186E0F0
:1008000090E007D7609171017091720184E090E0EF
:100810000DD76091700183E090E0FBD660916F018D
:1008200082E090E0F6D66091600081E090E0F1D641
:100830000895CF93DF93CDB7DEB7C054D1090FB67B
:10084000F894DEBF0FBECDBF88E0E3E6F0E0DE0146
:10085000119601900D928A95E1F788E0EBE6F0E0C1
:10086000DE01199601900D928A95E1F788E0E3E7A1
:10087000F0E0DE01519601900D928A95E1F788E053
:10088000EBE7F0E0DE01599601900D928A95E1F7D1
:1008900088E0E3E8F0E0DE01919601900D928A9500
:1008A000E1F788E0EBE8F0E0DE01999601900D9227
:1008B0008A95E1F788E0E3E9F0E0DE01D196019066
:1008C0000D928A95E1F788E0EBE9F0E0DE01D99638
:1008D00001900D928A95E1F760E0CE01019624DD4A
:1008E00061E0CE01099620DD62E0CE0141961CDD7B
:1008F00063E0CE01499618DD64E0CE01819614DDF7
:1009000065E0CE01899610DD66E0CE01C1960CDD72
:1009100067E0CE01C99608DDC05CDF4F0FB6F894E2
:10092000DEBF0FBECDBFDF91CF910895813019F0AA
:10093000823039F00CC0662311F0AA9A0895AA9863
:100940000895662311F0A99A0895A9980895662339
:1009500019F0AA9AA99A0895AA98A99808958EE3D9
:1009600087BB87E088BB9FE894BB90E195BB9FE382
:1009700091BB90EC92BB99B7916099BF93B791608E
:1009800093BF9FB5916A9FBD9EB591609EBD95B581
:100990009B6695BD9FE793BD97B1956C97B9339AC8
:1009A0009EB595609EBD95B59F6695BD809362008E
:1009B00085B58093660115BC9C9904C081E0809345
:1009C000790102C01092790188E098DEA4DE82DE0F
:1009D00058DC60E081E05FDC89EA90E075DC60E093
:1009E00082E059DC87EB90E06FDC089560E081E005
:1009F00052DC85EC90E068DC60E082E04CDC8091C9
:100A0000770190E08730910508F0A4C0FC01ED5E0D
:100A1000FF4F099489EE90E057DC81E07FDC80EDA8
:100A200090E052DC8091760162E090E038DD80E079
:100A300075DC86ED90E048DC089584EE90E044DCBF
:100A400082E06CDC80ED90E03FDC64E0809174013A
:100A50009091750124DD88ED90E036DC089589EEF3
:100A600090E032DC84E05ADC8BED90E02DDC80916C
:100A7000730163E090E013DD80EE90E025DC0895E3
:100A800083EE90E021DC83E049DC8DED90E01CDC1E
:100A9000809171019091720160E17EE02FD5CB01D0
:100AA00062E0FDDC86EE90E00FDC20917101309178
:100AB0007201A9E8B8E874D5AC01569547955295EE
:100AC00042954F7045275F7045279A0169D59695E5
:100AD0008795929582958F7089279F7089276CE3FF
:100AE000689F9001699F300D112462E0CA01821B4A
:100AF000930BD5DC089588EE90E0E6DB87E00EDC12
:100B00008DED90E0E1DB80916000882321F08CEE98
:100B100090E0DADB089580EF90E0D6DB089588EE70
:100B200090E0D2DB85E0FADB8DED90E0CDDB8091CB
:100B3000700163E090E0B3DC089588EE90E0C4DBE0
:100B400086E0ECDB8DED90E0BFDB80916F0163E030
:100B500090E0A5DC089510926C0110926B01109248
:100B60006A01109269010895AF92BF92CF92DF920D
:100B7000EF92FF920F931F93CF93DF938C0110920C
:100B80005D0110925E0110925F011092600110925F
:100B90005C0110925B019C01ADECBCEC01D55C01E9
:100BA0000024AA0CBB1C001CAA0CBB1C001CAB2CF8
:100BB000B02C0115110501F1C0E0D0E0C12CD12C01
:100BC0007601369A80915D0190915E01A0915F015E
:100BD000B0916001C80ED91EEA1EFB1E80917801FB
:100BE000833029F4CE01B50189D4862F02DD219608
:100BF000C017D10731F703C0C12CD12C7601209149
:100C00005B0130915C0140E050E0C701B6018AD43D
:100C1000C901DF91CF911F910F91FF90EF90DF906D
:100C2000CF90BF90AF900895209162013091630101
:100C300080917401909175012817390758F081E06F
:100C40008093610188DF60E080E070DE8091660162
:100C500085BD07C01092610180916B01811105C0B3
:100C600015BC8091610181112BC08091780188238E
:100C700039F1833029F18091710190917201892BB2
:100C800021F080916C018823F1F0909165018091B1
:100C90007601981720F461E081E048DE03C060E04F
:100CA00081E044DE9091640180917601981720F4F0
:100CB00061E082E03BDE07C060E082E037DE03C037
:100CC00060E080E033DE2AB53BB58091700190E0B2
:100CD0002817390711F09BBD8ABD28B539B5809119
:100CE0006F0190E02817390711F099BD88BD08956C
:100CF0001F93CF93DF93C82FD62F142F60E0CBDA4A
:100D0000112321F08DEF90E0DFDA03C08AEE90E04E
:100D1000DBDA81E003DB6C2F70E080E090E02ADB1F
:100D20008FEF90E0D1DA62E08D2F90E0B8DB80E0C9
:100D3000F5DA86ED90E0C8DADF91CF911F91089542
:100D4000CF93DF93EC0169E081E0A5DA82E0E6DA97
:100D50008FEF90E0B9DA64E0CE01A1DB89ED90E09D
:100D6000B3DADF91CF9108950F931F93CF93DF9361
:100D7000EB0120916C01222309F457C020916B01F3
:100D8000211157C0FC01E61BF70B20E13EE0CF012B
:100D9000B901B4D3629FA001639F500D729F500DA3
:100DA0001124E0312EE0F207B0F49F01241B350B33
:100DB000A9E8B8E8F5D396958795929582958F70B6
:100DC00089279F708927082FE41B1E2F2CE3829F01
:100DD0001019112410C0062F9F01241B350BA9E800
:100DE000B8E8DED396958795929582958F7089277E
:100DF0009F708927182F69E082E04DDA83E08EDA50
:100E00008FEF90E061DA62E0802F90E048DBC0FD78
:100E100004C086EE90E058DA03C08AEE90E054DA1F
:100E200062E0812F90E03BDB13C080916B0188234F
:100E300049F069E082E02FDA83E070DA81E091E046
:100E400043DA06C069E082E026DA88E091E03CDA25
:100E5000DF91CF911F910F910895809161018111D0
:100E60001BC043B344706091650181E041DF43B32F
:100E700042706091640182E03BDF80916201909159
:100E800063015EDF6091690170916A018091710177
:100E90009091720169DF089560E081E0FCD980E102
:100EA00091E012DA60E082E0F6D981E291E00CDABA
:100EB00008950F931F93CF93DF93CDB7DEB72A9793
:100EC0000FB6F894DEBF0FBECDBF379A369AD9D988
:100ED00060E081E0E0D98FE291E0F6D960E082E065
:100EE000DAD9789488EE93E03FDE90935A018093AC
:100EF0005901C7D960E081E0CED98FE391E0E4D910
:100F00006091590170915A0180E090E033DA60E01D
:100F100082E0C1D98CE491E0D7D9609159017091F8
:100F20005A0180E090E0F9D12AE037ED43E25BE33B
:100F300031D28E010F5F1F4F24E041E03DD3C80145
:100F4000C3D92FEF83ED90E3215080409040E1F72B
:100F500000C00000F8946DDC789493D981E0809310
:100F600078012A960FB6F894DEBF0FBECDBFDF9191
:100F7000CF911F910F910895869947C02FE789EA75
:100F800093E0215080409040E1F700C00000809144
:100F90006100813031F41092610083E08093780128
:100FA00000C16FD980917801823029F54091770195
:100FB000242F30E08091620090E0019728173907D4
:100FC00024F44F5F4093770120C00BDC109277012F
:100FD0008091710190917201892B29F0BCDD81E033
:100FE00080936C0104C080916C018111B4DD81E0BB
:100FF00080937801D6C0823020F48F5F809378018F
:1010000004C081E080937801CCC080917801823067
:1010100009F0B7C087995DC02FE789EA93E02150B6
:1010200080409040E1F700C000008091770190E09F
:101030008730910508F0B8C0FC01E65EFF4F0994C7
:10104000809176018A3508F0AFC08B5F809376017E
:10105000089580917401909175018C3A26E292076F
:1010600008F0A2C0C2969093750180937401089510
:10107000809173018A3F08F097C08B5F8093730162
:101080000895809171019091720180322CE1920754
:1010900008F08AC0CC9690937201809371010895F4
:1010A0009091600081E0892780936000089580918D
:1010B00070018F3F09F478C08B5F809370010895B1
:1010C00080916F018F3F09F46FC08B5F80936F0138
:1010D0000895B09969C08FE799EA23E08150904064
:1010E0002040E1F700C000008091770190E0873058
:1010F000910508F059C0FC01EF5DFF4F0994809104
:101100007601853108F450C08550809376010895AA
:1011100080917401909175018536910508F444C061
:10112000C297909375018093740108958091730123
:10113000853BD0F1855080937301089580917101B2
:1011400090917201009781F1CC97909372018093F6
:10115000710108959091600081E08927809360007B
:101160000895809170018823F9F085508093700173
:10117000089580916F018823B9F0855080936F01A5
:10118000089590917901992379F09C9B0DC081304D
:1011900059F4879909C0B09907C087E0809362002D
:1011A000089580917801EDCF08951F920F920FB6A8
:1011B0000F9211242F933F934F935F936F937F93DD
:1011C0008F939F93AF93BF93EF93FF9380916D01A4
:1011D00090916E01019690936E0180936D01823122
:1011E0009A4708F448C080916C018823B9F0809137
:1011F000690190916A01019690936A018093690157
:1012000020917101309172018217930738F0A3DCAD
:1012100060E080E08BDB81E080936B018091600077
:10122000882319F180916B018823F9F0809168017E
:101230008530B0F480916701811109C08091660109
:1012400085BD809167018F5F8093670110C015BCD9
:1012500010926701809168018F5F8093680107C0D9
:1012600010926B011092680102C010926B011092F3
:101270006E0110926D01FF91EF91BF91AF919F911F
:101280008F917F916F915F914F913F912F910F902F
:101290000FBE0F901F9018951F920F920FB60F92CE
:1012A00011248F939F93AF93BF9384B195B1A0E026
:1012B000B0E080935D0190935E01A0935F01B093D5
:1012C000600180915B0190915C01019690935C01BB
:1012D00080935B01BF91AF919F918F910F900FBE53
:1012E0000F901F9018953BDB87E38093760182E394
:1012F000809365018EE1809364013EDE80917801E8
:10130000823031F0833031F0813029F4A6DD03C022
:101310006DDB01C0CEDD88DCF0CFE89409C097FB1F
:101320003EF490958095709561957F4F8F4F9F4FBC
:101330009923A9F0F92F96E9BB279395F695879500
:1013400077956795B795F111F8CFFAF4BB0F11F4C3
:1013500060FF1BC06F5F7F4F8F4F9F4F16C088236A
:1013600011F096E911C0772321F09EE8872F762FA0
:1013700005C0662371F096E8862F70E060E02AF0E1
:101380009A95660F771F881FDAF7880F96958795CD
:1013900097F908950BD078C069D028F06ED018F076
:1013A000952309F05AC05FC01124A2C07ED0A0F3DB
:1013B000959FD1F3950F50E0551F629FF001729FEA
:1013C000BB27F00DB11D639FAA27F00DB11DAA1F09
:1013D000649F6627B00DA11D661F829F2227B00D56
:1013E000A11D621F739FB00DA11D621F839FA00DE1
:1013F000611D221F749F3327A00D611D231F849F31
:10140000600D211D822F762F6A2F11249F57504087
:101410008AF0E1F088234AF0EE0FFF1FBB1F661F22
:10142000771F881F91505040A9F79E3F510570F0DB
:1014300014C05EC05F3FECF3983EDCF38695779571
:101440006795B795F795E7959F5FC1F7FE2B880FD6
:10145000911D9695879597F9089597F99F6780E86C
:1014600070E060E008959FEF80EC089500240A94F6
:101470001616170618060906089500240A9412166F
:101480001306140605060895092E0394000C11F4A2
:10149000882352F0BB0F40F4BF2B11F460FF04C04F
:1014A0006F5F7F4F8F4F9F4F089557FD9058440FA8
:1014B000551F59F05F3F71F04795880F97FB991FB3
:1014C00061F09F3F79F08795089512161306140670
:1014D000551FF2CF4695F1DF08C0161617061806FD
:1014E000991FF1CF86957105610508940895E894D8
:1014F000BB2766277727CB0197F90895AA1BBB1B4B
:1015000051E107C0AA1FBB1FA617B70710F0A61B03
:10151000B70B881F991F5A95A9F780959095BC0124
:10152000CD010895A1E21A2EAA1BBB1BFD010DC01F
:10153000AA1FBB1FEE1FFF1FA217B307E407F50783
:1015400020F0A21BB30BE40BF50B661F771F881F5F
:10155000991F1A9469F760957095809590959B01F5
:10156000AC01BD01CF010895052E97FB16F4009440
:101570000FD057FD05D0D6DF07FC02D046F408C0D7
:1015800050954095309521953F4F4F4F5F4F0895AF
:1015900090958095709561957F4F8F4F9F4F0895DF
:1015A000A29FB001B39FC001A39F01D0B29F700D55
:1015B000811D1124911D0895EF920F931F93CF93D6
:1015C000DF93E80147FF02C034E101C034E0E42FBB
:1015D000FF27E7FDF095F7FF03C0F195E195F109CD
:1015E000E32E022F2E2FAE0124D0CE01DF91CF911A
:1015F0001F910F91EF900895E199FECF9FBB8EBB95
:10160000E09A99278DB30895A8E1B0E042E050E058
:1016100067C2262FE199FECF9FBB8EBB2DBB0FB6B5
:10162000F894E29AE19A0FBE01960895F2DF272F0F
:10163000F1CF6F927F929F92AF92BF92CF92DF9243
:10164000EF92FF920F931F93CF93DF93CDB7DEB747
:1016500029970FB6F894DEBF0FBECDBF6A01B22E38
:10166000102F0C3320F4FF24F394F00E02C04CE34F
:10167000F42E0F2D27E0AE014F5F5F4F57D17981D8
:10168000272F2970213031F0E1FC06C0E0FC06C0B4
:1016900060E005C06DE203C06BE201C060E2AE2D08
:1016A000A07173FF36C0662311F084E001C083E0AF
:1016B0008B1510F4B81A01C0B12CA1110BC0F601A2
:1016C0008B2D90E2882319F091938150FBCFCB0CA6
:1016D000D11CB12C662331F0F601608396012F5F97
:1016E0003F4F6901C6010396E2FE05C02EE4F601F4
:1016F000208331E404C02EE6F601208331E63183F5
:101700002283FC012B2D30E22223F1F13193215071
:10171000FBCF72FF40C0662311F084E001C083E07C
:101720008B1510F4B81A01C0B12CA1110BC0F60131
:101730008B2D90E2882319F091938150FBCFCB0C35
:10174000D11CB12C662331F0F601608396012F5F26
:101750003F4F6901C6010396E2FE07C029E4F60186
:1017600020832EE4218326E406C029E6F6012083A7
:101770002EE6218326E62283FC012B2D30E2222354
:1017800019F031932150FBCFFC01EB0DF11D1082BC
:101790008EEF9FEFB7C0B1E0611101C0B0E04B2FF9
:1017A00050E01816190624F49C012F5F3F4F02C029
:1017B00021E030E0240F351F112329F0412F50E0A4
:1017C0004F5F5F4F02C040E050E0420F531F2B2D90
:1017D00030E04217530714F4B41A01C0B12C2E2D77
:1017E000287159F4F6012B2D30E2222319F03193A0
:1017F0002150FBCFCB0CD11CB12CBB2331F0F60117
:10180000608396012F5F3F4F6901A1110BC0F60164
:101810002B2D30E3222319F031932150FBCFCB0C39
:10182000D11CB12CF80E0A81372F3071A32E74FF12
:1018300003C0013309F4FA941F142CF42F2D29301E
:1018400018F028E001C021E0682F392F97FF02C06F
:1018500060E030E0462F532F612C712C3EE2932E36
:10186000BC01621B71099B01DC01A41BB50BE1E00B
:10187000F0E0EC0FFD1FAE0FBF1FE12EF12CF19435
:10188000E194F1084F3FFFEF5F0731F4F6019082DA
:10189000B6016F5F7F4F6B01841795074CF02417DB
:1018A000350734F4BD01660D771DFB01118101C0C0
:1018B00010E341505109FFEF6F1A7F0AB6016F5FC5
:1018C0007F4F4E155F0524F0F60110836B01DACFD0
:1018D0004817590739F4063320F4053319F4A110D9
:1018E00001C011E3F6011083FB018B2D90E28823E8
:1018F00019F091938150FBCFFB01EB0DF11D10828C
:1019000080E090E029960FB6F894DEBF0FBECDBF01
:10191000DF91CF911F910F91FF90EF90DF90CF90CB
:10192000BF90AF909F907F906F900895283008F0FF
:1019300027E03327DA01990F311D87FD916000966A
:101940006105710539F432602E5F3D9330E32A95CD
:10195000E1F708959F3F30F080387105610509F087
:101960003C5F3C5F3D93913008F08068911DDF93B0
:10197000CF931F930F93FF92EF92192F987F969515
:10198000E92F96959695E90FFF27E655FF4F992782
:101990003327EE24FF24A701E7010590089407945C
:1019A00028F4360FE71EF81E491F511D660F771FDA
:1019B000881F991F0694A1F70590079428F4E70E55
:1019C000F81E491F561FC11D770F881F991F661FDC
:1019D0000694A1F70590079428F4F80E491F561FA6
:1019E000C71FD11D880F991F661F771F0694A1F787
:1019F0000590079420F4490F561FC71FD81F990F51
:101A0000661F771F881F0694A9F784911095177099
:101A100041F0D695C79557954795F794E7941A9551
:101A2000C1F7E0E5F0E06894159015913591659166
:101A3000959105907FE27395E118F10A430B560BDF
:101A4000C90BD009C0F7E10CF11E431F561FC91F77
:101A5000D01D7EF4703311F48A95E6CFE8940150DE
:101A600030F0080F0AF40027021708F4202F2395FE
:101A7000022F7A3328F079E37D932A95E9F710C095
:101A80007D932A9589F606949795679537951795CE
:101A90001794E118F10A430B560BC90BD00998F0C3
:101AA00023957E9173957A3308F070E37C9320132D
:101AB000B8F77E9170617D9330F0839571E37D93EB
:101AC00070E32A95E1F71124EF90FF900F911F9199
:101AD000CF91DF91992787FD90950895DC01CB0187
:101AE000FC01E199FECF06C0FFBBEEBBE09A319648
:101AF0000DB20D9241505040B8F70895F894FFCFC1
:101B00000101030609090600000000040A0A0E1F6D
:101B10001F0E00070E1C1F0E1C10001F1F0E040EB0
:101B20001F1F000A0A1F1F0E0402040E111B150EB0
:101B30000E04000E17131313170E00060A131313C7
:101B40000A06000010181C1E1F09546F2063616CE8
:101B50006962726174650009507265737320224D69
:101B60004F44452200090953455454494E475300F8
:101B70006D61783A20004300205700696E3A2000DA
:101B80002056000909003A00090920004F4E2000A4
:101B90004F4646004E203D20004E2F41003E003D66
:101BA000003D2D2D3A2D2D0020202020202020002A
:101BB0005720412052204E2049204E2047212121EC
:101BC00000094F564552504F5745522121210020C0
:101BD00043414C4942524154494E472E2E2E00411A
:101BE0004443204E6F697365203D200055204E6FA1
:081BF000697365203D2000002F
:00000001FF
