:1000000027C041C040C03FC03EC03DC03CC03BC017
:100010003AC034CA38C037C036C035C034C033C027
:1000200032C031C030C044C656C667C677C6B1C6F6
:10003000C4C6D1C66EC976C984C98CC99AC9A0C9BB
:10004000A8C9C6C9CEC9DBC9E2C9EDC9F3C9FAC995
:1000500011241FBECFE5D4E0DEBFCDBF11E0A0E686
:10006000B0E0EAECF6E102C005900D92A634B107CB
:10007000D9F721E0A6E4B1E001C01D92AD37B20787
:10008000E1F773DA20CBBCCFCF93DF9300D000D061
:1000900000D0CDB7DEB79E838D831A821982298165
:1000A0003A818D819E8128173907E8F41C821B82D2
:1000B0008B819C818A3F910550F48B819C810196B4
:1000C0009C838B838B819C818A3F9105B0F38981CE
:1000D0009A8101969A83898329813A818D819E81B3
:1000E0002817390718F326960FB6F894DEBF0FBE0F
:1000F000CDBFDF91CF910895CF93DF93EC01949A18
:1001000081E090E0C1DF9498CE01BEDFDF91CF9116
:100110000895882314F4909A01C0909886FF02C035
:10012000919A01C0919885FF02C0929A01C092985D
:1001300084FF02C0939A08959398089583FF02C0A4
:10014000909A01C0909882FF02C0919A01C0919844
:1001500081FF02C0929A01C0929880FF02C0939AD8
:100160000895939808951F93CF93DF93182FEB0171
:10017000D0DF80E090E0C0DF812FE0DFCE01BCDF88
:10018000DF91CF911F91089562E070E081E0EBDF95
:10019000089562E070E082E0E6DF0895962F8230F5
:1001A00051F0853071F0813089F460E070E0892F82
:1001B0008068D9DF089560E070E0892F806CD3DF1C
:1001C000089560E070E0892F8064CDDF0895CF93BB
:1001D000DF93959AEC011EC08A3031F4959860E067
:1001E00082E0DCDF959A16C08D3021F49598D1DF3E
:1001F000959A10C0893059F4959860E070E084E1D8
:10020000B2DF60E070E084E1AEDF959A03C060E0A9
:1002100070E0A9DF89918111DFCF9598DF91CF91AF
:100220000895959A60E070E09EDF959808950F9389
:100230001F93CF93DF93082F192F660F660F660F5A
:1002400085E0ACDFC02FD12F10E08991EADF1F5F7E
:100250001830D9F7DF91CF911F910F9108958C330A
:1002600039F08E3349F460E070E084E17CDF08957A
:1002700060E070E080E177DF08954F925F926F92C7
:100280007F928F929F92AF92BF92CF92DF92EF9226
:10029000FF924B015C01992354F48DE2C2DFB094CC
:1002A000A09490948094811C911CA11CB11C8AE0A4
:1002B00088169104A104B1040CF464C0C12CD12CA3
:1002C0007601C394CC0CDD1CEE1CFF1CD701C601CB
:1002D000880F991FAA1FBB1F880F991FAA1FBB1F3A
:1002E000C80ED91EEA1EFB1EC501B401A701960166
:1002F00073D92A3031054105510524F780E3820F77
:1003000090DFC701B6012AE030E040E050E064D958
:1003100069017A012115310541055105B1F10F2E11
:10032000FAE04F2E512C612C712CF02DD701C60113
:10033000880F991FAA1FBB1FAC01BD01440F551F99
:10034000661F771F440F551F661F771F9A01AB0169
:10035000280F391F4A1F5B1FC501B4013DD9A701F2
:1003600096013AD980E3820F5CDFC701B601A30191
:10037000920132D969017A012115310541055105F2
:10038000A9F603C080E3880D4CDFFF90EF90DF906B
:10039000CF90BF90AF909F908F907F906F905F9025
:1003A0004F900895CF93DF93EC01623009F442C07F
:1003B00020F4613009F462C07CC06330A9F064307D
:1003C00009F077C09C013695279536952795369587
:1003D0002795A5ECB0E21CD9929582958F7089275C
:1003E0009F708927805D1DDF9E0136952795369584
:1003F0002795ABE7B4E10CD9AC01569547959A0126
:10040000ADECBCEC05D99695879596958795969514
:1004100087959C01220F331F880F991F880F991F02
:10042000880F991F820F931F9A01281B390BC9014E
:10043000805DF7DE9E01ADECBCECEAD8AC015695D0
:10044000479556954795569547959A01E1D89695C3
:10045000879596958795969587959C01220F331FD2
:10046000880F991F880F991F880F991F820F931F5C
:100470009A01281B390BC901805DD3DE9E01ADECCA
:10048000BCECC6D896958795969587959695879551
:100490009C01220F331F880F991F880F991F880F07
:1004A000991F820F931F9E01281B390BC901805D84
:1004B000B8DEDF91CF910895FF920F931F93CF93F2
:1004C000DF93C3EAD0E000E06894FF24F3F8602FE4
:1004D00085E064DE1F2D8881A4DE1150E1F7085FFE
:1004E00021960033A1F760E081E058DEDF91CF91E3
:1004F0001F910F91FF9008950F931F93CF93DF9358
:10050000C09146016DECC69F612D112466956695DC
:10051000182F813508F010E5C117D0F482E03EDED7
:10052000DDECCF5FCD9F812D112486958695982F88
:10053000990F990F890F9C2F981B892F19F485E02B
:1005400070DE03C06EDE8CE38ADEC113EACF2EC0FC
:100550008DECC89F812D112486958695982F990F33
:10056000990F890FC81301C0615082E017DE60E067
:1005700070E084E0F8DDC117A9F00DECC150C09F18
:10058000D12D1124D695D6958D2F880F880FD80F91
:100590008C2F8D1BD82F45DEDD2311F08EE35FDE1F
:1005A000C113ECCF60E070E086E0DDDD1093460122
:1005B000DF91CF911F910F910895CF93C82FA9DD9F
:1005C00080E090E099DD80E090E096DD8C2FB6DD54
:1005D00080E090E091DDCF9108958CE2EEDF60E065
:1005E00070E08CE0C0DD60E070E086E0BCDD62E0E1
:1005F00070E081E0B8DD62E070E082E0B4DD5CDFF5
:10060000089598E038E1262F282720FD02C066953E
:1006100003C063276695606886959150A1F7862F81
:100620000895EF92FF920F931F93CF93DF937C0176
:100630008C01095F1F4FEC0160E08991E2DF682FB8
:10064000C017D107D1F781E0F7019781691301C085
:1006500080E0DF91CF911F910F91FF90EF9008956F
:10066000EF92FF920F931F93CF93DF937C018C0146
:10067000085F1F4FEC0160E08991C3DF682FC0174E
:10068000D107D1F781E0F7019085691301C080E0BF
:10069000DF91CF911F910F91FF90EF9008951F93DD
:1006A000CF93DF93D82F162FC8E0D0FF03C0812F40
:1006B0000CD102C0812F23D1D695C150B1F7DF9163
:1006C000CF911F9108951F93CF93DF93182FD8E0F8
:1006D000C0E0C695812F2CD18111C068D150C9F7D7
:1006E0008C2FDF91CF911F910895FF920F931F934D
:1006F000CF93DF938C01F62E85E5D1DFE801085F0B
:100700001F4F6F2D8991CBDFC017D107D1F7DF9134
:10071000CF911F910F91FF900895BF92CF92DF92DA
:10072000EF92FF920F931F93CF93DF93EC01D62E9E
:10073000F42E642F80EFB3DF11E0B12C01E0CC2464
:10074000C3948F2DF5D0E82E8F2DF2D0EE20A1F19D
:1007500081112EC09881912B988319C02881912FE7
:1007600090959223988313C00D1104C08881812B2A
:1007700088830DC0D01638F49881812F8095892305
:100780008883B02E04C09881912339F003C09881EA
:10079000912321F08F2D99D003C0B02E8F2DAFD093
:1007A0000F5F110F11F421961C2D013451F602C078
:1007B0008FEF05C08B2D03C08111D0CFD5CFDF9136
:1007C000CF911F910F91FF90EF90DF90CF90BF904E
:1007D00008958F929F92AF92BF92CF92DF92EF9245
:1007E000FF920F931F93CF93DF938C01942E790187
:1007F000662371F0DC0120E088E007C0119291507F
:10080000E9F72F5F1896261719F0FD01982FF6CFFC
:10081000C02ED12EE02FF12FB12CA12C689488246A
:1008200083F8AC2DBD2D882D01900D928A95E1F7AE
:10083000892D9FD0882351F1492D6A2D8C2D9D2D16
:100840006CDFA82EB394E80188E0B89EC00DD11DDE
:100850001124AA2029F0EC2DFD2DCC2EDD2EE1CF88
:10086000BB20B1F0D0E0C0E0DD24D394C801D9DED4
:10087000811105C0F70190819F5F908301C0DD2D3C
:10088000CF5F085F1F4FCB11F1CF04C08FEF03C0C4
:1008900080E001C08D2FDF91CF911F910F91FF90CC
:1008A000EF90DF90CF90BF90AF909F908F90089582
:1008B00094B38095982394BB95B3892385BB8CE72B
:1008C00097E00197F1F700C008959FB7F89424B31B
:1008D000282B24BB25B38095282325BB2BE12A9503
:1008E000F1F700C024B3282324BB25B3822385BBA2
:1008F000ECEFF0E03197F1F700C09FBF08959FB78C
:10090000F89424B3282B24BB25B38095282325BB3A
:10091000ECEEF0E03197F1F700C024B3282324BBBC
:1009200025B3822385BBF1E3FA95F1F79FBF0895C4
:100930002FB7F89494B3982B94BB35B3982F909518
:10094000392335BB3BE13A95F1F700C034B3392385
:1009500034BB35B3932395BB9BE29A95F1F700C066
:1009600093B3E8EDF0E03197F1F700C02FBF892392
:1009700008952FB7F89494B3982B94BB35B3982F60
:100980009095392335BBECE7F7E03197F1F700C0DC
:1009900034B3392334BB35B3932395BBE4E1F1E0A1
:1009A0003197F1F700C093B3E4E6F6E03197F1F741
:1009B00000C02FBF909589230895CF9380E090E0E9
:1009C00055D6C82F882321F060E080E090E05BD608
:1009D00089E090E04BD69CEE980F973418F4809302
:1009E0005C0103C084E180935C0187E090E046D61F
:1009F0009C01245631092934364228F490935B0136
:100A000080935A0106C024E630E030935B012093C6
:100A10005A0186E090E02AD69CE4980F973418F4A7
:100A20008093590103C08CED8093590184E090E0DC
:100A300025D681322CE1920728F4909358018093B7
:100A4000570104C0109258011092570183E090E0C2
:100A50000DD68093560182E090E008D6CF3F19F082
:100A60008093550103C084E68093550181E090E0B6
:100A7000FDD5811103C01092600003C081E0809316
:100A80006000CF91089560915C0189E090E0FBD512
:100A900060915A0170915B0187E090E001D660910E
:100AA000590186E090E0EFD56091570170915801AF
:100AB00084E090E0F5D56091560183E090E0E3D5C5
:100AC0006091550182E090E0DED56091600081E0A8
:100AD00090E0D9D50895CF93DF93CDB7DEB7C0545A
:100AE000D1090FB6F894DEBF0FBECDBF88E0E3E6B4
:100AF000F0E0DE01119601900D928A95E1F788E011
:100B0000EBE6F0E0DE01199601900D928A95E1F78F
:100B100088E0E3E7F0E0DE01519601900D928A95BE
:100B2000E1F788E0EBE7F0E0DE01599601900D92E5
:100B30008A95E1F788E0E3E8F0E0DE019196019024
:100B40000D928A95E1F788E0EBE8F0E0DE019996F6
:100B500001900D928A95E1F788E0E3E9F0E0DE018B
:100B6000D19601900D928A95E1F788E0EBE9F0E0EB
:100B7000DE01D99601900D928A95E1F760E0CE01F1
:100B8000019655DB61E0CE01099651DB62E0CE01B2
:100B900041964DDB63E0CE01499649DB64E0CE012E
:100BA000819645DB65E0CE01899641DB66E0CE01AA
:100BB000C1963DDB67E0CE01C99639DBC05CDF4FF3
:100BC0000FB6F894DEBF0FBECDBFDF91CF91089571
:100BD000813019F0823039F00CC0662311F0AA9AE6
:100BE0000895AA980895662311F0A99A0895A998DE
:100BF0000895662319F0AA9AA99A0895AA98A9981F
:100C000008958EE387BB87E088BB9FE894BB90E1A3
:100C100095BB9FE391BB90EC92BB99B7916099BF54
:100C200093B7916093BF9FB5916A9FBD9EB5916048
:100C30009EBD95B59B6695BD9FE793BD9EB595609E
:100C40009EBD95B59F6695BD8093620085B58093E6
:100C50004C0115BC9C9904C081E080935F0102C0E7
:100C600010925F0188E024DEA8DEB7DC8DDA60E058
:100C700081E094DA89EA90E0AADA60E082E08EDA34
:100C800087EB90E0A4DA089560E081E087DA85ECF4
:100C900090E09DDA60E082E081DA80915D0190E091
:100CA0008730910508F0A4C0FC01ED5EFF4F099468
:100CB00089EE90E08CDA81E0B4DA80ED90E087DABA
:100CC00080915C0162E090E06DDB80E0AADA86ED65
:100CD00090E07DDA089584EE90E079DA82E0A1DA9E
:100CE00080ED90E074DA64E080915A0190915B01AC
:100CF00059DB88ED90E06BDA089589EE90E067DAD1
:100D000084E08FDA8BED90E062DA8091590163E044
:100D100090E048DB80EE90E05ADA089583EE90E0B0
:100D200056DA83E07EDA8DED90E051DA809157015A
:100D30009091580160E17EE03BD4CB0162E032DB70
:100D400086EE90E044DA2091570130915801A9E8ED
:100D5000B8E85ED4AC0156954795529542954F70D0
:100D600045275F7045279A0153D4969587959295AC
:100D700082958F7089279F7089276CE3689F900107
:100D8000699F300D112462E0CA01821B930B0ADBBC
:100D9000089588EE90E01BDA87E043DA8DED90E06D
:100DA00016DA80916000882321F08CEE90E00FDA53
:100DB000089580EF90E00BDA089588EE90E007DA6E
:100DC00085E02FDA8DED90E002DA8091560163E044
:100DD00090E0E8DA089588EE90E0F9D986E021DA2B
:100DE0008DED90E0F4D98091550163E090E0DADA7E
:100DF00008951092520110925101109250011092D8
:100E00004F010895209148013091490180915A0184
:100E100090915B012817390758F081E080934701D2
:100E2000E8DF60E080E0D4DE80914C0185BD07C042
:100E30001092470180915101811105C015BC80912C
:100E4000470181112BC080915E01882339F18330E5
:100E500029F18091570190915801892B21F08091BF
:100E600052018823F1F090914B0180915C01981719
:100E700020F461E081E0ACDE03C060E081E0A8DE48
:100E800090914A0180915C01981720F461E082E022
:100E90009FDE07C060E082E09BDE03C060E080E090
:100EA00097DE2AB53BB58091560190E028173907A7
:100EB00011F09BBD8ABD28B539B58091550190E0F0
:100EC0002817390711F099BD88BD089580916401F4
:100ED000811122C01092620122E631E048E062E016
:100EE0008DE691E076DC8093630160E081E056D985
:100EF00084EF90E06CD96091620170E080E090E056
:100F0000BCD980916201823039F4809163018130D3
:100F100019F08FEF809364010895BF92CF92DF9212
:100F2000EF92FF920F931F93CF93DF93CDB7DEB76E
:100F300029970FB6F894DEBF0FBECDBFB82E8B0138
:100F40006A0117DD6B2DC801D0DB6B2D84E4A7DBB4
:100F50008B2DEEDC8823E1F38B2D0BDD6B2DC8018F
:100F6000C4DB6B2D8EEB9BDB8E010F5F1F4F7E0171
:100F70008AE0E80EF11C8B2DA6DBF80181938F012E
:100F8000EE15FF05C1F7CE0101966ADB81110AC09B
:100F90002A8130E0322F22279981292BF6013183D3
:100FA000208301C081E029960FB6F894DEBF0FBE02
:100FB000CDBFDF91CF911F910F91FF90EF90DF9008
:100FC000CF90BF900895CF93DF93EC0199231CF449
:100FD000D195C195D109BE01729562956F70672751
:100FE0007F70672770E080E090E047D96C2F6F70CA
:100FF000862F8695669566956695C62FC80F8BE3F6
:1010000091E0E5D86C2F70E080E090E036D9DF9178
:10101000CF91089528E0829FC0011124BC0163593B
:101020007E4F40E651E088E078DF809363018130B5
:1010300031F08091600190916101C5DF089589EFE1
:1010400090E0C5D81092640108951F93CF93DF9369
:10105000C82FD62F142F60E0A1D8112321F08DEFD7
:1010600090E0B5D803C08AEE90E0B1D881E0D9D83D
:101070006C2F70E080E090E000D98FE391E0A7D87A
:1010800062E08D2F90E08ED980E0CBD886ED90E0A5
:101090009ED8DF91CF911F910895CF93DF93EC01FC
:1010A00069E081E07BD882E0BCD88FE391E08FD803
:1010B00064E0CE0177D989ED90E089D8DF91CF91B6
:1010C00008950F931F93CF93DF93EB01209152016B
:1010D000222309F457C020915101211157C0FC016E
:1010E000E61BF70B20E13EE0CF01B90161D2629F20
:1010F000A001639F500D729F500D1124E0312EE02E
:10110000F207B0F49F01241B350BA9E8B8E880D2A0
:1011100096958795929582958F7089279F708927DC
:10112000082FE41B1E2F2CE3829F1019112410C0DE
:10113000062F9F01241B350BA9E8B8E869D29695C4
:101140008795929582958F7089279F708927182F90
:1011500069E082E023D883E064D88FE391E037D858
:1011600062E0802F90E01ED9C0FD04C086EE90E0C2
:101170002ED803C08AEE90E02AD862E0812F90E05A
:1011800011D913C080915101882349F069E082E0B0
:1011900005D883E046D88FEF90E019D806C069E003
:1011A00082E0FCD786E091E012D8DF91CF911F91C9
:1011B0000F9108958091470181111BC043B3447082
:1011C00060914B0181E041DF43B3427060914A017D
:1011D00082E03BDF80914801909149015EDF6091A0
:1011E0004F0170915001809157019091580169DF32
:1011F000089560E081E0D2D78EE091E0E8D760E02A
:1012000082E0CCD78FE191E0E2D70895CF93BCD7AD
:1012100060E081E0C3D78DE291E0D9D760E082E061
:10122000BDD7C0E08C2F68D98FE097E20197F1F726
:1012300000C00000CF5FC035A9F7A6D74CDC78947A
:1012400081E080935E01CF910895869947C02FE792
:1012500089EA93E0215080409040E1F700C000000F
:1012600080916100813031F41092610083E08093BD
:101270005E0100C189D780915E01823029F54091DD
:101280005D01242F30E08091620090E001972817E3
:10129000390724F44F5F40935D0120C0F4DB1092C6
:1012A0005D018091570190915801892B29F0A1DDB2
:1012B00081E08093520104C080915201811199DD37
:1012C00081E080935E01D6C0823020F48F5F8093EE
:1012D0005E0104C081E080935E01CCC080915E011C
:1012E000823009F0B7C087995DC02FE789EA93E0A3
:1012F000215080409040E1F700C0000080915D01E6
:1013000090E08730910508F0B8C0FC01E65EFF4F21
:10131000099480915C018A3508F0AFC08B5F80939F
:101320005C01089580915A0190915B018C3A26E20C
:10133000920708F0A2C0C29690935B0180935A0175
:101340000895809159018A3F08F097C08B5F809380
:1013500059010895809157019091580180322CE1F4
:10136000920708F08AC0CC96909358018093570159
:1013700008959091600081E089278093600008952E
:10138000809156018F3F09F478C08B5F809356019E
:101390000895809155018F3F09F46FC08B5F809352
:1013A00055010895B09969C08FE799EA23E081500B
:1013B00090402040E1F700C0000080915D0190E086
:1013C0008730910508F059C0FC01EF5DFF4F09948B
:1013D00080915C01853108F450C0855080935C0198
:1013E000089580915A0190915B018536910508F42A
:1013F00044C0C29790935B0180935A0108958091F5
:101400005901853BD0F18550809359010895809111
:10141000570190915801009781F1CC979093580112
:101420008093570108959091600081E0892780930F
:1014300060000895809156018823F9F085508093CB
:1014400056010895809155018823B9F08550809305
:101450005501089590915F01992379F09C9B0DC0EF
:10146000813059F4879909C0B09907C087E080930B
:101470006200089580915E01EDCF08951F920F9252
:101480000FB60F9211242F933F934F935F936F9357
:101490007F938F939F93AF93BF93EF93FF9380912D
:1014A00053019091540101969093540180935301FC
:1014B00082319A4708F448C0809152018823B9F0DC
:1014C00080914F019091500101969093500180932B
:1014D0004F0120915701309158018217930738F03E
:1014E00088DC60E080E074DB81E0809351018091D2
:1014F0006000882319F1809151018823F9F08091CF
:101500004E018530B0F480914D01811109C0809168
:101510004C0185BD80914D018F5F80934D0110C0BE
:1015200015BC10924D0180914E018F5F80934E014A
:1015300007C01092510110924E0102C01092510149
:101540001092540110925301FF91EF91BF91AF910E
:101550009F918F917F916F915F914F913F912F91CB
:101560000F900FBE0F901F9018954BDB0DD6AEDC81
:1015700060E082E013D68DE391E029D680E04ADD79
:1015800068E082E00BD681E491E021D681E042DD83
:101590005CDE80915E01823031F0833031F0813049
:1015A00029F408DE03C070DB01C030DE2BDCDFCFA6
:1015B000AA1BBB1B51E107C0AA1FBB1FA617B70779
:1015C00010F0A61BB70B881F991F5A95A9F7809595
:1015D0009095BC01CD010895052E97FB16F400945B
:1015E0000FD057FD05D020D007FC02D046F408C02C
:1015F00050954095309521953F4F4F4F5F4F08953F
:1016000090958095709561957F4F8F4F9F4F08956E
:10161000A29FB001B39FC001A39F01D0B29F700DE4
:10162000811D1124911D0895A1E21A2EAA1BBB1B36
:10163000FD010DC0AA1FBB1FEE1FFF1FA217B3079E
:10164000E407F50720F0A21BB30BE40BF50B661FB4
:10165000771F881F991F1A9469F760957095809578
:1016600090959B01AC01BD01CF010895E199FECF9A
:101670009FBB8EBBE09A99278DB30895A8E1B0E097
:1016800042E050E012C0262FE199FECF9FBB8EBBF7
:101690002DBB0FB6F894E29AE19A0FBE0196089519
:1016A000F2DF272FF1CFDC01CB01FC01E199FECF66
:1016B00006C0FFBBEEBBE09A31960DB20D924150D1
:0A16C0005040B8F70895F894FFCFEA
:1016CA000101030609090600000000040A0A0E1FA8
:1016DA001F0E00070E1C1F0E1C10001F1F0E040EEB
:1016EA001F1F000A0A1F1F0E0402040E111B150EEB
:1016FA000E04000E17131313170E00060A13131302
:10170A000A06000010181C1E1F09546F2063616C22
:10171A006962726174650009507265737320224DA3
:10172A004F44452200090953455454494E47530032
:10173A006D61783A20004300205700696E3A200014
:10174A002056000909003A00090920004F4E2000DE
:10175A004F4646004E203D20004E2F41003E003DA0
:10176A002D2D3A2D2D00202020202020200057202A
:10177A00412052204E2049204E2047212121000994
:10178A004F564552504F574552212121002043417F
:10179A004C4942524154494E472E2E2E0054313D57
:0617AA000054323D000076
:00000001FF
