S010000054502D4D657465722E7372656346
S113000027C041C040C03FC03EC03DC03CC03BC013
S11300103AC053C638C037C036C035C034C033C008
S113002032C031C030C035C447C458C468C48EC45B
S1130030A1C4AEC4A2C5AAC5B9C5C1C5C9C5CEC5EA
S1130040D6C5F4C5FCC509C610C617C61CC623C64A
S113005011241FBECFE5D4E0DEBFCDBF10E0A0E683
S1130060B0E0EEEBFEE002C005900D92AC3EB107AD
S1130070D9F720E0ACEEB0E001C01D92AC3FB2076E
S1130080E1F755D61AC7BCCFCF93DF9300D000D089
S113009000D0CDB7DEB79E838D831A821982298161
S11300A03A818D819E8128173907E8F41C821B82CE
S11300B08B819C818A3F910550F48B819C810196B0
S11300C09C838B838B819C818A3F9105B0F38981CA
S11300D09A8101969A83898329813A818D819E81AF
S11300E02817390718F326960FB6F894DEBF0FBE0B
S11300F0CDBFDF91CF910895CF93DF93EC01949A14
S113010081E090E0C1DF9498CE01BEDFDF91CF9112
S11301100895882314F4909A01C0909886FF02C031
S1130120919A01C0919885FF02C0929A01C0929859
S113013084FF02C0939A08959398089583FF02C0A0
S1130140909A01C0909882FF02C0919A01C0919840
S113015081FF02C0929A01C0929880FF02C0939AD4
S11301600895939808951F93CF93DF93182FEB016D
S1130170D0DF80E090E0C0DF812FE0DFCE01BCDF84
S1130180DF91CF911F91089562E070E081E0EBDF91
S1130190089562E070E082E0E6DF0895962F8230F1
S11301A051F0853071F0813089F460E070E0892F7E
S11301B08068D9DF089560E070E0892F806CD3DF18
S11301C0089560E070E0892F8064CDDF0895CF93B7
S11301D0DF93959AEC011EC08A3031F4959860E063
S11301E082E0DCDF959A16C08D3021F49598D1DF3A
S11301F0959A10C0893059F4959860E070E084E1D4
S1130200B2DF60E070E084E1AEDF959A03C060E0A5
S113021070E0A9DF89918111DFCF9598DF91CF91AB
S11302200895959A60E070E09EDF959808950F9385
S11302301F93CF93DF93082F192F660F660F660F56
S113024085E0ACDFC02FD12F10E08991EADF1F5F7A
S11302501830D9F7DF91CF911F910F9108958C3306
S113026039F08E3349F460E070E084E17CDF089576
S113027060E070E080E177DF08954F925F926F92C3
S11302807F928F929F92AF92BF92CF92DF92EF9222
S1130290FF924B015C01992354F48DE2C2DFB094C8
S11302A0A09490948094811C911CA11CB11C8AE0A0
S11302B088169104A104B1040CF464C0C12CD12C9F
S11302C07601C394CC0CDD1CEE1CFF1CD701C601C7
S11302D0880F991FAA1FBB1F880F991FAA1FBB1F36
S11302E0C80ED91EEA1EFB1EC501B401A701960162
S11302F06DD52A3031054105510524F780E3820F7D
S113030090DFC701B6012AE030E040E050E05ED55E
S113031069017A012115310541055105B1F10F2E0D
S1130320FAE04F2E512C612C712CF02DD701C6010F
S1130330880F991FAA1FBB1FAC01BD01440F551F95
S1130340661F771F440F551F661F771F9A01AB0165
S1130350280F391F4A1F5B1FC501B40137D5A701F8
S1130360960134D580E3820F5CDFC701B601A30197
S113037092012CD569017A012115310541055105F8
S1130380A9F603C080E3880D4CDFFF90EF90DF9067
S1130390CF90BF90AF909F908F907F906F905F9021
S11303A04F900895CF93DF93EC01623009F442C07B
S11303B020F4613009F462C07CC06330A9F0643079
S11303C009F077C09C013695279536952795369583
S11303D02795A5ECB0E216D5929582958F70892762
S11303E09F708927805D1DDF9E0136952795369580
S11303F02795ABE7B4E106D5AC01569547959A012C
S1130400ADECBCECFFD4969587959695879596951B
S113041087959C01220F331F880F991F880F991FFE
S1130420880F991F820F931F9A01281B390BC9014A
S1130430805DF7DE9E01ADECBCECE4D4AC015695D6
S1130440479556954795569547959A01DBD49695C9
S1130450879596958795969587959C01220F331FCE
S1130460880F991F880F991F880F991F820F931F58
S11304709A01281B390BC901805DD3DE9E01ADECC6
S1130480BCECC0D496958795969587959695879557
S11304909C01220F331F880F991F880F991F880F03
S11304A0991F820F931F9E01281B390BC901805D80
S11304B0B8DEDF91CF910895FF920F931F93CF93EE
S11304C0DF93C3EAD0E000E06894FF24F3F8602FE0
S11304D085E064DE1F2D8881A4DE1150E1F7085FFA
S11304E021960033A1F760E081E058DEDF91CF91DF
S11304F01F910F91FF9008950F931F93CF93DF9354
S1130500C091EC006DECC69F612D11246695669533
S1130510182F813508F010E5C117D0F482E03EDED3
S1130520DDECCF5FCD9F812D112486958695982F84
S1130530990F990F890F9C2F981B892F19F485E027
S113054070DE03C06EDE8CE38ADEC113EACF2EC0F8
S11305508DECC89F812D112486958695982F990F2F
S1130560990F890FC81301C0615082E017DE60E063
S113057070E084E0F8DDC117A9F00DECC150C09F14
S1130580D12D1124D695D6958D2F880F880FD80F8D
S11305908C2F8D1BD82F45DEDD2311F08EE35FDE1B
S11305A0C113ECCF60E070E086E0DDDD1093EC0079
S11305B0DF91CF911F910F910895CF93C82FA9DD9B
S11305C080E090E099DD80E090E096DD8C2FB6DD50
S11305D080E090E091DDCF9108958CE2EEDF60E061
S11305E070E08CE0C0DD60E070E086E0BCDD62E0DD
S11305F070E081E0B8DD62E070E082E0B4DD5CDFF1
S1130600089587E090E02CD49CEE980F973418F46A
S11306108093F90003C084E18093F90085E090E0C1
S113062027D49C01245631092934364228F4909366
S1130630F8008093F70006C084E690E09093F800F9
S11306408093F70084E090E00BD49CE4980F9734F7
S113065018F48093F60003C08CED8093F60083E0D9
S113066090E0FED3893718F48093F50002C010920D
S1130670F50082E090E0F4D38093F40081E090E010
S1130680EFD38093F30080E090E0EAD3809360009E
S113069008956091F90087E090E0EFD36091F7004E
S11306A07091F80085E090E0F5D36091F60084E065
S11306B090E0E3D36091F50083E090E0DED36091B5
S11306C0F40082E090E0D9D36091F30081E090E0FF
S11306D0D4D36091600080E090E0CFD30895CF93AD
S11306E0DF93CDB7DEB7C054D1090FB6F894DEBF9F
S11306F00FBECDBF88E0E3E6F0E0DE011196019085
S11307000D928A95E1F788E0EBE6F0E0DE011996B8
S113071001900D928A95E1F788E0E3E7F0E0DE01CD
S1130720519601900D928A95E1F788E0EBE7F0E0AD
S1130730DE01599601900D928A95E1F788E0E3E88D
S1130740F0E0DE01919601900D928A95E1F788E040
S1130750EBE8F0E0DE01999601900D928A95E1F7BD
S113076088E0E3E9F0E0DE01D19601900D928A95EC
S1130770E1F788E0EBE9F0E0DE01D99601900D9213
S11307808A95E1F760E0CE01019651DD61E0CE018A
S113079009964DDD62E0CE01419649DD63E0CE016C
S11307A0499645DD64E0CE01819641DD65E0CE01E8
S11307B089963DDD66E0CE01C19639DD67E0CE0164
S11307C0C99635DDC05CDF4F0FB6F894DEBF0FBEAF
S11307D0CDBFDF91CF9108958EE387BB87E088BBBF
S11307E08FE984BB15BA8FE381BB80EC82BB89B7E8
S11307F0816089BF83B7816083BF8FB5816A8FBDF4
S11308008EB581608EBD85B58B6685BD8FE783BD52
S11308108EB585608EBD85B58F6685BD85B58093A3
S1130820ED00EFDEDADEB0DC78940895CF93ACDC33
S113083060E081E0B3DC89EA90E0C9DC60E082E05A
S1130840ADDCC0E08C2F58DE8FE097E20197F1F722
S113085000C00000CF5FC035A9F796DC40DF81E01F
S11308608093FB00CF910895CF9360E081E096DC04
S113087089EB90E0ACDC60E082E090DC8091FA00EF
S113088090E08730910508F090C0FC01ED5EFF4FC9
S113089009948DED90E09BDC81E0C3DC84EC90E076
S11308A096DC8091F90062E090E07CDD80E0B9DCC8
S11308B08AEC90E08CDC79C088ED90E088DC82E002
S11308C0B0DC84EC90E083DC64E08091F7009091EC
S11308D0F80068DD8CEC90E07ADC67C08DED90E088
S11308E076DC84E09EDC8FEC90E071DC8091F60095
S11308F063E090E057DD84ED90E069DC56C087ED5D
S113090090E065DC83E08DDC81ED90E060DC80913B
S1130910F500C9E88C9F812D1124829586958770F6
S113092062E090E03FDD8AED90E051DC8091F500DB
S11309308C9FC12D1124C295C695C7709CE3C99F95
S11309408019112462E090E02DDD2FC08CED90E041
S11309503EDC87E066DC81ED90E039DC809160006C
S1130960882321F080EE90E032DC1FC084EE90E01A
S11309702EDC1BC08CED90E02ADC85E052DC81ED9E
S113098090E025DC8091F40063E090E00BDD0DC085
S11309908CED90E01CDC86E044DC81ED90E017DC1B
S11309A08091F30063E090E0FDDCCF91089588230B
S11309B021F08091ED0085BD089515BC08952AB5F8
S11309C03BB58091F40090E02817390711F09BBDE6
S11309D08ABD28B539B58091F30090E0281739070E
S11309E011F099BD88BD08951F93CF93DF93C82F4D
S11309F0D62F142F60E0D2DB112321F088EE90E093
S1130A00E6DB03C08EED90E0E2DB81E00ADC6C2FD4
S1130A1070E080E090E031DC8AEE90E0D8DB62E0C8
S1130A208D2F90E0BFDC80E0FCDB8AEC90E0CFDB34
S1130A30DF91CF911F910895CF93DF93EC0169E08B
S1130A4081E0ACDB82E0EDDB8AEE90E0C0DB64E0C9
S1130A50CE01A8DC8DEC90E0BADBDF91CF91089554
S1130A60CF93DF93D82FD61B69E082E097DB83E036
S1130A70D8DB8AEE90E0ABDBC9E8DC9FC12D112402
S1130A80C295C695C77062E08C2F90E08BDC8AED2E
S1130A9090E09DDB8D2F9CE3C99F8019112462E0B7
S1130AA090E080DCDF91CF91089540E06BE181E03C
S1130AB09BDF41E060E282E097DF8CEA96E2BCDFF4
S1130AC08091F500882319F06091EE00C9DF089544
S1130AD0869938C02FEF84E39CE0215080409040F9
S1130AE0E1F700C0000080916100813031F4109280
S1130AF0610083E08093FB00089546DB8091FB0056
S1130B008230B1F44091FA00242F30E080916200E9
S1130B1090E001972817390724F44F5F4093FA00B7
S1130B2011C0B7DD1092FA0081E08093FB00BDC0D4
S1130B30823020F48F5F8093FB0004C081E08093B7
S1130B40FB00B3C08091FB00823009F0ACC08799F0
S1130B5057C02FEF84E39CE0215080409040E1F7A0
S1130B6000C000008091FA0090E08730910508F001
S1130B70A3C0FC01E65EFF4F09948091F9008A3519
S1130B8008F09AC0865F8093F90008958091F70079
S1130B909091F8008C3A26E2920708F08DC08C59A7
S1130BA09F4F9093F8008093F70008958091F6008A
S1130BB08A3F08F081C0865F8093F6000895809193
S1130BC0F500883708F078C0865F8093F5000895B3
S1130BD08091600080958093600008958091F40076
S1130BE08F3F09F469C08B5F8093F400089580916E
S1130BF0F3008F3F09F460C08B5F8093F300089586
S1130C00B0995AC08FEF94E32CE08150904020407B
S1130C10E1F700C000008091FA0090E08730910570
S1130C2008F04AC0FC01EF5DFF4F09948091F90080
S1130C30853108F441C08A508093F9000895809169
S1130C40F7009091F80085369105B0F1845691092A
S1130C509093F8008093F70008958091F600853B07
S1130C6058F18A508093F60008958091F500882306
S1130C7019F18A508093F500089580916000809561
S1130C808093600008958091F4008823A9F0855032
S1130C908093F40008958091F300882369F08550CF
S1130CA08093F3000895813039F4879905C0B09991
S1130CB003C087E08093620008951F920F920FB6DD
S1130CC00F9211242F938F939F938091F100909111
S1130CD0F20001969093F2008093F10082319A47DA
S1130CE0F0F08091F0008823B1F08091EF008F5FE5
S1130CF08093EF008C3378F08091EE008F5F8093C7
S1130D00EE001092EF009091F500891720F01092F8
S1130D10F0001092EE001092F2001092F1009F91F8
S1130D208F912F910F900FBE0F901F90189554DD47
S1130D30AA9A2FEF89E698E1215080409040E1F78C
S1130D4000C00000A99A2FEF89E698E12150804065
S1130D509040E1F700C00000AA982FEF89E698E1DF
S1130D60215080409040E1F700C00000A99882E043
S1130D708093F50081E08093F000AADE8091FB006F
S1130D80823031F0833031F0813029F48EDE03C0BB
S1130D906BDD01C04BDD13DE8091600008DE60E096
S1130DA081E0FCD98091EE0062E090E0FBDA62E041
S1130DB081E0F4D98AED90E00ADA63E081E0EED9CB
S1130DC08091EF0062E090E0EDDAD7CF052E97FB3B
S1130DD016F400940FD057FD05D020D007FC02D0A4
S1130DE046F408C050954095309521953F4F4F4F9C
S1130DF05F4F089590958095709561957F4F8F4FC3
S1130E009F4F0895A29FB001B39FC001A39F01D03B
S1130E10B29F700D811D1124911D0895A1E21A2E17
S1130E20AA1BBB1BFD010DC0AA1FBB1FEE1FFF1F8A
S1130E30A217B307E407F50720F0A21BB30BE40BDA
S1130E40F50B661F771F881F991F1A9469F7609521
S1130E507095809590959B01AC01BD01CF010895DB
S1130E60E199FECF9FBB8EBBE09A99278DB308957D
S1130E70A8E1B0E042E050E012C0262FE199FECF95
S1130E809FBB8EBB2DBB0FB6F894E29AE19A0FBEBE
S1130E9001960895F2DF272FF1CFDC01CB01FC018D
S1130EA0E199FECF06C0FFBBEEBBE09A31960DB2CE
S1110EB00D9241505040B8F70895F894FFCFCA
S1130EBE0101030609090600000000040A0A0E1FB8
S1130ECE1F0E00070E1C1F0E1C10001F1F0E040EFB
S1130EDE1F1F000A0A1F1F0E0402040E111B150EFB
S1130EEE0E04000E17131313170E00060A13131312
S1130EFE0A06000010181C1E1F2043414C49425282
S1130F0E4154494E472E2E2E000909534554544937
S1130F1E4E4753006D61783A200043002057006914
S1130F2E6E3A20002056000909003A0009092000F3
S10F0F3E4F4E20004F4646003E003D0090
S9030000FC
