S010000054502D4D657465722E7372656346
S11300008FC0A9C0A8C0A7C0A6C0A5C0A4C0A3C0D3
S1130010A2C0A3C3A0C09FC09EC09DC022C49BC059
S11300209AC099C098C000407A10F35A00A0724E4A
S113003018090010A5D4E80000E87648170000E489
S11300400B54020000CA9A3B000000E1F5050000D1
S113005080969800000040420F000000A086010036
S11300600000102700000000E80300000000640006
S1130070000000000A000000000001000000000071
S11300802C76D888DC674F0823DFC1DFAE59E1B195
S1130090B796E5E3E453C63AE651997696E8E6C2A4
S11300A08426EB898C9B62ED407C6FFCEFBC9C9FAB
S11300B040F2BAA56FA5F490055A2AF75C936B6CCD
S11300C0F9676DC11BFCE0E40D47FEF520E6B500C1
S11300D0D0ED902E0300943577050080841E08002F
S11300E000204E0A000000C80C333333330F986EDF
S11300F012831141EF8D2114893BE65516CFFEE69C
S1130100DB18D1844B381BF77C1D901DA4BBE42461
S1130110203284725E228100C9F124ECA1E53D27DE
S113012011241FBECFE5D4E0DEBFCDBF11E0A0E6B1
S1130130B0E0E2E2F1E102C005900D92A832B1070D
S1130140D9F721E0A8E2B1E001C01D92A134B207C1
S1130150E1F7A5D3E4C754CFCF93DF9300D000D009
S113016000D0CDB7DEB79E838D831A821982298190
S11301703A818D819E8128173907E8F41C821B82FD
S11301808B819C818831914050F48B819C810196B4
S11301909C838B838B819C8188319140B0F38981CE
S11301A09A8101969A83898329813A818D819E81DE
S11301B02817390718F326960FB6F894DEBF0FBE3A
S11301C0CDBFDF91CF910895CF93DF93EC01949A43
S11301D083E090E0C1DF9498CE01BEDFDF91CF9140
S11301E00895882314F4909A01C0909886FF02C061
S11301F0919A01C0919885FF02C0929A01C0929889
S113020084FF02C0939A08959398089583FF02C0CF
S1130210909A01C0909882FF02C0919A01C091986F
S113022081FF02C0929A01C0929880FF02C0939A03
S11302300895939808951F93CF93DF93182FEB019C
S1130240D0DF80E090E0C0DF812FE0DFCE01BCDFB3
S1130250DF91CF911F91089562E070E081E0EBDFC0
S1130260089562E070E082E0E6DF0895962F823020
S113027051F0853071F0813089F460E070E0892FAD
S11302808068D9DF089560E070E0892F806CD3DF47
S1130290089560E070E0892F8064CDDF0895CF93E6
S11302A0DF93959AEC011EC08A3031F4959860E092
S11302B082E0DCDF959A16C08D3021F49598D1DF69
S11302C0959A10C0893059F4959860E070E084E103
S11302D0B2DF60E070E084E1AEDF959A03C060E0D5
S11302E070E0A9DF89918111DFCF9598DF91CF91DB
S11302F00895959A60E070E09EDF959808958C3398
S113030039F08E3349F460E070E084E194DF0895BD
S113031060E070E080E18FDF0895CF93DF93EC011C
S1130320623009F442C020F4613009F462C07CC038
S11303306330A9F0643009F077C09C0136952795A5
S11303403695279536952795A5ECB0E23DD4929540
S113035082958F7089279F708927805DCADF9E01EF
S11303603695279536952795ABE7B4E12DD4AC01A6
S1130370569547959A01ADECBCEC26D49695879595
S113038096958795969587959C01220F331F880F24
S1130390991F880F991F880F991F820F931F9A0125
S11303A0281B390BC901805DA4DF9E01ADECBCECB8
S11303B00BD4AC0156954795569547955695479558
S11303C09A0102D4969587959695879596958795E3
S11303D09C01220F331F880F991F880F991F880FC4
S11303E0991F820F931F9A01281B390BC901805D45
S11303F080DF9E01ADECBCECE7D39695879596958E
S11304008795969587959C01220F331F880F991F16
S1130410880F991F880F991F820F931F9E01281B15
S1130420390BC901805D65DFDF91CF910895FF929B
S11304300F931F93CF93DF93C1E6D0E000E068945D
S1130440FF24F3F8602F85E011DF1F2D888151DF31
S11304501150E1F7085F21960033A1F760E081E0D5
S113046005DFDF91CF911F910F91FF9008950F93B6
S11304701F93CF93DF93C09128016DECC69F612D2C
S1130480112466956695182F813508F010E5C1177B
S1130490D0F482E0EBDEDDECCF5FCD9F812D112423
S11304A086958695982F990F990F890F9C2F981BE5
S11304B0892F19F485E01DDF03C01BDF8CE31FDFE8
S11304C0C113EACF2EC08DECC89F812D11248695CF
S11304D08695982F990F990F890FC81301C0615001
S11304E082E0C4DE60E070E084E0A5DEC117A9F01C
S11304F00DECC150C09FD12D1124D695D6958D2FCA
S1130500880F880FD80F8C2F8D1BD82FF2DEDD2398
S113051011F08EE3F4DEC113ECCF60E070E086E00E
S11305208ADE10932801DF91CF911F910F910895D6
S1130530CF93C82F56DE80E090E046DE80E090E066
S113054043DE8C2F63DE80E090E03EDECF910895A1
S11305508CE2EEDF60E070E08CE06DDE60E070E085
S113056086E069DE62E070E081E065DE62E070E012
S113057082E061DE5CDF0895CF9380E090E050D3A9
S1130580C82F882321F060E080E090E056D389E012
S113059090E046D39CEE980F973418F480933F0173
S11305A003C084E180933F0187E090E041D39C0144
S11305B0245631092934364228F490933E0180931D
S11305C03D0106C024E630E030933E0120933D0116
S11305D086E090E025D39CE4980F973418F4809338
S11305E03C0103C08CED80933C0184E090E020D377
S11305F081322CE1920728F490933B0180933A01D5
S113060004C010923B0110923A0183E090E008D3B9
S11306108093390182E090E003D3CF3F19F08093B7
S1130620380103C084E68093380181E090E0F8D279
S1130630811103C01092600003C081E080936000C8
S1130640CF910895813019F0823039F00CC06623BF
S113065011F0AA980895AA9A0895662311F0A9980A
S11306600895A99A0895662319F0AA98A998089557
S1130670AA9AA99A08951092350110923401109201
S113068033011092320108959F92AF92BF92CF929C
S1130690DF92EF92FF920F931F93CF93DF938C011E
S11306A09C01ADECBCEC90D25C010024AA0CBB1CF8
S11306B0001CAA0CBB1C001CAB2CB02C909040015D
S11306C00115110501F1C0E0D0E0C12CD12C760157
S11306D0369A83E09816D9F08FE99FE00197F1F7F5
S11306E000C000008091290190912A01A0912B0162
S11306F0B0912C01C80ED91EEA1EFB1E2196C0170C
S1130700D10731F716C0C12CD12C760112C08091CB
S1130710290190912A01A0912B01B0912C01C80EBE
S1130720D91EEA1EFB1ECE01B50118D2862F9FDE0C
S1130730E5CF980140E050E0C701B60123D2DA01C9
S1130740C901DF91CF911F910F91FF90EF90DF903E
S1130750CF90BF90AF909F9008951F920F920FB6C5
S11307600F9211242F933F934F935F936F937F9333
S11307708F939F93AF93BF93EF93FF938091360131
S1130780909137010196909337018093360184321A
S1130790944F08F455C0809135018823B9F08091B5
S11307A03201909133010196909333018093320189
S11307B020913A0130913B018217930738F05BDFB7
S11307C060E080E03FDF81E080933401809160004D
S11307D0882319F1809134018823F9F08091310143
S11307E08530B0F480913001811109C080912F01CE
S11307F085BD809130018F5F8093300110C015BC9E
S113080010923001809131018F5F8093310107C0D4
S1130810109234011092310102C0109234011092EE
S113082037011092360180912D01843020F48F5FBE
S113083080932D0105C010922D0181E080932E013B
S1130840FF91EF91BF91AF919F918F917F916F91A4
S11308505F914F913F912F910F900FBE0F901F907A
S113086018951F920F920FB60F9211248F939F9396
S1130870AF93BF9384B195B1A0E0B0E08093290118
S113088090932A01A0932B01B0932C01BF91AF91B7
S11308909F918F910F900FBE0F901F901895CF933B
S11308A0DF93CDB7DEB72A970FB6F894DEBF0FBE3D
S11308B0CDBF8EE387BB87E088BB8FE884BB80E233
S11308C085BB8FE381BB80EC82BB8FB5816A8FBD12
S11308D08EB581608EBD3A9A86B18F6086B94CDE42
S11308E08091390190E09BBD8ABD8091380190E0F0
S11308F099BD88BD2DDEB0DC379A369A789484E6AB
S113090090E0C2DE7C01BC0180E090E036D020E0C3
S113091030E040E250E46ED020E030E040E85AE3BA
S113092069D020E030E040EF51E464D02DEC3CECA1
S11309304CEE5FE35FD023EF34E045EB5FE35AD046
S113094020E030E041E653E455D08E010F5F1F4FA5
S113095022E044E045D160E081E088DC8EE191E072
S11309609EDC64E0C701D9DC60E082E07FDC83E2E6
S113097091E095DCC80193DCC2CFE89409C097FBF1
S11309803EF490958095709561957F4F8F4F9F4F62
S11309909923A9F0F92F96E9BB279395F6958795A6
S11309A077956795B795F111F8CFFAF4BB0F11F469
S11309B060FF1BC06F5F7F4F8F4F9F4F16C0882310
S11309C011F096E911C0772321F09EE8872F762F46
S11309D005C0662371F096E8862F70E060E02AF087
S11309E09A95660F771F881FDAF7880F9695879573
S11309F097F908950BD078C069D028F06ED018F01C
S1130A00952309F05AC05FC01124A2C07ED0A0F380
S1130A10959FD1F3950F50E0551F629FF001729F8F
S1130A20BB27F00DB11D639FAA27F00DB11DAA1FAE
S1130A30649F6627B00DA11D661F829F2227B00DFB
S1130A40A11D621F739FB00DA11D621F839FA00D86
S1130A50611D221F749F3327A00D611D231F849FD6
S1130A60600D211D822F762F6A2F11249F5750402D
S1130A708AF0E1F088234AF0EE0FFF1FBB1F661FC8
S1130A80771F881F91505040A9F79E3F510570F081
S1130A9014C05EC05F3FECF3983EDCF38695779517
S1130AA06795B795F795E7959F5FC1F7FE2B880F7C
S1130AB0911D9695879597F9089597F99F6780E812
S1130AC070E060E008959FEF80EC089500240A949C
S1130AD01616170618060906089500240A94121615
S1130AE01306140605060895092E0394000C11F448
S1130AF0882352F0BB0F40F4BF2B11F460FF04C0F5
S1130B006F5F7F4F8F4F9F4F089557FD9058440F4D
S1130B10551F59F05F3F71F04795880F97FB991F58
S1130B2061F09F3F79F08795089512161306140615
S1130B30551FF2CF4695F1DF08C0161617061806A2
S1130B40991FF1CF86957105610508940895E8947D
S1130B50BB2766277727CB0197F90895AA1BBB1BF0
S1130B6051E107C0AA1FBB1FA617B70710F0A61BA9
S1130B70B70B881F991F5A95A9F780959095BC01CA
S1130B80CD010895A1E21A2EAA1BBB1BFD010DC0C5
S1130B90AA1FBB1FEE1FFF1FA217B307E407F50729
S1130BA020F0A21BB30BE40BF50B661F771F881F05
S1130BB0991F1A9469F760957095809590959B019B
S1130BC0AC01BD01CF010895A29FB001B39FC00144
S1130BD0A39F01D0B29F700D811D1124911D089512
S1130BE0EF920F931F93CF93DF93E80147FF02C067
S1130BF034E101C034E0E42FFF27E7FDF095F7FF6F
S1130C0003C0F195E195F109E32E022F2E2FAE01D9
S1130C1021D0CE01DF91CF911F910F91EF900895D4
S1130C20E199FECF9FBB8EBBE09A99278DB30895BF
S1130C30A8E1B0E042E050E064C2262FE199FECF83
S1130C409FBB8EBB2DBB0FB6F894E29AE19A0FBE00
S1130C50019608956F927F929F92AF92BF92CF9226
S1130C60DF92EF92FF920F931F93CF93DF93CDB751
S1130C70DEB729970FB6F894DEBF0FBECDBF6A0169
S1130C80B22E102F0C3320F4FF24F394F00E02C084
S1130C904CE3F42E0F2D27E0AE014F5F5F4F57D189
S1130CA07981272F2970213031F0E1FC06C0E0FC66
S1130CB006C060E005C06DE203C06BE201C060E203
S1130CC0AE2DA07173FF36C0662311F084E001C01D
S1130CD083E08B1510F4B81A01C0B12CA1110BC01C
S1130CE0F6018B2D90E2882319F091938150FBCF6C
S1130CF0CB0CD11CB12C662331F0F6016083960134
S1130D002F5F3F4F6901C6010396E2FE05C02EE442
S1130D10F601208331E404C02EE6F601208331E697
S1130D2031832283FC012B2D30E22223F1F1319314
S1130D302150FBCF72FF40C0662311F084E001C054
S1130D4083E08B1510F4B81A01C0B12CA1110BC0AB
S1130D50F6018B2D90E2882319F091938150FBCFFB
S1130D60CB0CD11CB12C662331F0F60160839601C3
S1130D702F5F3F4F6901C6010396E2FE07C029E4D5
S1130D80F60120832EE4218326E406C029E6F60139
S1130D9020832EE6218326E62283FC012B2D30E2DC
S1130DA0222319F031932150FBCFFC01EB0DF11DEF
S1130DB010828EEF9FEFB7C0B1E0611101C0B0E0C7
S1130DC04B2F50E01816190624F49C012F5F3F4F57
S1130DD002C021E030E0240F351F112329F0412FF8
S1130DE050E04F5F5F4F02C040E050E0420F531F9E
S1130DF02B2D30E04217530714F4B41A01C0B12C60
S1130E002E2D287159F4F6012B2D30E2222319F0EE
S1130E1031932150FBCFCB0CD11CB12CBB2331F02F
S1130E20F601608396012F5F3F4F6901A1110BC04A
S1130E30F6012B2D30E3222319F031932150FBCFFF
S1130E40CB0CD11CB12CF80E0A81372F3071A32E94
S1130E5074FF03C0013309F4FA941F142CF42F2DEA
S1130E60293018F028E001C021E0682F392F97FFBE
S1130E7002C060E030E0462F532F612C712C3EE21B
S1130E80932EBC01621B71099B01DC01A41BB50BF1
S1130E90E1E0F0E0EC0FFD1FAE0FBF1FE12EF12CDF
S1130EA0F194E194F1084F3FFFEF5F0731F4F6014D
S1130EB09082B6016F5F7F4F6B01841795074CF0EA
S1130EC02417350734F4BD01660D771DFB0111812C
S1130ED001C010E341505109FFEF6F1A7F0AB601B8
S1130EE06F5F7F4F4E155F0524F0F60110836B0191
S1130EF0DACF4817590739F4063320F4053319F4C7
S1130F00A11001C011E3F6011083FB018B2D90E2C7
S1130F10882319F091938150FBCFFB01EB0DF11D58
S1130F20108280E090E029960FB6F894DEBF0FBEE1
S1130F30CDBFDF91CF911F910F91FF90EF90DF9084
S1130F40CF90BF90AF909F907F906F90089528307E
S1130F5008F027E03327DA01990F311D87FD9160EE
S1130F6000966105710539F432602E5F3D9330E3DC
S1130F702A95E1F708959F3F30F0803871056105A7
S1130F8009F03C5F3C5F3D93913008F08068911D0F
S1130F90DF93CF931F930F93FF92EF92192F987FB4
S1130FA09695E92F96959695E90FFF27E058FF4F00
S1130FB099273327EE24FF24A701E701059008941D
S1130FC0079428F4360FE71EF81E491F511D660FBB
S1130FD0771F881F991F0694A1F70590079428F49A
S1130FE0E70EF81E491F561FC11D770F881F991F52
S1130FF0661F0694A1F70590079428F4F80E491F7C
S1131000561FC71FD11D880F991F661F771F06948F
S1131010A1F70590079420F4490F561FC71FD81F46
S1131020990F661F771F881F0694A9F7849110955E
S1131030177041F0D695C79557954795F794E7945F
S11310401A95C1F7E6E2F0E0689415901591359190
S11310506591959105907FE27395E118F10A430B30
S1131060560BC90BD009C0F7E10CF11E431F561FE4
S1131070C91FD01D7EF4703311F48A95E6CFE8942D
S1131080015030F0080F0AF40027021708F4202F4B
S11310902395022F7A3328F079E37D932A95E9F793
S11310A010C07D932A9589F6069497956795379590
S11310B017951794E118F10A430B560BC90BD00985
S11310C098F023957E9173957A3308F070E37C93BE
S11310D02013B8F77E9170617D9330F0839571E3AE
S11310E07D9370E32A95E1F71124EF90FF900F911F
S11310F01F91CF91DF91992787FD90950895DC0189
S1131100CB01FC01E199FECF06C0FFBBEEBBE09A28
S113111031960DB20D9241505040B8F70895F894AD
S1051120FFCFFB
S1131122010010181C1E1F0954656D702E20736572
S11311326E736F72730009646574656374696E67B4
S11311422E2E2E0009546F2063616C6962726174E1
S1131152650009507265737320224D4F4445220085
S1131162090953455454494E4753006D61783A2056
S1131172004300205700696E3A20002056000909F6
S1131182003A00090920004F4E20004F4646003E17
S1131192003D003D2D2D3A2D2D0020202020202021
S11311A220005720412052204E2049204E20472122
S11311B2212100094F564552504F574552212121B2
S11311C2002043414C4942524154494E472E2E2E4F
S11311D200414443204E6F697365203D20004C203A
S10B11E23D200050203D2000D7
S9030000FC
