S010000054502D4D657465722E7372656346
S113000027C041C040C03FC03EC03DC03CC03BC013
S11300103AC08CC738C037C036C035C034C033C0CE
S113002032C031C030C075C487C498C4A8C4E2C407
S1130030F5C402C5DCC6E4C6F2C6FAC608C70EC7D4
S113004016C734C73BC747C74EC759C75FC766C73C
S113005011241FBECFE5D4E0DEBFCDBF11E0A0E682
S1130060B0E0E4E7F1E102C005900D92AC33B107D2
S1130070D9F721E0ACE3B1E001C01D92A635B20787
S1130080E1F7CBD775C8BCCFCF93DF9300D000D0B6
S113009000D0CDB7DEB79E838D831A821982298161
S11300A03A818D819E8128173907E8F41C821B82CE
S11300B08B819C818A3F910550F48B819C810196B0
S11300C09C838B838B819C818A3F9105B0F38981CA
S11300D09A8101969A83898329813A818D819E81AF
S11300E02817390718F326960FB6F894DEBF0FBE0B
S11300F0CDBFDF91CF910895CF93DF93EC01949A14
S113010081E090E0C1DF9498CE01BEDFDF91CF9112
S11301100895882314F4909A01C0909886FF02C031
S1130120919A01C0919885FF02C0929A01C0929859
S113013084FF02C0939A08959398089583FF02C0A0
S1130140909A01C0909882FF02C0919A01C0919840
S113015081FF02C0929A01C0929880FF02C0939AD4
S11301600895939808951F93CF93DF93182FEB016D
S1130170D0DF80E090E0C0DF812FE0DFCE01BCDF84
S1130180DF91CF911F91089562E070E081E0EBDF91
S1130190089562E070E082E0E6DF0895962F8230F1
S11301A051F0853071F0813089F460E070E0892F7E
S11301B08068D9DF089560E070E0892F806CD3DF18
S11301C0089560E070E0892F8064CDDF0895CF93B7
S11301D0DF93959AEC011EC08A3031F4959860E063
S11301E082E0DCDF959A16C08D3021F49598D1DF3A
S11301F0959A10C0893059F4959860E070E084E1D4
S1130200B2DF60E070E084E1AEDF959A03C060E0A5
S113021070E0A9DF89918111DFCF9598DF91CF91AB
S11302200895959A60E070E09EDF959808950F9385
S11302301F93CF93DF93082F192F660F660F660F56
S113024085E0ACDFC02FD12F10E08991EADF1F5F7A
S11302501830D9F7DF91CF911F910F9108958C3306
S113026039F08E3349F460E070E084E17CDF089576
S113027060E070E080E177DF08954F925F926F92C3
S11302807F928F929F92AF92BF92CF92DF92EF9222
S1130290FF924B015C01992354F48DE2C2DFB094C8
S11302A0A09490948094811C911CA11CB11C8AE0A0
S11302B088169104A104B1040CF464C0C12CD12C9F
S11302C07601C394CC0CDD1CEE1CFF1CD701C601C7
S11302D0880F991FAA1FBB1F880F991FAA1FBB1F36
S11302E0C80ED91EEA1EFB1EC501B401A701960162
S11302F0C8D62A3031054105510524F780E3820F21
S113030090DFC701B6012AE030E040E050E0B9D602
S113031069017A012115310541055105B1F10F2E0D
S1130320FAE04F2E512C612C712CF02DD701C6010F
S1130330880F991FAA1FBB1FAC01BD01440F551F95
S1130340661F771F440F551F661F771F9A01AB0165
S1130350280F391F4A1F5B1FC501B40192D6A7019C
S113036096018FD680E3820F5CDFC701B601A3013B
S1130370920187D669017A0121153105410551059C
S1130380A9F603C080E3880D4CDFFF90EF90DF9067
S1130390CF90BF90AF909F908F907F906F905F9021
S11303A04F900895CF93DF93EC01623009F442C07B
S11303B020F4613009F462C07CC06330A9F0643079
S11303C009F077C09C013695279536952795369583
S11303D02795A5ECB0E271D6929582958F70892706
S11303E09F708927805D1DDF9E0136952795369580
S11303F02795ABE7B4E161D6AC01569547959A01D0
S1130400ADECBCEC5AD696958795969587959695BE
S113041087959C01220F331F880F991F880F991FFE
S1130420880F991F820F931F9A01281B390BC9014A
S1130430805DF7DE9E01ADECBCEC3FD6AC01569579
S1130440479556954795569547959A0136D696956C
S1130450879596958795969587959C01220F331FCE
S1130460880F991F880F991F880F991F820F931F58
S11304709A01281B390BC901805DD3DE9E01ADECC6
S1130480BCEC1BD6969587959695879596958795FA
S11304909C01220F331F880F991F880F991F880F03
S11304A0991F820F931F9E01281B390BC901805D80
S11304B0B8DEDF91CF910895FF920F931F93CF93EE
S11304C0DF93C3EAD0E000E06894FF24F3F8602FE0
S11304D085E064DE1F2D8881A4DE1150E1F7085FFA
S11304E021960033A1F760E081E058DEDF91CF91DF
S11304F01F910F91FF9008950F931F93CF93DF9354
S1130500C0913C016DECC69F612D112466956695E2
S1130510182F813508F010E5C117D0F482E03EDED3
S1130520DDECCF5FCD9F812D112486958695982F84
S1130530990F990F890F9C2F981B892F19F485E027
S113054070DE03C06EDE8CE38ADEC113EACF2EC0F8
S11305508DECC89F812D112486958695982F990F2F
S1130560990F890FC81301C0615082E017DE60E063
S113057070E084E0F8DDC117A9F00DECC150C09F14
S1130580D12D1124D695D6958D2F880F880FD80F8D
S11305908C2F8D1BD82F45DEDD2311F08EE35FDE1B
S11305A0C113ECCF60E070E086E0DDDD10933C0128
S11305B0DF91CF911F910F910895CF93C82FA9DD9B
S11305C080E090E099DD80E090E096DD8C2FB6DD50
S11305D080E090E091DDCF9108958CE2EEDF60E061
S11305E070E08CE0C0DD60E070E086E0BCDD62E0DD
S11305F070E081E0B8DD62E070E082E0B4DD5CDFF1
S1130600089594B38095982394BB95B3892385BBAF
S11306108CE797E00197F1F700C00895CF9380E04D
S113062090E079D5C82F882321F060E080E090E045
S11306307FD589E090E06FD59CEE980F973418F43D
S11306408093520103C084E18093520187E090E0DB
S11306506AD59C01245631092934364228F49093F2
S113066051018093500106C024E630E030935101DB
S11306702093500186E090E04ED59CE4980F973487
S113068018F480934F0103C08CED80934F0184E0F4
S113069090E049D581322CE1920728F490934E01E1
S11306A080934D0104C010924E0110924D0183E0DD
S11306B090E031D580934C0182E090E02CD5CF3F7F
S11306C019F080934B0103C084E680934B0181E0D1
S11306D090E021D5811103C01092600003C081E035
S11306E080936000CF9108956091520189E090E079
S11306F01FD5609150017091510187E090E025D59C
S113070060914F0186E090E013D560914D017091A6
S11307104E0184E090E019D560914C0183E090E0B3
S113072007D560914B0182E090E002D560916000B2
S113073081E090E0FDD40895CF93DF93CDB7DEB789
S1130740C054D1090FB6F894DEBF0FBECDBF88E008
S1130750E3E6F0E0DE01119601900D928A95E1F74F
S113076088E0EBE6F0E0DE01199601900D928A959F
S1130770E1F788E0E3E7F0E0DE01519601900D92A5
S11307808A95E1F788E0EBE7F0E0DE015996019005
S11307900D928A95E1F788E0E3E8F0E0DE019196B6
S11307A001900D928A95E1F788E0EBE8F0E0DE0134
S11307B0999601900D928A95E1F788E0E3E9F0E0DB
S11307C0DE01D19601900D928A95E1F788E0EBE97C
S11307D0F0E0DE01D99601900D928A95E1F760E090
S11307E0CE01019624DD61E0CE01099620DD62E0B0
S11307F0CE0141961CDD63E0CE01499618DD64E02C
S1130800CE01819614DD65E0CE01899610DD66E0A7
S1130810CE01C1960CDD67E0CE01C99608DDC05C4F
S1130820DF4F0FB6F894DEBF0FBECDBFDF91CF917F
S11308300895813019F0823039F00CC0662311F02C
S1130840AA9A0895AA980895662311F0A99A08957A
S1130850A9980895662319F0AA9AA99A0895AA98BE
S1130860A99808958EE387BB87E088BB9FE894BB73
S113087090E195BB9FE391BB90EC92BB99B79160DB
S113088099BF93B7916093BF9FB5916A9FBD9EB581
S113089091609EBD95B59B6695BD9FE793BD9EB542
S11308A095609EBD95B59F6695BD8093620085B5A4
S11308B08093420115BC9C9904C081E0809355014A
S11308C002C01092550188E09CDEA8DE86DE5CDC66
S11308D060E081E063DC89EA90E079DC60E082E05A
S11308E05DDC87EB90E073DC089560E081E056DC2A
S11308F085EC90E06CDC60E082E050DC8091530198
S113090090E08730910508F0A4C0FC01ED5EFF4F34
S1130910099489EE90E05BDC81E083DC80ED90E07B
S113092056DC8091520162E090E03CDD80E079DCAD
S113093086ED90E04CDC089584EE90E048DC82E0A3
S113094070DC80ED90E043DC64E080915001909194
S1130950510128DD88ED90E03ADC089589EE90E0BD
S113096036DC84E05EDC8BED90E031DC80914F017D
S113097063E090E017DD80EE90E029DC089583EEDB
S113098090E025DC83E04DDC8DED90E020DC80916F
S11309904D0190914E0160E17EE05FD3CB0162E0B6
S11309A001DD86EE90E013DC20914D0130914E0183
S11309B0A9E8B8E882D3AC0156954795529542957B
S11309C04F7045275F7045279A0177D39695879591
S11309D0929582958F7089279F7089276CE3689F11
S11309E09001699F300D112462E0CA01821B930BB0
S11309F0D9DC089588EE90E0EADB87E012DC8DED27
S1130A0090E0E5DB80916000882321F08CEE90E09B
S1130A10DEDB089580EF90E0DADB089588EE90E065
S1130A20D6DB85E0FEDB8DED90E0D1DB80914C01DF
S1130A3063E090E0B7DC089588EE90E0C8DB86E0E0
S1130A40F0DB8DED90E0C3DB80914B0163E090E03F
S1130A50A9DC0895109248011092470110924601B2
S1130A6010924501089520913E0130913F018091FB
S1130A705001909151012817390758F081E0809373
S1130A803D01E8DF60E080E0D4DE8091420185BD75
S1130A9007C010923D0180914701811105C015BC2A
S1130AA080913D01811127C080915401882319F15F
S1130AB0833009F180914D0190914E01892BF1F41D
S1130AC09091410180915201981720F461E081E0F6
S1130AD0B0DE03C060E081E0ACDE90914001809123
S1130AE05201981720F461E082E0A3DE07C060E0C1
S1130AF082E09FDE03C060E080E09BDE2AB53BB568
S1130B0080914C0190E02817390711F09BBD8ABDF4
S1130B1028B539B580914B0190E02817390711F0B9
S1130B2099BD88BD08951F93CF93DF93C82FD62F07
S1130B30142F60E033DB112321F089EF90E047DBD1
S1130B4003C08AEE90E043DB81E06BDB6C2F70E046
S1130B5080E090E092DB8BEF90E039DB62E08D2F58
S1130B6090E020DC80E05DDB86ED90E030DBDF911F
S1130B70CF911F910895CF93DF93EC0169E081E059
S1130B800DDB82E04EDB8BEF90E021DB64E0CE01F5
S1130B9009DC89ED90E01BDBDF91CF9108950F9381
S1130BA01F93CF93DF93EB0120914801222309F493
S1130BB057C020914701211157C0FC01E61BF70BD8
S1130BC020E13EE0CF01B90148D2629FA001639FBA
S1130BD0500D729F500D1124E0312EE0F207B0F455
S1130BE09F01241B350BA9E8B8E867D29695879531
S1130BF0929582958F7089279F708927082FE41B0F
S1130C001E2F2CE3829F1019112410C0062F9F0160
S1130C10241B350BA9E8B8E850D296958795929590
S1130C2082958F7089279F708927182F69E082E049
S1130C30B5DA83E0F6DA8BEF90E0C9DA62E0802F70
S1130C4090E0B0DBC0FD04C086EE90E0C0DA03C0E3
S1130C508AEE90E0BCDA62E0812F90E0A3DB13C05F
S1130C6080914701882349F069E082E097DA83E0C4
S1130C70D8DA8DEF90E0ABDA06C069E082E08EDA74
S1130C8084E091E0A4DADF91CF911F910F91089550
S1130C9080913D0181111BC043B3447060914101B7
S1130CA081E041DF43B342706091400182E03BDF69
S1130CB080913E0190913F015EDF6091450170910A
S1130CC0460180914D0190914E0169DF089560E0E5
S1130CD081E064DA8CE091E07ADA60E082E05EDA66
S1130CE08DE191E074DA0895CF934EDA60E081E00B
S1130CF055DA8BE291E06BDA60E082E04FDAC0E033
S1130D008C2FFADB8FE097E20197F1F700C0000027
S1130D10CF5FC035A9F738DA0FDD789481E080938E
S1130D205401CF910895869947C02FE789EA93E04B
S1130D30215080409040E1F700C0000080916100A4
S1130D40813031F41092610083E08093540108955E
S1130D501BDA80915401823029F540915301242FEC
S1130D6030E08091620090E001972817390724F45D
S1130D704F5F4093530120C0B7DC10925301809120
S1130D804D0190914E01892B29F064DE81E080931E
S1130D90480104C08091480181115CDE81E08093A8
S1130DA054010895823020F48F5F8093540104C06D
S1130DB081E080935401089580915401823009F0B8
S1130DC0B4C087995DC02FE789EA93E02150804041
S1130DD09040E1F700C000008091530190E087301B
S1130DE0910508F0A2C0FC01E65EFF4F09948091D2
S1130DF052018A3508F099C08B5F8093520108959F
S1130E0080915001909151018C3A26E2920708F0AA
S1130E108CC0C296909351018093500108958091A3
S1130E204F018A3F08F081C08B5F80934F01089582
S1130E3080914D0190914E0180322CE1920708F08F
S1130E4074C0CC9690934E0180934D010895909177
S1130E50600081E0892780936000089580914C01AF
S1130E608F3F09F462C08B5F80934C010895809199
S1130E704B018F3F09F459C08B5F80934B01089558
S1130E80B09953C08FE799EA23E081509040204005
S1130E90E1F700C000008091530190E08730910594
S1130EA008F043C0FC01EF5DFF4F099480915201AB
S1130EB08531D8F185508093520108958091500175
S1130EC0909151018536910580F1C297909351011B
S1130ED080935001089580914F01853B30F18550F6
S1130EE080934F01089580914D0190914E01009798
S1130EF0E1F0CC9790934E0180934D010895909129
S1130F00600081E0892780936000089580914C01FE
S1130F10882359F0855080934C01089580914B01AA
S1130F20882319F0855080934B0108951F920F92E6
S1130F300FB60F9211242F933F934F935F936F93A8
S1130F407F938F939F93AF93BF93EF93FF9380917E
S1130F50490190914A01019690934A018093490175
S1130F6082319A4708F448C0809148018823B9F037
S1130F70809145019091460101969093460180939A
S1130F80450120914D0130914E018217930738F0AD
S1130F9061DD60E080E04DDC81E080934701809179
S1130FA06000882319F1809147018823F9F080912A
S1130FB044018530B0F480914301811109C08091CE
S1130FC0420185BD809143018F5F8093430110C02E
S1130FD015BC10924301809144018F5F80934401BA
S1130FE007C0109247011092440102C010924701B9
S1130FF010924A0110924901FF91EF91BF91AF9174
S11310009F918F917F916F915F914F913F912F911C
S11310100F900FBE0F901F90189524DC8DE28093E3
S1131020520182E3809341018EE18093400182E387
S113103090E090933F0180933E0175DE80915401CE
S1131040823031F0833031F0813029F421DE03C065
S11310504CDC01C049DE07DDF0CFAA1BBB1B51E10C
S113106007C0AA1FBB1FA617B70710F0A61BB70B14
S1131070881F991F5A95A9F780959095BC01CD01B9
S11310800895052E97FB16F400940FD057FD05D054
S113109020D007FC02D046F408C050954095309506
S11310A021953F4F4F4F5F4F0895909580957095D0
S11310B061957F4F8F4F9F4F0895A29FB001B39FBB
S11310C0C001A39F01D0B29F700D811D1124911DF9
S11310D00895A1E21A2EAA1BBB1BFD010DC0AA1F75
S11310E0BB1FEE1FFF1FA217B307E407F50720F08D
S11310F0A21BB30BE40BF50B661F771F881F991F08
S11311001A9469F760957095809590959B01AC0150
S1131110BD01CF010895E199FECF9FBB8EBBE09A3C
S113112099278DB30895A8E1B0E042E050E012C0E1
S1131130262FE199FECF9FBB8EBB2DBB0FB6F89433
S1131140E29AE19A0FBE01960895F2DF272FF1CFBC
S1131150DC01CB01FC01E199FECF06C0FFBBEEBB75
S1131160E09A31960DB20D9241505040B8F708956F
S1071170F894FFCF1D
S11311740101030609090600000000040A0A0E1FFF
S11311841F0E00070E1C1F0E1C10001F1F0E040E42
S11311941F1F000A0A1F1F0E0402040E111B150E42
S11311A40E04000E17131313170E00060A13131359
S11311B40A06000010181C1E1F09546F2063616C7A
S11311C46962726174650009507265737320224DFB
S11311D44F44452200090953455454494E4753008A
S11311E46D61783A20004300205700696E3A20006C
S11311F42056000909003A00090920004F4E200036
S11312044F4646004E203D20003E003D003D2D2D1E
S11312143A2D2D002020202020202000572041207A
S113122452204E2049204E204721212100094F56A7
S11312344552504F574552212121002043414C49E6
S10F124442524154494E472E2E2E000009
S9030000FC
