S010000054502D4D657465722E7372656346
S113000019C033C032C031C030C02FC02EC02DC083
S11300102CC02BC02AC029C028C027C026C025C098
S113002024C023C022C021C020C01FC01EC01DC0C8
S11300301CC01BC011241FBECFEFD2E0DEBFCDBF5A
S113004011E0A0E0B1E0E6E5F4E002C005900D9215
S1130050AA33B107D9F721E0AAE3B1E001C01D92A8
S1130060AC33B207E1F7F2D1F4C1CACFCF93DF9337
S113007000D000D000D0CDB7DEB79E838D831A8226
S1130080198229813A818D819E8128173907E8F4E4
S11300901C821B828B819C818A3F910550F48B8149
S11300A09C8101969C838B838B819C818A3F9105E3
S11300B0B0F389819A8101969A83898329813A814F
S11300C08D819E812817390718F326960FB6F89468
S11300D0DEBF0FBECDBFDF91CF910895CF93DF93E5
S11300E0EC01299A81E090E0C1DF2998CE01BEDFBE
S11300F0DF91CF910895882314F42D9A01C02D988F
S113010086FF02C02C9A01C02C9885FF02C02B9A4E
S113011001C02B9884FF02C02A9A08952A98089552
S113012083FF02C02D9A01C02D9882FF02C02C9A31
S113013001C02C9881FF02C02B9A01C02B9880FF2C
S113014002C02A9A08952A9808951F93CF93DF93A3
S1130150182FEB01D0DF80E090E0C0DF812FE0DFDB
S1130160CE01BCDFDF91CF911F91089562E070E072
S113017081E0EBDF089562E070E082E0E6DF08955D
S1130180962F823051F0853071F0813089F460E02F
S113019070E0892F8068D9DF089560E070E0892FCE
S11301A0806CD3DF089560E070E0892F8064CDDF38
S11301B00895CF93DF93289AEC011EC08A3031F45E
S11301C0289860E082E0DCDF289A16C08D3021F4A4
S11301D02898D1DF289A10C0893059F4289860E013
S11301E070E084E1B2DF60E070E084E1AEDF289A81
S11301F003C060E070E0A9DF89918111DFCF289806
S1130200DF91CF910895289A60E070E09EDF2898EE
S113021008950F931F93CF93DF93082F192F660F21
S1130220660F660F85E0ACDFC02FD12F10E08991F7
S1130230EADF1F5F1830D9F7DF91CF911F910F913B
S113024008958C3339F08E3349F460E070E084E132
S11302507CDF089560E070E080E177DF0895FF922D
S11302600F931F93CF93DF93C8E0D1E000E068942D
S1130270FF24F3F8602F85E083DF1F2D8881C3DF1F
S11302801150E1F7085F21960033A1F760E081E0A7
S113029077DFDF91CF911F910F91FF9008950F9316
S11302A01F93CF93DF93C0913A016DECC69F612DEC
S11302B0112466956695182F813508F010E5C1174D
S11302C0D0F482E05DDFDDECCF5FCD9F812D112482
S11302D086958695982F990F990F890F9C2F981BB7
S11302E0892F19F485E08FDF03C08DDF8CE3A9DF4C
S11302F0C113EACF2EC08DECC89F812D11248695A1
S11303008695982F990F990F890FC81301C06150D2
S113031082E036DF60E070E084E017DFC117A9F007
S11303200DECC150C09FD12D1124D695D6958D2F9B
S1130330880F880FD80F8C2F8D1BD82F64DFDD23F7
S113034011F08EE37EDFC113ECCF60E070E086E055
S1130350FCDE10933A01DF91CF911F910F91089524
S1130360CF93C82FC8DE80E090E0B8DE80E090E054
S1130370B5DE8C2FD5DE80E090E0B0DECF9108951D
S11303808CE2EEDF60E070E08CE0DFDE60E070E0E5
S113039086E0DBDE62E070E081E0D7DE62E070E000
S11303A082E0D3DE5CDF0895CF93DF93CDB7DEB771
S11303B028970FB6F894DEBF0FBECDBF8FEF84B978
S11303C015B888E0E0E0F1E0DE01119601900D92AD
S11303D08A95E1F7D5DFCADE60E0CE01019619DF28
S11303E060E081E0CDDE28960FB6F894DEBF0FBE44
S11303F0CDBFDF91CF910895CF93B8DE60E081E067
S1130400BFDE8EE091E0D5DE60E082E0B9DE8CE113
S113041091E0CFDE80913B01811116C0A7DE60E040
S113042081E0AEDE89E291E0C4DE60E082E0A8DE35
S1130430C0E08C2F34DF8FE097E20197F1F700C022
S11304400000CF5FC035A9F7CF910895ADDFD4DFA9
S1090450FFCFF894FFCF7A
S11304560E0A0E00000000000010181C1E1F09548E
S11304666F2063616C696272617465000920507261
S1130476657373204D4F4445002043616C69627275
S10D04866174696E672E2E2E0000CB
S9030000FC
