:1000000019C033C032C031C030C02FC02EC02DC087
:100010002CC02BC02AC029C028C027C026C025C09C
:1000200024C023C022C021C020C01FC01EC01DC0CC
:100030001CC01BC011241FBECFEFD2E0DEBFCDBF5E
:1000400011E0A0E0B1E0E8EFFCE002C005900D9205
:10005000A03AB107D9F721E0A0EAB1E001C01D92B2
:10006000AA3AB207E1F7C0D545C6CACFCF93DF930E
:1000700000D000D000D0CDB7DEB79E838D831A822A
:10008000198229813A818D819E8128173907E8F4E8
:100090001C821B828B819C818A3F910550F48B814D
:1000A0009C8101969C838B838B819C818A3F9105E7
:1000B000B0F389819A8101969A83898329813A8153
:1000C0008D819E812817390718F326960FB6F8946C
:1000D000DEBF0FBECDBFDF91CF910895CF93DF93E9
:1000E000EC012C9A81E090E0C1DF2C98CE01BEDFBC
:1000F000DF91CF910895882314F4289A01C028989D
:1001000086FF02C0299A01C0299885FF02C02A9A59
:1001100001C02A9884FF02C02B9A08952B98089555
:1001200083FF02C0289A01C0289882FF02C0299A42
:1001300001C0299881FF02C02A9A01C02A9880FF35
:1001400002C02B9A08952B9808951F93CF93DF93A5
:10015000182FEB01D0DF80E090E0C0DF812FE0DFDF
:10016000CE01BCDFDF91CF911F91089562E070E076
:1001700081E0EBDF089562E070E082E0E6DF089561
:10018000962F823051F0853071F0813089F460E033
:1001900070E0892F8068D9DF089560E070E0892FD2
:1001A000806CD3DF089560E070E0892F8064CDDF3C
:1001B0000895CF93DF932D9AEC011EC08A3031F45D
:1001C0002D9860E082E0DCDF2D9A16C08D3021F49E
:1001D0002D98D1DF2D9A10C0893059F42D9860E008
:1001E00070E084E1B2DF60E070E084E1AEDF2D9A80
:1001F00003C060E070E0A9DF89918111DFCF2D9805
:10020000DF91CF9108952D9A60E070E09EDF2D98E8
:1002100008950F931F93CF93DF93082F192F660F25
:10022000660F660F85E0ACDFC02FD12F10E08991FB
:10023000EADF1F5F1830D9F7DF91CF911F910F913F
:1002400008958C3339F08E3349F460E070E084E136
:100250007CDF089560E070E080E177DF08954F92E1
:100260005F926F927F928F929F92AF92BF92CF9246
:10027000DF92EF92FF924B015C01992354F48DE2DF
:10028000C2DFB094A09490948094811C911CA11C16
:10029000B11C8AE088169104A104B1040CF464C076
:1002A000C12CD12C7601C394CC0CDD1CEE1CFF1CA0
:1002B000D701C601880F991FAA1FBB1F880F991F5E
:1002C000AA1FBB1FC80ED91EEA1EFB1EC501B40122
:1002D000A701960199D42A3031054105510524F72B
:1002E00080E3820F90DFC701B6012AE030E040E0F2
:1002F00050E08AD469017A01211531054105510583
:10030000B1F10F2EFAE04F2E512C612C712CF02DF3
:10031000D701C601880F991FAA1FBB1FAC01BD01E1
:10032000440F551F661F771F440F551F661F771F09
:100330009A01AB01280F391F4A1F5B1FC501B40189
:1003400063D4A701960160D480E3820F5CDFC7010C
:10035000B601A301920158D469017A012115310532
:1003600041055105A9F603C080E3880D4CDFFF90DD
:10037000EF90DF90CF90BF90AF909F908F907F9045
:100380006F905F904F900895CF93DF93EC016230B0
:1003900009F442C020F4613009F462C07CC06330CB
:1003A000A9F0643009F077C09C0136952795369501
:1003B000279536952795A5ECB0E242D49295829583
:1003C0008F7089279F708927805D1DDF9E0136957C
:1003D000279536952795ABE7B4E132D4AC01569515
:1003E00047959A01ADECBCEC2BD4969587959695E4
:1003F0008795969587959C01220F331F880F991F2B
:10040000880F991F880F991F820F931F9A01281B2D
:10041000390BC901805DF7DE9E01ADECBCEC10D458
:10042000AC015695479556954795569547959A012F
:1004300007D49695879596958795969587959C016F
:10044000220F331F880F991F880F991F880F991F3C
:10045000820F931F9A01281B390BC901805DD3DEDF
:100460009E01ADECBCECECD396958795969587955F
:10047000969587959C01220F331F880F991F880F2F
:10048000991F880F991F820F931F9E01281B390BFC
:10049000C901805DB8DEDF91CF910895FF920F937F
:1004A0001F93CF93DF93CAE3D1E000E06894FF2469
:1004B000F3F8602F85E064DE1F2D8881A4DE1150E3
:1004C000E1F7085F21960033A1F760E081E058DE94
:1004D000DF91CF911F910F91FF9008950F931F937C
:1004E000CF93DF93C091A0016DECC69F612D1124C5
:1004F00066956695182F813508F010E5C117D0F480
:1005000082E03EDEDDECCF5FCD9F812D112486950C
:100510008695982F990F990F890F9C2F981B892FDB
:1005200019F485E070DE03C06EDE8CE38ADEC11351
:10053000EACF2EC08DECC89F812D1124869586951B
:10054000982F990F990F890FC81301C0615082E04D
:1005500017DE60E070E084E0F8DDC117A9F00DEC73
:10056000C150C09FD12D1124D695D6958D2F880FBF
:10057000880FD80F8C2F8D1BD82F45DEDD2311F06F
:100580008EE35FDEC113ECCF60E070E086E0DDDD7E
:100590001093A001DF91CF911F910F910895CF93F8
:1005A000C82FA9DD80E090E099DD80E090E096DD45
:1005B0008C2FB6DD80E090E091DDCF9108958CE244
:1005C000EEDF60E070E08CE0C0DD60E070E086E0CF
:1005D000BCDD62E070E081E0B8DD62E070E082E006
:1005E000B4DD5CDF089586E090E058D39CEE980F70
:1005F000973418F48093A70103C084E18093A70186
:1006000084E090E053D39C012456310929343642CA
:1006100028F49093A6018093A50106C084E690E09B
:100620009093A6018093A50183E090E037D39CE4EA
:10063000980F973418F48093A40103C08CED809335
:10064000A40182E090E02AD3893718F48093A301B3
:1006500002C01092A30181E090E020D38093A20118
:1006600080E090E01BD38093000108956091A70182
:1006700086E090E01FD36091A5017091A60184E00F
:1006800090E026D36091A40183E090E013D36091C1
:10069000A30182E090E00ED36091A20181E090E09E
:1006A00009D36091000180E090E004D308958FE3C6
:1006B00084B915B886E887B988E388B98FEF8AB915
:1006C00082E38BB990DF7BDF51DD60E081E058DDB4
:1006D00080E491E06EDD60E082E052DD8EE491E046
:1006E00068DD0895CF93DF93CDB7DEB7E8970FB6F7
:1006F000F894DEBF0FBECDBF88E0E2E0F1E0DE019E
:10070000119601900D928A95E1F788E0EAE0F1E018
:10071000DE01199601900D928A95E1F788E0E2E1F9
:10072000F1E0DE01519601900D928A95E1F788E0A3
:10073000EAE1F1E0DE01599601900D928A95E1F728
:1007400088E0E2E2F1E0DE01919601900D928A9557
:10075000E1F788E0EAE2F1E0DE01999601900D927E
:100760008A95E1F788E0E2E3F1E0DE01D1960190BD
:100770000D928A95E1F760E0CE0101964ADD61E0D5
:10078000CE01099646DD62E0CE01419642DD63E08E
:10079000CE0149963EDD64E0CE0181963ADD65E00A
:1007A000CE01899636DD66E0CE01C19632DDE8964F
:1007B0000FB6F894DEBF0FBECDBFDF91CF91089585
:1007C000CF93D4DC60E081E0DBDC8CE591E0F1DC10
:1007D00060E082E0D5DCC0E08C2F80DE8FE097E225
:1007E0000197F1F700C00000CF5FC035A9F7BEDC6C
:1007F00079DF81E08093A901CF910895CF9360E0E4
:1008000081E0BEDC8CE691E0D4DC60E082E0B8DC24
:100810008091A801823099F128F4882359F0813021
:10082000E1F086C0843009F462C0D0F1853009F46B
:1008300072C07EC080E991E0BCDC81E0E4DC87E747
:1008400091E0B7DC8091A70162E090E09DDD80E05F
:10085000DADC8DE791E0ADDC6BC08BE891E0A9DCE0
:1008600082E0D1DC87E791E0A4DC64E08091A5011F
:100870009091A60189DD8FE791E09BDC59C080E96A
:1008800091E097DC84E0BFDC82E891E092DC80912B
:10089000A40163E090E078DD87E891E08ADC48C05D
:1008A0008AE891E086DC83E0AEDC84E891E081DCDC
:1008B0008091A301C9E88C9F812D11248295869592
:1008C000877062E090E060DD8DE891E072DC8091FD
:1008D000A3018C9FC12D1124C295C695C7709CE3BE
:1008E000C99F8019112462E090E04EDD21C08FE89D
:1008F00091E05FDC86E087DC84E891E05ADC80915F
:100900000001882321F083E991E053DC11C087E9DD
:1009100091E04FDC0DC08FE891E04BDC85E073DCAB
:1009200084E891E046DC8091A20163E090E02CDD58
:10093000CF9108951F93CF93DF93C82FD62F142FF5
:1009400060E01EDC112321F08BE991E032DC03C072
:1009500081E991E02EDC81E056DC6C2F70E080E0D4
:1009600090E07DDC8DE991E024DC62E08D2F90E069
:100970000BDD80E048DC8DE791E01BDCDF91CF915F
:100980001F910895CF93DF93EC0169E081E0F8DBDC
:1009900082E039DC8DE991E00CDC64E0CE01F4DC2E
:1009A00080E891E006DCDF91CF910895CF93DF934B
:1009B000D82FD61B69E082E0E3DB83E024DC8DE9FD
:1009C00091E0F7DBC9E8DC9FC12D1124C295C695E3
:1009D000C77062E08C2F90E0D7DC8DE891E0E9DB16
:1009E0008D2F9CE3C99F8019112462E090E0CCDC3C
:1009F000DF91CF91089540E06BE181E09BDF41E022
:100A000060E282E097DF8CEA96E2BCDF8091A3018E
:100A1000882319F06091A101C9DF0895339931C08D
:100A20002FEF84E39CE0215080409040E1F700C02C
:100A3000000080910101813031F41092010183E0C6
:100A40008093A901089592DB8091A901823079F405
:100A50008091A801853020F48F5F8093A80111C098
:100A600005DE1092A80181E08093A90108958230EB
:100A700020F48F5F8093A90104C081E08093A901D5
:100A800008958091A901823009F0ADC0349958C011
:100A90002FEF84E39CE0215080409040E1F700C0BC
:100AA00000008091A801823029F128F4882349F0C0
:100AB000813081F00895843079F128F18530B9F1E1
:100AC00008958091A7018A3508F08DC0865F8093D4
:100AD000A70108958091A5019091A6018C3A26E284
:100AE000920708F080C08C599F4F9093A601809385
:100AF000A50108958091A4018A3F08F074C0865F23
:100B00008093A40108958091A301883708F06BC0F9
:100B1000865F8093A301089580910001882319F0D6
:100B200010920001089581E0809300010895809162
:100B3000A2018F3F09F457C08B5F8093A2010895F3
:100B4000359951C08FEF94E32CE0815090402040C4
:100B5000E1F700C000008091A801823011F128F473
:100B6000882349F0813079F00895843051F108F1FB
:100B7000853091F108958091A7018531A0F18A50C7
:100B80008093A70108958091A5019091A6018536D3
:100B9000910548F1845691099093A6018093A5018F
:100BA00008958091A401853BF0F08A508093A401C0
:100BB00008958091A3018823B1F08A508093A30106
:100BC000089580910001882319F010920001089582
:100BD00081E08093000108958091A201882319F09B
:100BE00085508093A201089562DD18DF8091A901EC
:100BF000823031F0833031F08130B9F7FCDEF5CF4F
:100C0000FDDDF3CFDDDDF1CF052E97FB16F400946B
:100C10000FD057FD05D020D007FC02D046F408C005
:100C200050954095309521953F4F4F4F5F4F089518
:100C300090958095709561957F4F8F4F9F4F089548
:100C4000A29FB001B39FC001A39F01D0B29F700DBE
:100C5000811D1124911D0895A1E21A2EAA1BBB1B10
:100C6000FD010DC0AA1FBB1FEE1FFF1FA217B30778
:100C7000E407F50720F0A21BB30BE40BF50B661F8E
:100C8000771F881F991F1A9469F760957095809552
:100C900090959B01AC01BD01CF010895F999FECF5C
:100CA00012BC81BDF89A992780B50895A8E1B0E0FB
:100CB00042E013C0262FF999FECF1FBA12BC81BDA6
:100CC00020BD0FB6F894FA9AF99A0FBE01960895CE
:100CD000F1DF272FF0CFDC01862FE82FF999FECF27
:100CE00012BC05C0E1BDF89AE39500B40D924150E5
:080CF000C8F70895F894FFCF46
:100CF80001010609090600000000040A0A0E1F1F68
:100D08000E00070E1C1F0E1C10001F1F0E040E1FC6
:100D18001F000A0A1F1F0E0402040E1713131317CD
:100D28000E00060A1313130A06000010181C1E1FD3
:100D380009546F2063616C696272617465000950BF
:100D48007265737320224D4F444522002043414C65
:100D58004942524154494E472E2E2E000909534507
:100D68005454494E4753006D61783A20004300209F
:100D78005700696E3A20002056000909003A000918
:100D88000920004F4E20004F4646003E003D00001F
:00000001FF
