S010000054502D4D657465722E7372656346
S113000027C041C040C03FC03EC03DC03CC03BC013
S11300103AC01ACB38C037C036C035C099CB33C0CC
S113002032C031C030C02FC741C752C762C79CC756
S1130030AFC7BCC754CA5CCA6ACA72CA80CA86CA75
S11300408ECAACCAB4CAC1CAC8CAD3CAD9CAE0CA59
S113005011241FBECFE5D4E0DEBFCDBF11E0A0E682
S1130060B0E0EEE0FBE102C005900D92A635B107C9
S1130070D9F721E0A6E5B1E001C01D92A239B2078B
S1130080E1F784DB42CDBCCFCF93DF9300D000D027
S113009000D0CDB7DEB79E838D831A821982298161
S11300A03A818D819E8128173907E8F41C821B82CE
S11300B08B819C818831914050F48B819C81019685
S11300C09C838B838B819C8188319140B0F389819F
S11300D09A8101969A83898329813A818D819E81AF
S11300E02817390718F326960FB6F894DEBF0FBE0B
S11300F0CDBFDF91CF910895CF93DF93EC01949A14
S113010083E090E0C1DF9498CE01BEDFDF91CF9110
S11301100895882314F4909A01C0909886FF02C031
S1130120919A01C0919885FF02C0929A01C0929859
S113013084FF02C0939A08959398089583FF02C0A0
S1130140909A01C0909882FF02C0919A01C0919840
S113015081FF02C0929A01C0929880FF02C0939AD4
S11301600895939808951F93CF93DF93182FEB016D
S1130170D0DF80E090E0C0DF812FE0DFCE01BCDF84
S1130180DF91CF911F91089562E070E081E0EBDF91
S1130190089562E070E082E0E6DF0895962F8230F1
S11301A051F0853071F0813089F460E070E0892F7E
S11301B08068D9DF089560E070E0892F806CD3DF18
S11301C0089560E070E0892F8064CDDF0895CF93B7
S11301D0DF93959AEC011EC08A3031F4959860E063
S11301E082E0DCDF959A16C08D3021F49598D1DF3A
S11301F0959A10C0893059F4959860E070E084E1D4
S1130200B2DF60E070E084E1AEDF959A03C060E0A5
S113021070E0A9DF89918111DFCF9598DF91CF91AB
S11302200895959A60E070E09EDF959808950F9385
S11302301F93CF93DF93082F192F660F660F660F56
S113024085E0ACDFC02FD12F10E08991EADF1F5F7A
S11302501830D9F7DF91CF911F910F9108958C3306
S113026039F08E3349F460E070E084E17CDF089576
S113027060E070E080E177DF08954F925F926F92C3
S11302807F928F929F92AF92BF92CF92DF92EF9222
S1130290FF924B015C01992354F48DE2C2DFB094C8
S11302A0A09490948094811C911CA11CB11C8AE0A0
S11302B088169104A104B1040CF464C0C12CD12C9F
S11302C07601C394CC0CDD1CEE1CFF1CD701C601C7
S11302D0880F991FAA1FBB1F880F991FAA1FBB1F36
S11302E0C80ED91EEA1EFB1EC501B401A701960162
S11302F095DB2A3031054105510524F780E3820F4F
S113030090DFC701B6012AE030E040E050E086DB30
S113031069017A012115310541055105B1F10F2E0D
S1130320FAE04F2E512C612C712CF02DD701C6010F
S1130330880F991FAA1FBB1FAC01BD01440F551F95
S1130340661F771F440F551F661F771F9A01AB0165
S1130350280F391F4A1F5B1FC501B4015FDBA701CA
S113036096015CDB80E3820F5CDFC701B601A30169
S1130370920154DB69017A012115310541055105CA
S1130380A9F603C080E3880D4CDFFF90EF90DF9067
S1130390CF90BF90AF909F908F907F906F905F9021
S11303A04F900895CF93DF93EC01623009F442C07B
S11303B020F4613009F462C07CC06330A9F0643079
S11303C009F077C09C013695279536952795369583
S11303D02795A5ECB0E23EDB929582958F70892734
S11303E09F708927805D1DDF9E0136952795369580
S11303F02795ABE7B4E12EDBAC01569547959A01FE
S1130400ADECBCEC27DB96958795969587959695EC
S113041087959C01220F331F880F991F880F991FFE
S1130420880F991F820F931F9A01281B390BC9014A
S1130430805DF7DE9E01ADECBCEC0CDBAC015695A7
S1130440479556954795569547959A0103DB96959A
S1130450879596958795969587959C01220F331FCE
S1130460880F991F880F991F880F991F820F931F58
S11304709A01281B390BC901805DD3DE9E01ADECC6
S1130480BCECE8DA96958795969587959695879529
S11304909C01220F331F880F991F880F991F880F03
S11304A0991F820F931F9E01281B390BC901805D80
S11304B0B8DEDF91CF910895FF920F931F93CF93EE
S11304C0DF93C5EAD0E000E06894FF24F3F8602FDE
S11304D085E064DE1F2D8881A4DE1150E1F7085FFA
S11304E021960033A1F760E081E058DEDF91CF91DF
S11304F01F910F91FF9008950F931F93CF93DF9354
S1130500C09156016DECC69F612D112466956695C8
S1130510182F813508F010E5C117D0F482E03EDED3
S1130520DDECCF5FCD9F812D112486958695982F84
S1130530990F990F890F9C2F981B892F19F485E027
S113054070DE03C06EDE8CE38ADEC113EACF2EC0F8
S11305508DECC89F812D112486958695982F990F2F
S1130560990F890FC81301C0615082E017DE60E063
S113057070E084E0F8DDC117A9F00DECC150C09F14
S1130580D12D1124D695D6958D2F880F880FD80F8D
S11305908C2F8D1BD82F45DEDD2311F08EE35FDE1B
S11305A0C113ECCF60E070E086E0DDDD109356010E
S11305B0DF91CF911F910F910895CF93C82FA9DD9B
S11305C080E090E099DD80E090E096DD8C2FB6DD50
S11305D080E090E091DDCF9108958CE2EEDF60E061
S11305E070E08CE0C0DD60E070E086E0BCDD62E0DD
S11305F070E081E0B8DD62E070E082E0B4DD5CDFF1
S1130600089598E038E1262F282720FD02C066953A
S113061003C063276695606886959150A1F7862F7D
S11306200895EF92FF920F931F93CF93DF937C0172
S11306308C01095F1F4FEC0160E08991E2DF682FB4
S1130640C017D107D1F781E0F7019781691301C081
S113065080E0DF91CF911F910F91FF90EF9008956B
S1130660EF92FF920F931F93CF93DF937C018C0142
S1130670085F1F4FEC0160E08991C3DF682FC0174A
S1130680D107D1F781E0F7019085691301C080E0BB
S1130690DF91CF911F910F91FF90EF9008951F93D9
S11306A0CF93DF93D82F162FC8E0D0FF03C0812F3C
S11306B00CD102C0812F23D1D695C150B1F7DF915F
S11306C0CF911F9108951F93CF93DF93182FD8E0F4
S11306D0C0E0C695812F2DD18111C068D150C9F7D2
S11306E08C2FDF91CF911F910895FF920F931F9349
S11306F0CF93DF938C01F62E85E5D1DFE801085F07
S11307001F4F6F2D8991CBDFC017D107D1F7DF9130
S1130710CF911F910F91FF900895BF92CF92DF92D6
S1130720EF92FF920F931F93CF93DF93EC01D62E9A
S1130730F42E642F80EFB3DF11E0B12C01E0CC2460
S1130740C3948F2DF6D0E82E8F2DF3D0EE20A1F197
S113075081112EC09881912B988319C02881912FE3
S113076090959223988313C00D1104C08881812B26
S113077088830DC0D01638F49881812F8095892301
S11307808883B02E04C09881912339F003C09881E6
S1130790912321F08F2D99D003C0B02E8F2DAFD08F
S11307A00F5F110F11F421961C2D013451F602C074
S11307B08FEF05C08B2D03C08111D0CFD5CFDF9132
S11307C0CF911F910F91FF90EF90DF90CF90BF904A
S11307D008958F929F92AF92BF92CF92DF92EF9241
S11307E0FF920F931F93CF93DF938C01942E790183
S11307F0662371F0DC0120E088E007C0119291507B
S1130800E9F72F5F1896261719F0FD01982FF6CFF8
S1130810C02ED12EE02FF12FB12CA12C6894882466
S113082083F8AC2DBD2D882D01900D928A95E1F7AA
S1130830892DA0D0882351F1492D6A2D8C2D9D2D11
S11308406CDFA82EB394E80188E0B89EC00DD11DDA
S11308501124AA2029F0EC2DFD2DCC2EDD2EE1CF84
S1130860BB20B1F0D0E0C0E0DD24D394C801D9DED0
S1130870811105C0F70190819F5F908301C0DD2D38
S1130880CF5F085F1F4FCB11F1CF04C08FEF03C0C0
S113089080E001C08D2FDF91CF911F910F91FF90C8
S11308A0EF90DF90CF90BF90AF909F908F9008957E
S11308B094B38095982394BB95B3892385BB8CE529
S11308C099E00197F1F700C008959FB7F89424B315
S11308D0282B24BB25B38095282325BB23E22A9506
S11308E0F1F700C024B3282324BB25B3822385BB9E
S11308F0ECE3F1E03197F1F700C09FBF08959FB793
S1130900F89424B3282B24BB25B38095282325BB36
S1130910E8E2F1E03197F1F700C024B3282324BBC7
S113092025B3822385BBFEE3FA95F1F700009FBF50
S113093008952FB7F89494B3982B94BB35B3982F9C
S11309409095392335BB33E23A95F1F700C034B3BF
S1130950392334BB35B3932395BB97E39A95F1F7C9
S113096000C093B3EFE0F1E03197F1F700C02FBF7F
S1130970892308952FB7F89494B3982B94BB35B377
S1130980982F9095392335BBECE5F9E03197F1F7D1
S113099000C034B3392334BB35B3932395BBEAE5A4
S11309A0F1E03197F1F700C093B3EEEFF7E0319740
S11309B0F1F700C02FBF909589230895CF9380E06D
S11309C090E076D8C82F882321F060E080E090E0A2
S11309D07CD889E090E06CD89CEE980F923418F49F
S11309E08093740103C084E18093740187E090E0F4
S11309F067D89C01245631092934364228F490934F
S1130A0073018093720106C024E630E030937301D1
S1130A102093720186E090E04BD89CE4980F9734C1
S1130A2018F48093710103C086EE8093710184E011
S1130A3090E046D881322CE1920728F4909370011B
S1130A4080936F0104C01092700110926F0183E0D3
S1130A5090E02ED880936E0182E090E029D8CF3FB9
S1130A6019F080936D0103C084E680936D0181E0E9
S1130A7090E01ED8811103C01092620003C081E08F
S1130A8080936200CF9108956091740189E090E0B1
S1130A901CD8609172017091730187E090E022D8B4
S1130AA06091710186E090E010D860916F017091BF
S1130AB0700184E090E016D860916E0183E090E0CC
S1130AC004D860916D0182E090E0FFD760916200EC
S1130AD081E090E0FAD70895CF93DF93CDB7DEB7E6
S1130AE0C054D1090FB6F894DEBF0FBECDBF88E065
S1130AF0E5E6F0E0DE01119601900D928A95E1F7AA
S1130B0088E0EDE6F0E0DE01199601900D928A95F9
S1130B10E1F788E0E5E7F0E0DE01519601900D92FF
S1130B208A95E1F788E0EDE7F0E0DE01599601905F
S1130B300D928A95E1F788E0E5E8F0E0DE01919610
S1130B4001900D928A95E1F788E0EDE8F0E0DE018E
S1130B50999601900D928A95E1F788E0E5E9F0E035
S1130B60DE01D19601900D928A95E1F788E0EDE9D6
S1130B70F0E0DE01D99601900D928A95E1F760E0EC
S1130B80CE01019654DB61E0CE01099650DB62E0B0
S1130B90CE0141964CDB63E0CE01499648DB64E02C
S1130BA0CE01819644DB65E0CE01899640DB66E0A8
S1130BB0CE01C1963CDB67E0CE01C99638DBC05C50
S1130BC0DF4F0FB6F894DEBF0FBECDBFDF91CF91DC
S1130BD00895813019F0823039F00CC0662311F089
S1130BE0AA980895AA9A0895662311F0A9980895D9
S1130BF0A99A0895662319F0AA98A9980895AA9A1B
S1130C00A99A089580917901811114C010927701F5
S1130C1027E731E048E062E082E891E0DADD8093A2
S1130C20780190917701923029F4813019F08FEF97
S1130C308093790108950F931F93CF93DF93182F17
S1130C40EB01042F97DE612FCE014FDD612F8EE47F
S1130C5026DD612F80E023DD612F80E020DD612F20
S1130C60802F1DDDDF91CF911F910F910895BF92C9
S1130C70CF92DF92EF92FF920F931F93CF93DF9364
S1130C80CDB7DEB729970FB6F894DEBF0FBECDBF40
S1130C90B82E8B016A016EDE6B2DC80126DD6B2D2B
S1130CA084E4FDDC8B2D45DE8823E1F38B2D62DEAD
S1130CB06B2DC8011ADD6B2D8EEBF1DC8E010F5FFD
S1130CC01F4F7E018AE0E80EF11C8B2DFCDCF8013D
S1130CD081938F01EE15FF05C1F7CE010196C0DCAB
S1130CE081110AC02A8130E0322F22279981292BD1
S1130CF0F6013183208301C081E029960FB6F89470
S1130D00DEBF0FBECDBFDF91CF911F910F91FF903A
S1130D10EF90DF90CF90BF900895CF93DF9300D0F2
S1130D20CDB7DEB71A82198228E0829FC001112450
S1130D30BC016E577E4FAE014F5F5F4F88E097DF77
S1130D4080937801813091F089819A8199232CF4E0
S1130D509195819591099A83898389819A81929544
S1130D6082958F7089279F70892701C080E00F903A
S1130D700F90DF91CF9108958EE387BB87E088BB06
S1130D808FE884BB86E285BB8FE381BB80EC82BBAA
S1130D9089B7816089BF83B7816083BF8FB5816A5A
S1130DA08FBD8EB581608EBD85B58C6685BD8FE7A0
S1130DB083BD3A9A86B18F6086B985B58093640104
S1130DC015BC9D9904C081E08093570102C0109224
S1130DD05701F4DD80916E0190E09BBD8ABD809146
S1130DE06D0190E099BD88BDF8DBCED960E081E06B
S1130DF0D5D98BEA90E0EBD960E082E0CFD98AEBD9
S1130E0090E0E5D988E054DD809179018F3F29F0A5
S1130E10F9DE809179018F3FD9F7109264004FE198
S1130E2062E871E088E007DF4FE16AE871E088E09A
S1130E3002DF80E072DF8093630181E06EDF8093E4
S1130E406201A2D960E081E0A9D988EC90E0BFD921
S1130E5060E082E0A3D986ED90E0B9D9089560E01E
S1130E6081E09CD984EE90E0B2D960E082E096D92A
S1130E708091750190E08730910508F0A4C0FC01D1
S1130E80ED5EFF4F099488E091E0A1D981E0C9D9D2
S1130E908FEE90E09CD98091740162E090E082DA58
S1130EA080E0BFD985EF90E092D9089583E091E086
S1130EB08ED982E0B6D98FEE90E089D964E0809132
S1130EC07201909173016EDA87EF90E080D90895F2
S1130ED088E091E07CD984E0A4D98AEF90E077D9C6
S1130EE08091710163E090E05DDA8FEF90E06FD95B
S1130EF0089582E091E06BD983E093D98CEF90E080
S1130F0066D980916F019091700160E17EE072D5A5
S1130F10CB0162E047DA85E091E059D920916F0175
S1130F2030917001A9E8B8E895D5AC01569547957C
S1130F30529542954F7045275F7045279A018AD58F
S1130F4096958795929582958F7089279F708927AA
S1130F506CE3689F9001699F300D112462E0CA011F
S1130F60821B930B1FDA089587E091E030D987E064
S1130F7058D98CEF90E02BD980916200882321F01E
S1130F808BE091E024D908958FE091E020D9089571
S1130F9087E091E01CD985E044D98CEF90E017D923
S1130FA080916E0163E090E0FDD9089587E091E0BF
S1130FB00ED986E036D98CEF90E009D980916D0185
S1130FC063E090E0EFD9089510926A0110926901EC
S1130FD0109268011092670108959F92AF92BF9298
S1130FE0CF92DF92EF92FF920F931F93CF93DF93F1
S1130FF05C019C01ADECBCEC2DD56C010024CC0C47
S1131000DD1C001CCC0CDD1C001CCD2CD02C9090C5
S11310107601A114B104F1F0C0E0D0E000E010E0EA
S11310200F2EFAE5EF2EF1E0FF2EF02D369A83E035
S11310309816B9F0EFE9FFE03197F1F700C000002E
S1131040F70180819181080F191F2196CA15DB05CC
S113105069F702C000E010E0C801B501CBD4CB01B0
S11310600BC0F70140815181040F151FCE01B60159
S1131070C1D4862F41DAE9CFDF91CF911F910F912F
S1131080FF90EF90DF90CF90BF90AF909F90089526
S1131090CF92DF92EF92FF9284E690E09EDF209160
S11310A05801309159012817390720F4BC01621BFB
S11310B0730B02C060E070E080E090E0AAD320E00F
S11310C030E040E250E40BD420E030E040E85AE362
S11310D006D420E030E040E250E401D420E030E0E7
S11310E040EF51E4FCD36B017C016091710170E02D
S11310F080E090E090D39B01AC01C701B601EFD32F
S11311005CD3CB01FF90EF90DF90CF900895C0DFC8
S11311109093610180936001209172013091730179
S11311208217930780F080915E01811114C02CD83E
S113113081E080935E0148DF60E080E04ADD8091D9
S1131140640185BD08C080915E01882321F015BC2F
S11311501BD810925E0180915F01882351F0109298
S11311605F0180E0DADD8093630181E0D6DD809366
S1131170620180915E01811131C080916F01909173
S11311807001892B21F080916A01882351F18091AB
S1131190630190917401891750F4882321F061E070
S11311A081E017DD07C060E082E013DD03C060E08A
S11311B081E00FDD8091620190917401891750F4F0
S11311C0882321F061E082E004DD0BC060E082E06E
S11311D000DD07C060E082E0FCDC03C060E080E08A
S11311E0F8DC809176018230A1F42AB53BB5809178
S11311F06E0190E02817390711F09BBD8ABD28B510
S113120039B580916D0190E02817390711F099BD27
S113121088BD08951F93CF93DF93C82FD62F142F23
S113122060E0BCD7112321F089E091E0D0D703C05E
S113123083E191E0CCD781E0F4D76C2F70E080E0BB
S113124090E01BD885E191E0C2D762E08D2F90E059
S1131250A9D880E0E6D785EF90E0B9D7DF91CF91A8
S11312601F910895CF93DF93EC0169E081E096D755
S113127082E0D7D785E191E0AAD764E0CE0192D885
S113128088EF90E0A4D7DF91CF9108950F931F9337
S1131290CF93DF93EB0120916A01222309F457C015
S11312A020916901211157C0FC01E61BF70B20E1D5
S11312B03EE0CF01B9019ED3629FA001639F500D10
S11312C0729F500D1124E0312EE0F207B0F49F011B
S11312D0241B350BA9E8B8E8BDD39695879592955C
S11312E082958F7089279F708927082FE41B1E2FF2
S11312F02CE3829F1019112410C0062F9F01241B78
S1131300350BA9E8B8E8A6D396958795929582956A
S11313108F7089279F708927182F69E082E03ED754
S113132083E07FD785E191E052D762E0802F90E09F
S113133039D8C0FD04C085E091E049D703C089E0F5
S113134091E045D762E0812F90E02CD813C08091C2
S11313506901882349F069E082E020D783E061D7FE
S113136087E191E034D706C069E082E017D78EE1C7
S113137091E02DD7DF91CF911F910F910895809126
S11313805E0181111BC043B344706091630181E02D
S113139041DF43B342706091620182E03BDF8091A0
S11313A06001909161015EDF609167017091680155
S11313B080916F019091700169DF089560E081E090
S11313C0EDD686E291E003D760E082E0E7D687E3DA
S11313D091E0FDD60895379A369AD6D660E081E03A
S11313E0DDD685E491E0F3D660E082E0D7D6789448
S11313F084EF91E0F2DD9093590180935801F894C1
S11314006BDB7894C1D681E0809376010895869948
S11314104BC080916400811147C02FEF80E792E0B8
S1131420215080409040E1F700C0000080916300AB
S1131430813031F41092630083E08093760100C11F
S1131440A3D680917601823029F540917501242F2D
S113145030E08091600090E001972817390724F468
S11314604F5F4093750120C00FDB1092750180918E
S11314706F0190917001892B29F0A6DD81E08093A2
S11314806A0104C080916A0181119EDD81E080932C
S11314907601D6C0823020F48F5F8093760104C039
S11314A081E080937601CCC080917601823009F08E
S11314B0B7C087995DC02FEF80E792E0215080404C
S11314C09040E1F700C000008091750190E0873002
S11314D0910508F0B8C0FC01E65EFF4F09948091C5
S11314E07401853508F0AFC08B5F80937401089553
S11314F080917201909173018C3A26E2920708F070
S1131500A2C0C29690937301809372010895809152
S113151071018A3F08F097C08B5F80937101089531
S113152080916F019091700180322CE1920708F054
S11315308AC0CC969093700180936F010895909126
S1131540620081E0892780936200089580916E0192
S11315508F3F09F478C08B5F80936E01089580916A
S11315606D018F3F09F46FC08B5F80936D01089507
S1131570B09969C08FEF90E722E0815090402040FD
S1131580E1F700C000008091750190E0873091057B
S113159008F059C0FC01EF5DFF4F0994809174017C
S11315A0853108F450C0855080937401089580916A
S11315B07201909173018536910508F444C0C29775
S11315C09093730180937201089580917101853B1A
S11315D0D0F1855080937101089580916F019091AD
S11315E07001009781F1CC979093700180936F0103
S11315F008959091620081E08927809362000895A4
S113160080916E018823F9F0855080936E010895CE
S113161080916D018823B9F0855080936D01089500
S113162090915701992379F09D9B0DC0813059F415
S1131630879909C0B09907C087E080936000089536
S113164080917601EDCF08951F920F920FB60F92FD
S113165011242F933F934F935F936F937F938F93B3
S11316609F93AF93BF93EF93FF9380916B019091FE
S11316706C01019690936C0180936B018432944FBA
S113168008F455C080916A018823B9F080916701FC
S1131690909168010196909368018093670120916D
S11316A06F01309170018217930738F08DDC60E090
S11316B080E08FDA81E08093690180916200882361
S11316C019F1809169018823F9F0809166018530D0
S11316D0B0F480916501811109C08091640185BDD8
S11316E0809165018F5F8093650110C015BC1092D5
S11316F06501809166018F5F8093660107C0109237
S113170069011092660102C0109269018091610022
S1131710853020F48F5F8093610005C081E0809361
S1131720610080935F0110926C0110926B01FF9134
S1131730EF91BF91AF919F918F917F916F915F9145
S11317404F913F912F910F900FBE0F901F901895BE
S11317501F920F920FB60F9211248F939F93AF9302
S1131760BF9384B195B1A0E0B0E080935A01909307
S11317705B01A0935C01B0935D01BF91AF919F9118
S11317808F910F900FBE0F901F901895F5DA3FDEE2
S113179080917601823031F0833031F0813029F448
S11317A0EEDD03C05CDB01C016DE80917601882388
S11317B071F3833061F3ABDCEACF70D088F09F57CC
S11317C090F0B92F9927B751A0F0D1F0660F771F89
S11317D0881F991F1AF0BA95C9F712C0B13081F069
S11317E077D0B1E0089574C0672F782F8827B85F49
S11317F039F0B93FCCF3869577956795B395D9F7CA
S11318003EF490958095709561957F4F8F4F9F4FD3
S11318100895E89409C097FB3EF4909580957095DF
S113182061957F4F8F4F9F4F9923A9F0F92F96E928
S1131830BB279395F695879577956795B795F1119D
S1131840F8CFFAF4BB0F11F460FF1BC06F5F7F4F3A
S11318508F4F9F4F16C0882311F096E911C077234C
S113186021F09EE8872F762F05C0662371F096E855
S1131870862F70E060E02AF09A95660F771F881F24
S1131880DAF7880F9695879597F9089557FD90583C
S1131890440F551F59F05F3F71F04795880F97FB30
S11318A0991F61F09F3F79F08795089512161306EA
S11318B01406551FF2CF4695F1DF08C01616170619
S11318C01806991FF1CF869571056105089408954E
S11318D0E894BB2766277727CB0197F908950BD0A7
S11318E078C069D028F06ED018F0952309F05AC05A
S11318F05FC01124EECFCADFA0F3959FD1F3950FFB
S113190050E0551F629FF001729FBB27F00DB11D7F
S1131910639FAA27F00DB11DAA1F649F6627B00D0F
S1131920A11D661F829F2227B00DA11D621F739FF8
S1131930B00DA11D621F839FA00D611D221F749F06
S11319403327A00D611D231F849F600D211D822F4D
S1131950762F6A2F11249F5750408AF0E1F0882394
S11319604AF0EE0FFF1FBB1F661F771F881F9150A1
S11319705040A9F79E3F510570F014C0AACF5F3FB5
S1131980ECF3983EDCF3869577956795B795F795D4
S1131990E7959F5FC1F7FE2B880F911D969587955C
S11319A097F9089597F99F6780E870E060E00895DB
S11319B09FEF80EC089500240A9416161706180663
S11319C00906089500240A9412161306140605063F
S11319D00895092E0394000C11F4882352F0BB0FD0
S11319E040F4BF2B11F460FF04C06F5F7F4F8F4F33
S11319F09F4F0895AA1BBB1B51E107C0AA1FBB1F21
S1131A00A617B70710F0A61BB70B881F991F5A9586
S1131A10A9F780959095BC01CD010895052E97FBFB
S1131A2016F400940FD057FD05D020D007FC02D047
S1131A3046F408C050954095309521953F4F4F4F3F
S1131A405F4F089590958095709561957F4F8F4F66
S1131A509F4F0895A29FB001B39FC001A39F01D0DF
S1131A60B29F700D811D1124911D0895A1E21A2EBB
S1131A70AA1BBB1BFD010DC0AA1FBB1FEE1FFF1F2E
S1131A80A217B307E407F50720F0A21BB30BE40B7E
S1131A90F50B661F771F881F991F1A9469F76095C5
S1131AA07095809590959B01AC01BD01CF0108957F
S1131AB0E199FECF9FBB8EBBE09A99278DB3089521
S1131AC0A8E1B0E042E050E012C0262FE199FECF39
S1131AD09FBB8EBB2DBB0FB6F894E29AE19A0FBE62
S1131AE001960895F2DF272FF1CFDC01CB01FC0131
S1131AF0E199FECF06C0FFBBEEBBE09A31960DB272
S1111B000D9241505040B8F70895F894FFCF6D
S1131B0E03010101010609090600000000040A0A86
S1131B1E0E1F1F0E00070E1C1F0E1C10001F1F0E83
S1131B2E040E1F1F000A0A1F1F0E0402040E111BAF
S1131B3E150E0E04000E17131313170E00060A13B8
S1131B4E13130A06000010181C1E1F0954656D702D
S1131B5E2E2073656E736F7273000964657465630A
S1131B6E74696E672E2E2E0009546F2063616C69A2
S1131B7E62726174650009507265737320224D4F51
S1131B8E44452200090953455454494E4753006DA8
S1131B9E61783A20004300205700696E3A200020F5
S1131BAE56000909003A00090920004F4E20004F43
S1131BBE4646003E003D003D2D2D3A2D2D002020A1
S1131BCE2020202020005720412052204E20492042
S1131BDE4E204721212100094F564552504F57455B
S1131BEE52212121002043414C4942524154494E35
S1091BFE472E2E2E00000C
S9030000FC
