:1000000027C041C040C03FC03EC03DC03CC03BC017
:100010003AC039C038C037C036C035C034C033C02C
:1000200032C031C030C026C438C449C459C47FC4AA
:1000300092C49FC476C57EC58DC595C59DC5A2C514
:10004000AAC5C8C5D0C5DDC5E4C5EBC5F0C5F7C5B3
:1000500011241FBECFE5D4E0DEBFCDBF11E0A0E686
:10006000B0E0EAE7FDE002C005900D92A830B107CC
:10007000D9F721E0A8E0B1E001C01D92A331B20799
:10008000E1F7EDD578C6BCCFCF93DF9300D000D099
:1000900000D0CDB7DEB79E838D831A821982298165
:1000A0003A818D819E8128173907E8F41C821B82D2
:1000B0008B819C818A3F910550F48B819C810196B4
:1000C0009C838B838B819C818A3F9105B0F38981CE
:1000D0009A8101969A83898329813A818D819E81B3
:1000E0002817390718F326960FB6F894DEBF0FBE0F
:1000F000CDBFDF91CF910895CF93DF93EC01949A18
:1001000081E090E0C1DF9498CE01BEDFDF91CF9116
:100110000895882314F4909A01C0909886FF02C035
:10012000919A01C0919885FF02C0929A01C092985D
:1001300084FF02C0939A08959398089583FF02C0A4
:10014000909A01C0909882FF02C0919A01C0919844
:1001500081FF02C0929A01C0929880FF02C0939AD8
:100160000895939808951F93CF93DF93182FEB0171
:10017000D0DF80E090E0C0DF812FE0DFCE01BCDF88
:10018000DF91CF911F91089562E070E081E0EBDF95
:10019000089562E070E082E0E6DF0895962F8230F5
:1001A00051F0853071F0813089F460E070E0892F82
:1001B0008068D9DF089560E070E0892F806CD3DF1C
:1001C000089560E070E0892F8064CDDF0895CF93BB
:1001D000DF93959AEC011EC08A3031F4959860E067
:1001E00082E0DCDF959A16C08D3021F49598D1DF3E
:1001F000959A10C0893059F4959860E070E084E1D8
:10020000B2DF60E070E084E1AEDF959A03C060E0A9
:1002100070E0A9DF89918111DFCF9598DF91CF91AF
:100220000895959A60E070E09EDF959808950F9389
:100230001F93CF93DF93082F192F660F660F660F5A
:1002400085E0ACDFC02FD12F10E08991EADF1F5F7E
:100250001830D9F7DF91CF911F910F9108958C330A
:1002600039F08E3349F460E070E084E17CDF08957A
:1002700060E070E080E177DF08954F925F926F92C7
:100280007F928F929F92AF92BF92CF92DF92EF9226
:10029000FF924B015C01992354F48DE2C2DFB094CC
:1002A000A09490948094811C911CA11CB11C8AE0A4
:1002B00088169104A104B1040CF464C0C12CD12CA3
:1002C0007601C394CC0CDD1CEE1CFF1CD701C601CB
:1002D000880F991FAA1FBB1F880F991FAA1FBB1F3A
:1002E000C80ED91EEA1EFB1EC501B401A701960166
:1002F000CBD42A3031054105510524F780E3820F24
:1003000090DFC701B6012AE030E040E050E0BCD405
:1003100069017A012115310541055105B1F10F2E11
:10032000FAE04F2E512C612C712CF02DD701C60113
:10033000880F991FAA1FBB1FAC01BD01440F551F99
:10034000661F771F440F551F661F771F9A01AB0169
:10035000280F391F4A1F5B1FC501B40195D4A7019F
:10036000960192D480E3820F5CDFC701B601A3013E
:1003700092018AD469017A0121153105410551059F
:10038000A9F603C080E3880D4CDFFF90EF90DF906B
:10039000CF90BF90AF909F908F907F906F905F9025
:1003A0004F900895CF93DF93EC01623009F442C07F
:1003B00020F4613009F462C07CC06330A9F064307D
:1003C00009F077C09C013695279536952795369587
:1003D0002795A5ECB0E274D4929582958F70892709
:1003E0009F708927805D1DDF9E0136952795369584
:1003F0002795ABE7B4E164D4AC01569547959A01D3
:10040000ADECBCEC5DD496958795969587959695C1
:1004100087959C01220F331F880F991F880F991F02
:10042000880F991F820F931F9A01281B390BC9014E
:10043000805DF7DE9E01ADECBCEC42D4AC0156957C
:10044000479556954795569547959A0139D496956F
:10045000879596958795969587959C01220F331FD2
:10046000880F991F880F991F880F991F820F931F5C
:100470009A01281B390BC901805DD3DE9E01ADECCA
:10048000BCEC1ED4969587959695879596958795FD
:100490009C01220F331F880F991F880F991F880F07
:1004A000991F820F931F9E01281B390BC901805D84
:1004B000B8DEDF91CF910895FF920F931F93CF93F2
:1004C000DF93C3EAD0E000E06894FF24F3F8602FE4
:1004D00085E064DE1F2D8881A4DE1150E1F7085FFE
:1004E00021960033A1F760E081E058DEDF91CF91E3
:1004F0001F910F91FF9008950F931F93CF93DF9358
:10050000C09108016DECC69F612D1124669566951A
:10051000182F813508F010E5C117D0F482E03EDED7
:10052000DDECCF5FCD9F812D112486958695982F88
:10053000990F990F890F9C2F981B892F19F485E02B
:1005400070DE03C06EDE8CE38ADEC113EACF2EC0FC
:100550008DECC89F812D112486958695982F990F33
:10056000990F890FC81301C0615082E017DE60E067
:1005700070E084E0F8DDC117A9F00DECC150C09F18
:10058000D12D1124D695D6958D2F880F880FD80F91
:100590008C2F8D1BD82F45DEDD2311F08EE35FDE1F
:1005A000C113ECCF60E070E086E0DDDD1093080160
:1005B000DF91CF911F910F910895CF93C82FA9DD9F
:1005C00080E090E099DD80E090E096DD8C2FB6DD54
:1005D00080E090E091DDCF9108958CE2EEDF60E065
:1005E00070E08CE0C0DD60E070E086E0BCDD62E0E1
:1005F00070E081E0B8DD62E070E082E0B4DD5CDFF5
:10060000089587E090E08AD39CEE980F973418F411
:100610008093100103C084E18093100185E090E095
:1006200085D39C01245631092934364228F490930D
:100630000F0180930E0106C084E690E090930F01B5
:1006400080930E0184E090E069D39CE4980F973486
:1006500018F480930D0103C08CED80930D0183E0AD
:1006600090E05CD3893718F480930C0102C010929B
:100670000C0182E090E052D380930B0181E090E086
:100680004DD380930A0180E090E048D380936000CE
:1006900008956091100187E090E04DD360910E01C4
:1006A00070910F0185E090E053D360910D0184E0DB
:1006B00090E041D360910C0183E090E03CD36091E5
:1006C0000B0182E090E037D360910A0181E090E075
:1006D00032D36091600080E090E02DD308958EE3E6
:1006E00087BB87E088BB8FE984BB15BA8FE381BBEA
:1006F00080EC82BB86DF71DF47DD60E081E04EDDAC
:1007000089EA90E064DD60E082E048DD87EB90E01C
:100710005EDD0895CF93DF93CDB7DEB7C054D10926
:100720000FB6F894DEBF0FBECDBF88E0E3E6F0E081
:10073000DE01119601900D928A95E1F788E0EBE6D3
:10074000F0E0DE01199601900D928A95E1F788E0BC
:10075000E3E7F0E0DE01519601900D928A95E1F712
:1007600088E0EBE7F0E0DE01599601900D928A9562
:10077000E1F788E0E3E8F0E0DE01919601900D9268
:100780008A95E1F788E0EBE8F0E0DE0199960190C8
:100790000D928A95E1F788E0E3E9F0E0DE01D19679
:1007A00001900D928A95E1F788E0EBE9F0E0DE0137
:1007B000D99601900D928A95E1F760E0CE010196FD
:1007C00036DD61E0CE01099632DD62E0CE01419670
:1007D0002EDD63E0CE0149962ADD64E0CE018196EC
:1007E00026DD65E0CE01899622DD66E0CE01C19668
:1007F0001EDD67E0CE01C9961ADDC05CDF4F0FB683
:10080000F894DEBF0FBECDBFDF91CF910895CF9397
:10081000BBDC60E081E0C2DC85EC90E0D8DC60E02D
:1008200082E0BCDCC0E08C2F67DE8FE097E20197AE
:10083000F1F700C00000CF5FC035A9F7A5DC6ADF83
:1008400081E080931201CF910895CF9360E081E021
:10085000A5DC85ED90E0BBDC60E082E09FDC809170
:10086000110190E08730910508F090C0FC01ED5E29
:10087000FF4F099489EF90E0AADC81E0D2DC80EEA2
:1008800090E0A5DC8091100162E090E08BDD80E0DB
:10089000C8DC86EE90E09BDC79C084EF90E097DCCA
:1008A00082E0BFDC80EE90E092DC64E080910E019B
:1008B00090910F0177DD88EE90E089DC67C089EFC9
:1008C00090E085DC84E0ADDC8BEE90E080DC809114
:1008D0000D0163E090E066DD80EF90E078DC56C0CB
:1008E00083EF90E074DC83E09CDC8DEE90E06FDCC5
:1008F00080910C01C9E88C9F812D112482958695E9
:10090000877062E090E04EDD86EF90E060DC8091E1
:100910000C018C9FC12D1124C295C695C7709CE314
:10092000C99F8019112462E090E03CDD2FC088EF60
:1009300090E04DDC87E075DC8DEE90E048DC809146
:100940006000882321F08CEF90E041DC1FC080E044
:1009500091E03DDC1BC088EF90E039DC85E061DC94
:100960008DEE90E034DC80910B0163E090E01ADDC5
:100970000DC088EF90E02BDC86E053DC8DEE90E03C
:1009800026DC80910A0163E090E00CDDCF910895B0
:100990001F93CF93DF93C82FD62F142F60E0FEDB79
:1009A000112321F084E091E012DC03C08AEF90E093
:1009B0000EDC81E036DC6C2F70E080E090E05DDCE6
:1009C00086E091E004DC62E08D2F90E0EBDC80E0DB
:1009D00028DC86EE90E0FBDBDF91CF911F9108953C
:1009E000CF93DF93EC0169E081E0D8DB82E019DC92
:1009F00086E091E0ECDB64E0CE01D4DC89EE90E0AF
:100A0000E6DBDF91CF910895CF93DF93D82FD61BEC
:100A100069E082E0C3DB83E004DC86E091E0D7DBC1
:100A2000C9E8DC9FC12D1124C295C695C77062E04C
:100A30008C2F90E0B7DC86EF90E0C9DB8D2F9CE334
:100A4000C99F8019112462E090E0ACDCDF91CF9166
:100A5000089540E06BE181E09BDF41E060E282E0ED
:100A600097DF8CEA96E2BCDF80910C01882319F0B5
:100A700060910901C9DF0895869938C02FEF84E39A
:100A80009CE0215080409040E1F700C00000809140
:100A90006100813031F41092610083E08093120193
:100AA000D6C072DB809112018230B1F44091110105
:100AB000242F30E08091620090E0019728173907D9
:100AC00024F44F5F4093110111C0E3DD1092110136
:100AD00081E080931201BBC0823020F48F5F80934D
:100AE000120104C081E080931201B1C08091120113
:100AF000823009F0ACC0879957C02FEF84E39CE0A7
:100B0000215080409040E1F700C000008091110129
:100B100090E08730910508F0A1C0FC01E65EFF4F30
:100B20000994809110018A3508F098C0865F8093FF
:100B30001001089580910E0190910F018C3A26E2E8
:100B4000920708F08BC08C599F4F90930F018093B0
:100B50000E01089580910D018A3F08F07FC0865FE5
:100B600080930D01089580910C01883708F076C0BC
:100B7000865F80930C01089580916000809580933A
:100B80006000089580910B018F3F09F467C08B5F6F
:100B900080930B01089580910A018F3F09F45EC094
:100BA0008B5F80930A010895B09958C08FEF94E34A
:100BB0002CE0815090402040E1F700C0000080917F
:100BC000110190E08730910508F048C0FC01EF5D0D
:100BD000FF4F099480911001853108F43FC08A507D
:100BE00080931001089580910E0190910F01853638
:100BF0009105A0F18456910990930F0180930E0105
:100C0000089580910D01853B48F18A5080930D0134
:100C1000089580910C01882309F18A5080930C017A
:100C20000895809160008095809360000895809180
:100C30000B01882399F0855080930B0108958091D2
:100C40000A01882359F0855080930A0108958799F5
:100C500005C0B09903C087E08093620008953FDD2E
:100C60000BDF80911201823031F0833031F081301E
:100C700029F4EFDE03C0E9DD01C0C9DD80910A017E
:100C800090E099BD88BDECCF052E97FB16F400943B
:100C90000FD057FD05D020D007FC02D046F408C085
:100CA00050954095309521953F4F4F4F5F4F089598
:100CB00090958095709561957F4F8F4F9F4F0895C8
:100CC000A29FB001B39FC001A39F01D0B29F700D3E
:100CD000811D1124911D0895A1E21A2EAA1BBB1B90
:100CE000FD010DC0AA1FBB1FEE1FFF1FA217B307F8
:100CF000E407F50720F0A21BB30BE40BF50B661F0E
:100D0000771F881F991F1A9469F7609570958095D1
:100D100090959B01AC01BD01CF010895E199FECFF3
:100D20009FBB8EBBE09A99278DB30895A8E1B0E0F0
:100D300042E050E012C0262FE199FECF9FBB8EBB50
:100D40002DBB0FB6F894E29AE19A0FBE0196089572
:100D5000F2DF272FF1CFDC01CB01FC01E199FECFBF
:100D600006C0FFBBEEBBE09A31960DB20D9241502A
:0A0D70005040B8F70895F894FFCF43
:100D7A000101030609090600000000040A0A0E1F01
:100D8A001F0E00070E1C1F0E1C10001F1F0E040E44
:100D9A001F1F000A0A1F1F0E0402040E111B150E44
:100DAA000E04000E17131313170E00060A1313135B
:100DBA000A06000010181C1E1F09546F2063616C7C
:100DCA006962726174650009507265737320224DFD
:100DDA004F444522002043414C4942524154494E16
:100DEA00472E2E2E00090953455454494E475300A5
:100DFA006D61783A20004300205700696E3A20005E
:100E0A002056000909003A00090920004F4E200027
:080E1A004F4646003E003D007A
:00000001FF
