S010000054502D4D657465722E7372656346
S113000027C041C040C03FC03EC03DC03CC03BC013
S11300103AC0BACA38C037C036C035C02CCB33C09A
S113002032C031C030C084C696C6A7C6B7C6F1C6B2
S113003004C711C7FDC905CA13CA1BCA29CA2FCAD6
S113004037CA4CCA54CA61CA68CA73CA79CA80CA50
S113005011241FBECFE5D4E0DEBFCDBF11E0A0E682
S1130060B0E0E8E1F8E102C005900D92A236B107D4
S1130070D9F721E0A2E6B1E001C01D92AF39B20781
S1130080E1F720DBC7CBBCCFCF93DF9300D000D008
S113009000D0CDB7DEB79E838D831A821982298161
S11300A03A818D819E8128173907E8F41C821B82CE
S11300B08B819C818831914050F48B819C81019685
S11300C09C838B838B819C8188319140B0F389819F
S11300D09A8101969A83898329813A818D819E81AF
S11300E02817390718F326960FB6F894DEBF0FBE0B
S11300F0CDBFDF91CF910895CF93DF93EC01949A14
S113010083E090E0C1DF9498CE01BEDFDF91CF9110
S11301100895882314F4909A01C0909886FF02C031
S1130120919A01C0919885FF02C0929A01C0929859
S113013084FF02C0939A08959398089583FF02C0A0
S1130140909A01C0909882FF02C0919A01C0919840
S113015081FF02C0929A01C0929880FF02C0939AD4
S11301600895939808951F93CF93DF93182FEB016D
S1130170D0DF80E090E0C0DF812FE0DFCE01BCDF84
S1130180DF91CF911F91089562E070E081E0EBDF91
S1130190089562E070E082E0E6DF0895962F8230F1
S11301A051F0853071F0813089F460E070E0892F7E
S11301B08068D9DF089560E070E0892F806CD3DF18
S11301C0089560E070E0892F8064CDDF0895CF93B7
S11301D0DF93959AEC011EC08A3031F4959860E063
S11301E082E0DCDF959A16C08D3021F49598D1DF3A
S11301F0959A10C0893059F4959860E070E084E1D4
S1130200B2DF60E070E084E1AEDF959A03C060E0A5
S113021070E0A9DF89918111DFCF9598DF91CF91AB
S11302200895959A60E070E09EDF959808950F9385
S11302301F93CF93DF93082F192F660F660F660F56
S113024085E0ACDFC02FD12F10E08991EADF1F5F7A
S11302501830D9F7DF91CF911F910F9108958C3306
S113026039F08E3349F460E070E084E17CDF089576
S113027060E070E080E177DF08954F925F926F92C3
S11302807F928F929F92AF92BF92CF92DF92EF9222
S1130290FF924B015C01992354F48DE2C2DFB094C8
S11302A0A09490948094811C911CA11CB11C8AE0A0
S11302B088169104A104B1040CF464C0C12CD12C9F
S11302C07601C394CC0CDD1CEE1CFF1CD701C601C7
S11302D0880F991FAA1FBB1F880F991FAA1FBB1F36
S11302E0C80ED91EEA1EFB1EC501B401A701960162
S11302F03CDA2A3031054105510524F780E3820FA9
S113030090DFC701B6012AE030E040E050E02DDA8A
S113031069017A012115310541055105B1F10F2E0D
S1130320FAE04F2E512C612C712CF02DD701C6010F
S1130330880F991FAA1FBB1FAC01BD01440F551F95
S1130340661F771F440F551F661F771F9A01AB0165
S1130350280F391F4A1F5B1FC501B40106DAA70124
S1130360960103DA80E3820F5CDFC701B601A301C3
S11303709201FBD969017A01211531054105510525
S1130380A9F603C080E3880D4CDFFF90EF90DF9067
S1130390CF90BF90AF909F908F907F906F905F9021
S11303A04F900895CF93DF93EC01623009F442C07B
S11303B020F4613009F462C07CC06330A9F0643079
S11303C009F077C09C013695279536952795369583
S11303D02795A5ECB0E2E5D9929582958F7089278F
S11303E09F708927805D1DDF9E0136952795369580
S11303F02795ABE7B4E1D5D9AC01569547959A0159
S1130400ADECBCECCED99695879596958795969547
S113041087959C01220F331F880F991F880F991FFE
S1130420880F991F820F931F9A01281B390BC9014A
S1130430805DF7DE9E01ADECBCECB3D9AC01569502
S1130440479556954795569547959A01AAD99695F5
S1130450879596958795969587959C01220F331FCE
S1130460880F991F880F991F880F991F820F931F58
S11304709A01281B390BC901805DD3DE9E01ADECC6
S1130480BCEC8FD996958795969587959695879583
S11304909C01220F331F880F991F880F991F880F03
S11304A0991F820F931F9E01281B390BC901805D80
S11304B0B8DEDF91CF910895FF920F931F93CF93EE
S11304C0DF93C4EAD0E000E06894FF24F3F8602FDF
S11304D085E064DE1F2D8881A4DE1150E1F7085FFA
S11304E021960033A1F760E081E058DEDF91CF91DF
S11304F01F910F91FF9008950F931F93CF93DF9354
S1130500C09162016DECC69F612D112466956695BC
S1130510182F813508F010E5C117D0F482E03EDED3
S1130520DDECCF5FCD9F812D112486958695982F84
S1130530990F990F890F9C2F981B892F19F485E027
S113054070DE03C06EDE8CE38ADEC113EACF2EC0F8
S11305508DECC89F812D112486958695982F990F2F
S1130560990F890FC81301C0615082E017DE60E063
S113057070E084E0F8DDC117A9F00DECC150C09F14
S1130580D12D1124D695D6958D2F880F880FD80F8D
S11305908C2F8D1BD82F45DEDD2311F08EE35FDE1B
S11305A0C113ECCF60E070E086E0DDDD1093620102
S11305B0DF91CF911F910F910895CF93C82FA9DD9B
S11305C080E090E099DD80E090E096DD8C2FB6DD50
S11305D080E090E091DDCF9108958CE2EEDF60E061
S11305E070E08CE0C0DD60E070E086E0BCDD62E0DD
S11305F070E081E0B8DD62E070E082E0B4DD5CDFF1
S1130600089598E038E1262F282720FD02C066953A
S113061003C063276695606886959150A1F7862F7D
S11306200895EF92FF920F931F93CF93DF937C0172
S11306308C01095F1F4FEC0160E08991E2DF682FB4
S1130640C017D107D1F781E0F7019781691301C081
S113065080E0DF91CF911F910F91FF90EF9008956B
S1130660EF92FF920F931F93CF93DF937C018C0142
S1130670085F1F4FEC0160E08991C3DF682FC0174A
S1130680D107D1F781E0F7019085691301C080E0BB
S1130690DF91CF911F910F91FF90EF9008951F93D9
S11306A0CF93DF93D82F162FC8E0D0FF03C0812F3C
S11306B00CD102C0812F23D1D695C150B1F7DF915F
S11306C0CF911F9108951F93CF93DF93182FD8E0F4
S11306D0C0E0C695812F2DD18111C068D150C9F7D2
S11306E08C2FDF91CF911F910895FF920F931F9349
S11306F0CF93DF938C01F62E85E5D1DFE801085F07
S11307001F4F6F2D8991CBDFC017D107D1F7DF9130
S1130710CF911F910F91FF900895BF92CF92DF92D6
S1130720EF92FF920F931F93CF93DF93EC01D62E9A
S1130730F42E642F80EFB3DF11E0B12C01E0CC2460
S1130740C3948F2DF6D0E82E8F2DF3D0EE20A1F197
S113075081112EC09881912B988319C02881912FE3
S113076090959223988313C00D1104C08881812B26
S113077088830DC0D01638F49881812F8095892301
S11307808883B02E04C09881912339F003C09881E6
S1130790912321F08F2D99D003C0B02E8F2DAFD08F
S11307A00F5F110F11F421961C2D013451F602C074
S11307B08FEF05C08B2D03C08111D0CFD5CFDF9132
S11307C0CF911F910F91FF90EF90DF90CF90BF904A
S11307D008958F929F92AF92BF92CF92DF92EF9241
S11307E0FF920F931F93CF93DF938C01942E790183
S11307F0662371F0DC0120E088E007C0119291507B
S1130800E9F72F5F1896261719F0FD01982FF6CFF8
S1130810C02ED12EE02FF12FB12CA12C6894882466
S113082083F8AC2DBD2D882D01900D928A95E1F7AA
S1130830892DA0D0882351F1492D6A2D8C2D9D2D11
S11308406CDFA82EB394E80188E0B89EC00DD11DDA
S11308501124AA2029F0EC2DFD2DCC2EDD2EE1CF84
S1130860BB20B1F0D0E0C0E0DD24D394C801D9DED0
S1130870811105C0F70190819F5F908301C0DD2D38
S1130880CF5F085F1F4FCB11F1CF04C08FEF03C0C0
S113089080E001C08D2FDF91CF911F910F91FF90C8
S11308A0EF90DF90CF90BF90AF909F908F9008957E
S11308B094B38095982394BB95B3892385BB8CE529
S11308C099E00197F1F700C008959FB7F89424B315
S11308D0282B24BB25B38095282325BB23E22A9506
S11308E0F1F700C024B3282324BB25B3822385BB9E
S11308F0ECE3F1E03197F1F700C09FBF08959FB793
S1130900F89424B3282B24BB25B38095282325BB36
S1130910E8E2F1E03197F1F700C024B3282324BBC7
S113092025B3822385BBFEE3FA95F1F700009FBF50
S113093008952FB7F89494B3982B94BB35B3982F9C
S11309409095392335BB33E23A95F1F700C034B3BF
S1130950392334BB35B3932395BB97E39A95F1F7C9
S113096000C093B3EFE0F1E03197F1F700C02FBF7F
S1130970892308952FB7F89494B3982B94BB35B377
S1130980982F9095392335BBECE5F9E03197F1F7D1
S113099000C034B3392334BB35B3932395BBEAE5A4
S11309A0F1E03197F1F700C093B3EEEFF7E0319740
S11309B0F1F700C02FBF909589230895CF9380E06D
S11309C090E0FBD6C82F882321F060E080E090E01F
S11309D001D789E090E0F1D69CEE980F973418F493
S11309E08093800103C084E18093800187E090E0DC
S11309F0ECD69C01245631092934364228F49093CC
S1130A007F0180937E0106C024E630E030937F01AD
S1130A1020937E0186E090E0D0D69CE4980F973432
S1130A2018F480937D0103C08CED80937D0184E0F4
S1130A3090E0CBD681322CE1920728F490937C018C
S1130A4080937B0104C010927C0110927B0183E0AF
S1130A5090E0B3D680937A0182E090E0AED6CF3FA7
S1130A6019F08093790103C084E68093790181E0D1
S1130A7090E0A3D6811103C01092600003C081E00E
S1130A8080936000CF9108956091800189E090E0A7
S1130A90A1D660917E0170917F0187E090E0A7D696
S1130AA060917D0186E090E095D660917B01709124
S1130AB07C0184E090E09BD660917A0183E090E031
S1130AC089D66091790182E090E084D660916000DB
S1130AD081E090E07FD60895CF93DF93CDB7DEB762
S1130AE0C054D1090FB6F894DEBF0FBECDBF88E065
S1130AF0E4E6F0E0DE01119601900D928A95E1F7AB
S1130B0088E0ECE6F0E0DE01199601900D928A95FA
S1130B10E1F788E0E4E7F0E0DE01519601900D9200
S1130B208A95E1F788E0ECE7F0E0DE015996019060
S1130B300D928A95E1F788E0E4E8F0E0DE01919611
S1130B4001900D928A95E1F788E0ECE8F0E0DE018F
S1130B50999601900D928A95E1F788E0E4E9F0E036
S1130B60DE01D19601900D928A95E1F788E0ECE9D7
S1130B70F0E0DE01D99601900D928A95E1F760E0EC
S1130B80CE01019654DB61E0CE01099650DB62E0B0
S1130B90CE0141964CDB63E0CE01499648DB64E02C
S1130BA0CE01819644DB65E0CE01899640DB66E0A8
S1130BB0CE01C1963CDB67E0CE01C99638DBC05C50
S1130BC0DF4F0FB6F894DEBF0FBECDBFDF91CF91DC
S1130BD00895813019F0823039F00CC0662311F089
S1130BE0AA9A0895AA980895662311F0A99A0895D7
S1130BF0A9980895662319F0AA9AA99A0895AA981B
S1130C00A998089580918601811114C010928401DD
S1130C1024E831E048E062E08FE891E0DADD809397
S1130C20850190918401923029F4813019F08FEF7D
S1130C308093860108958EE387BB87E088BB9FE895
S1130C4094BB90E195BB9FE391BB90EC92BB99B7A9
S1130C50916099BF93B7916093BF9FB5916A9FBD0F
S1130C609EB591609EBD95B59C6695BD9FE793BD6D
S1130C7097B1956C97B9339A9EB595609EBD95B51D
S1130C809F6695BD8093620085B58093700115BC05
S1130C909C9904C081E08093830102C01092830177
S1130CA08DDE80917A0190E09BBD8ABD80917901AF
S1130CB090E099BD88BD91DC67DA60E081E06EDA8E
S1130CC08AEA90E084DA60E082E068DA89EB90E016
S1130CD07EDA88E0EDDD809186018F3F29F092DF96
S1130CE0809186018F3FD9F7109263004DDA60E05E
S1130CF081E054DA87EC90E06ADA60E082E04EDA70
S1130D0085ED90E064DA089560E081E047DA83EEEF
S1130D1090E05DDA60E082E041DA8091810190E068
S1130D208730910508F0A4C0FC01ED5EFF4F0994E3
S1130D3087E091E04CDA81E074DA8EEE90E047DAF5
S1130D408091800162E090E02DDB80E06ADA84EF3C
S1130D5090E03DDA089582E091E039DA82E061DAE8
S1130D608EEE90E034DA64E080917E0190917F0110
S1130D7019DB86EF90E02BDA089587E091E027DA1B
S1130D8084E04FDA89EF90E022DA80917D0163E01C
S1130D9090E008DB8EEF90E01ADA089581E091E0AC
S1130DA016DA83E03EDA8BEF90E011DA80917B0172
S1130DB090917C0160E17EE0A2D4CB0162E0F2DAA2
S1130DC084E091E004DA20917B0130917C01A9E870
S1130DD0B8E8E7D4AC0156954795529542954F70C3
S1130DE045275F7045279A01DCD49695879592959F
S1130DF082958F7089279F7089276CE3689F900183
S1130E00699F300D112462E0CA01821B930BCADA78
S1130E10089586E091E0DBD987E003DA8BEF90E078
S1130E20D6D980916000882321F08AE091E0CFD95F
S1130E3008958EE091E0CBD9089586E091E0C7D97A
S1130E4085E0EFD98BEF90E0C2D980917A0163E01D
S1130E5090E0A8DA089586E091E0B9D986E0E1D976
S1130E608BEF90E0B4D98091790163E090E09ADA55
S1130E7008951092760110927501109274011092E7
S1130E8073010895BF92CF92DF92EF92FF920F9376
S1130E901F93CF93DF93CDB7DEB729970FB6F8949E
S1130EA0DEBF0FBECDBFB82E8B016A0163DD6B2D93
S1130EB0C8011BDC6B2D84E4F2DB8B2D3ADD882327
S1130EC0E1F38B2D57DD6B2DC8010FDC6B2D8EEB01
S1130ED0E6DB8E010F5F1F4F7E018AE0E80EF11CF6
S1130EE08B2DF1DBF80181938F01EE15FF05C1F71E
S1130EF0CE010196B5DB81110AC02A8130E0322F80
S1130F0022279981292BF6013183208301C081E0B6
S1130F1029960FB6F894DEBF0FBECDBFDF91CF91F7
S1130F201F910F91FF90EF90DF90CF90BF900895A5
S1130F30CF93DF9300D0CDB7DEB71A82198228E0B1
S1130F40829FC0011124BC0161577E4FAE014F5FE7
S1130F505F4F88E097DF80938501813091F089812C
S1130F609A8199232CF49195819591099A83898387
S1130F7089819A81929582958F7089279F7089279C
S1130F8001C080E00F900F90DF91CF910895AF9250
S1130F90BF92CF92DF92EF92FF920F931F93CF9362
S1130FA0DF938C011092670110926801109269011D
S1130FB010926A0110926601109265019C01ADECD9
S1130FC0BCECEFD35C010024AA0CBB1C001CAA0CD3
S1130FD0BB1C001CAB2CB02C0115110501F1C0E0A9
S1130FE0D0E0C12CD12C7601369A80916701909182
S1130FF06801A0916901B0916A01C80ED91EEA1E68
S1131000FB1E80918201833029F4CE01B50177D390
S1131010862F72DA2196C017D10731F703C0C12C8D
S1131020D12C7601980140E050E0C701B6017BD392
S1131030C901DF91CF911F910F91FF90EF90DF9045
S1131040CF90BF90AF9008958DE290E0A0DF209103
S1131050630130916401821B930B0895F5DF909333
S11310606D0180936C0180E063DF80936F0181E008
S11310705FDF80936E0120916C0130916D0180914E
S11310807E0190917F012817390758F081E0809301
S11310906B01EFDE60E080E09CDD8091700185BD36
S11310A00CC080916B01882361F06ED810926B01A3
S11310B080917501811105C015BC80916B0181116E
S11310C031C080917B0190917C01892B21F080912A
S11310D07601882351F180916F01909180018917E5
S11310E050F4882321F061E081E073DD07C060E003
S11310F082E06FDD03C060E081E06BDD80916E0112
S113110090918001891750F4882321F061E082E0F6
S113111060DD0BC060E082E05CDD07C060E082E07F
S113112058DD03C060E080E054DD809182018230AC
S1131130A1F42AB53BB580917A0190E028173907CC
S113114011F09BBD8ABD28B539B58091790190E035
S11311502817390711F099BD88BD08951F93CF93BF
S1131160DF93C82FD62F142F60E018D8112321F055
S113117082E191E02CD803C088E091E028D881E096
S113118050D86C2F70E080E090E077D884E191E053
S11311901ED862E08D2F90E005D980E042D884EF1C
S11311A090E015D8DF91CF911F910895CF93DF93ED
S11311B0EC0169E081E0F2D782E033D884E191E088
S11311C006D864E0CE01EED887EF90E000D8DF9136
S11311D0CF9108950F931F93CF93DF93EB01209149
S11311E07601222309F457C020917501211157C0BB
S11311F0FC01E61BF70B20E13EE0CF01B9017FD2F1
S1131200629FA001639F500D729F500D1124E03125
S11312102EE0F207B0F49F01241B350BA9E8B8E8CF
S1131220C0D296958795929582958F7089279F70E5
S11312308927082FE41B1E2F2CE3829F10191124E9
S113124010C0062F9F01241B350BA9E8B8E8A9D2CA
S113125096958795929582958F7089279F70892797
S1131260182F69E082E09AD783E0DBD784E191E02C
S1131270AED762E0802F90E095D8C0FD04C084E032
S113128091E0A5D703C088E091E0A1D762E0812F67
S113129090E088D813C080917501882349F069E0F3
S11312A082E07CD783E0BDD786E191E090D706C089
S11312B069E082E073D78DE191E089D7DF91CF9126
S11312C01F910F91089580916B0181111BC043B34D
S11312D0447060916F0181E041DF43B342706091DB
S11312E06E0182E03BDF80916C0190916D015EDFC5
S11312F0609173017091740180917B0190917C01E4
S113130069DF089560E081E049D785E291E05FD725
S113131060E082E043D786E391E059D70895379A95
S1131320369A32D760E081E039D784E491E04FD730
S113133060E082E033D7789488EE93E028DE9093DF
S113134064018093630120D760E081E027D784E5BE
S113135091E03DD7609163017091640180E090E079
S11313608CD72FEF83ED90E3215080409040E1F73C
S113137000C00000F894B0DB789406D781E0809335
S113138082010895869942C08091630081113EC014
S113139080916100813031F41092610083E0809388
S11313A08201EEC0F1D680918201823029F540910C
S11313B08101242F30E08091620090E0019728178A
S11313C0390724F44F5F4093810120C05DDB109204
S11313D0810180917B0190917C01892B29F049DD69
S11313E081E08093760104C080917601811141DD12
S11313F081E080938201C4C0823020F48F5F8093A7
S1131400820104C081E080938201BAC0809182018C
S1131410823009F0A5C0879954C08091810190E081
S11314208730910508F0AFC0FC01E65EFF4F0994D8
S1131430809180018A3508F0A6C08B5F809380017B
S1131440089580917E0190917F018C3A26E2920763
S113145008F099C0C29690937F0180937E0108950D
S113146080917D018A3F08F08EC08B5F80937D015F
S1131470089580917B0190917C0180322CE1920748
S113148008F081C0CC9690937C0180937B010895F1
S11314909091600081E08927809360000895809195
S11314A07A018F3F09F46FC08B5F80937A010895AE
S11314B0809179018F3F09F466C08B5F8093790135
S11314C00895B09960C08091810190E087309105C2
S11314D008F059C0FC01EF5DFF4F09948091800131
S11314E0853108F450C0855080938001089580911F
S11314F07E0190917F018536910508F444C0C2971E
S113150090937F0180937E01089580917D01853BB6
S1131510D0F1855080937D01089580917B01909155
S11315207C01009781F1CC9790937C0180937B019F
S113153008959091600081E0892780936000089568
S113154080917A018823F9F0855080937A01089577
S1131550809179018823B9F08550809379010895A9
S113156090918301992379F09C9B0DC0813059F4AB
S1131570879909C0B09907C087E0809362000895F5
S113158080918201EDCF08951F920F920FB60F92B2
S113159011242F933F934F935F936F937F938F9374
S11315A09F93AF93BF93EF93FF93809177019091B3
S11315B07801019690937801809377018432944F57
S11315C008F448C0809176018823B9F080917301B2
S11315D0909174010196909374018093730120910A
S11315E07B0130917C018217930738F042DC60E084
S11315F080E0EFDA81E080937501809160008823B8
S113160019F1809175018823F9F080917201853078
S1131610B0F480917101811109C08091700185BD80
S1131620809171018F5F8093710110C015BC10927D
S11316307101809172018F5F8093720107C01092D3
S113164075011092720102C0109275011092780116
S113165010927701FF91EF91BF91AF919F918F917C
S11316607F916F915F914F913F912F910F900FBE9A
S11316700F901F9018951F920F920FB60F9211247E
S11316808F939F93AF93BF9384B195B1A0E0B0E0E3
S11316908093670190936801A0936901B0936A01F4
S11316A08091650190916601019690936601809303
S11316B06501BF91AF919F918F910F900FBE0F90D5
S11316C01F901895B8DA8CEA96E290937F01809384
S11316D07E0158DE80918201823031F0833031F016
S11316E0813029F4F0DD03C00FDB01C018DE8091E6
S11316F08201882371F3833061F3B0DCEACFAA1B43
S1131700BB1B51E107C0AA1FBB1FA617B70710F0E8
S1131710A61BB70B881F991F5A95A9F7809590951A
S1131720BC01CD010895A1E21A2EAA1BBB1BFD0129
S11317300DC0AA1FBB1FEE1FFF1FA217B307E407AC
S1131740F50720F0A21BB30BE40BF50B661F771F04
S1131750881F991F1A9469F76095709580959095E4
S11317609B01AC01BD01CF010895052E97FB16F432
S113177000940FD057FD05D0D6DF07FC02D046F405
S113178008C050954095309521953F4F4F4F5F4F7E
S1131790089590958095709561957F4F8F4F9F4FD9
S11317A00895A29FB001B39FC001A39F01D0B29F2F
S11317B0700D811D1124911D0895E199FECF9FBBE9
S11317C08EBBE09A99278DB30895A8E1B0E042E07A
S11317D050E012C0262FE199FECF9FBB8EBB2DBBDC
S11317E00FB6F894E29AE19A0FBE01960895F2DFDB
S11317F0272FF1CFDC01CB01FC01E199FECF06C01C
S1131800FFBBEEBBE09A31960DB20D9241505040B1
S10B1810B8F70895F894FFCF26
S1131818010103010609090600000000040A0A0E72
S11318281F1F0E00070E1C1F0E1C10001F1F0E0486
S11318380E1F1F000A0A1F1F0E0402040E111B1597
S11318480E0E04000E17131313170E00060A1313B3
S1131858130A06000010181C1E1F0954656D702E0B
S11318682073656E736F72730009646574656374BD
S1131878696E672E2E2E0009546F2063616C6962AD
S1131888726174650009507265737320224D4F4468
S1131898452200090953455454494E4753006D6184
S11318A8783A20004300205700696E3A20002056F9
S11318B8000909003A00090920004F4E20004F464C
S11318C846003E003D003D2D2D3A2D2D00202020C0
S11318D820202020005720412052204E2049204E0D
S11318E8204721212100094F564552504F57455250
S11318F8212121002043414C4942524154494E4739
S11319082E2E2E00414443204E6F697365203D20DE
S10519180000C9
S9030000FC
