S010000054502D4D657465722E7372656346
S113000027C041C040C03FC03EC03DC03CC03BC013
S11300103AC027C738C037C036C035C034C033C033
S113002032C031C030C05DC46FC480C490C4B6C493
S1130030C9C4D6C46EC676C685C68DC695C69AC6CC
S1130040A2C6C0C6C8C6D5C6DCC6E3C6E8C6EFC6E7
S113005011241FBECFE5D4E0DEBFCDBF11E0A0E682
S1130060B0E0EEE8F0E102C005900D92AC32B107C9
S1130070D9F721E0ACE2B1E001C01D92A634B20789
S1130080E1F772D702C8BCCFCF93DF9300D000D082
S113009000D0CDB7DEB79E838D831A821982298161
S11300A03A818D819E8128173907E8F41C821B82CE
S11300B08B819C818A3F910550F48B819C810196B0
S11300C09C838B838B819C818A3F9105B0F38981CA
S11300D09A8101969A83898329813A818D819E81AF
S11300E02817390718F326960FB6F894DEBF0FBE0B
S11300F0CDBFDF91CF910895CF93DF93EC01949A14
S113010081E090E0C1DF9498CE01BEDFDF91CF9112
S11301100895882314F4909A01C0909886FF02C031
S1130120919A01C0919885FF02C0929A01C0929859
S113013084FF02C0939A08959398089583FF02C0A0
S1130140909A01C0909882FF02C0919A01C0919840
S113015081FF02C0929A01C0929880FF02C0939AD4
S11301600895939808951F93CF93DF93182FEB016D
S1130170D0DF80E090E0C0DF812FE0DFCE01BCDF84
S1130180DF91CF911F91089562E070E081E0EBDF91
S1130190089562E070E082E0E6DF0895962F8230F1
S11301A051F0853071F0813089F460E070E0892F7E
S11301B08068D9DF089560E070E0892F806CD3DF18
S11301C0089560E070E0892F8064CDDF0895CF93B7
S11301D0DF93959AEC011EC08A3031F4959860E063
S11301E082E0DCDF959A16C08D3021F49598D1DF3A
S11301F0959A10C0893059F4959860E070E084E1D4
S1130200B2DF60E070E084E1AEDF959A03C060E0A5
S113021070E0A9DF89918111DFCF9598DF91CF91AB
S11302200895959A60E070E09EDF959808950F9385
S11302301F93CF93DF93082F192F660F660F660F56
S113024085E0ACDFC02FD12F10E08991EADF1F5F7A
S11302501830D9F7DF91CF911F910F9108958C3306
S113026039F08E3349F460E070E084E17CDF089576
S113027060E070E080E177DF08954F925F926F92C3
S11302807F928F929F92AF92BF92CF92DF92EF9222
S1130290FF924B015C01992354F48DE2C2DFB094C8
S11302A0A09490948094811C911CA11CB11C8AE0A0
S11302B088169104A104B1040CF464C0C12CD12C9F
S11302C07601C394CC0CDD1CEE1CFF1CD701C601C7
S11302D0880F991FAA1FBB1F880F991FAA1FBB1F36
S11302E0C80ED91EEA1EFB1EC501B401A701960162
S11302F055D62A3031054105510524F780E3820F94
S113030090DFC701B6012AE030E040E050E046D675
S113031069017A012115310541055105B1F10F2E0D
S1130320FAE04F2E512C612C712CF02DD701C6010F
S1130330880F991FAA1FBB1FAC01BD01440F551F95
S1130340661F771F440F551F661F771F9A01AB0165
S1130350280F391F4A1F5B1FC501B4011FD6A7010F
S113036096011CD680E3820F5CDFC701B601A301AE
S1130370920114D669017A0121153105410551050F
S1130380A9F603C080E3880D4CDFFF90EF90DF9067
S1130390CF90BF90AF909F908F907F906F905F9021
S11303A04F900895CF93DF93EC01623009F442C07B
S11303B020F4613009F462C07CC06330A9F0643079
S11303C009F077C09C013695279536952795369583
S11303D02795A5ECB0E2FED5929582958F7089277A
S11303E09F708927805D1DDF9E0136952795369580
S11303F02795ABE7B4E1EED5AC01569547959A0144
S1130400ADECBCECE7D59695879596958795969532
S113041087959C01220F331F880F991F880F991FFE
S1130420880F991F820F931F9A01281B390BC9014A
S1130430805DF7DE9E01ADECBCECCCD5AC015695ED
S1130440479556954795569547959A01C3D59695E0
S1130450879596958795969587959C01220F331FCE
S1130460880F991F880F991F880F991F820F931F58
S11304709A01281B390BC901805DD3DE9E01ADECC6
S1130480BCECA8D59695879596958795969587956E
S11304909C01220F331F880F991F880F991F880F03
S11304A0991F820F931F9E01281B390BC901805D80
S11304B0B8DEDF91CF910895FF920F931F93CF93EE
S11304C0DF93C2EAD0E000E06894FF24F3F8602FE1
S11304D085E064DE1F2D8881A4DE1150E1F7085FFA
S11304E021960033A1F760E081E058DEDF91CF91DF
S11304F01F910F91FF9008950F931F93CF93DF9354
S1130500C0912C016DECC69F612D112466956695F2
S1130510182F813508F010E5C117D0F482E03EDED3
S1130520DDECCF5FCD9F812D112486958695982F84
S1130530990F990F890F9C2F981B892F19F485E027
S113054070DE03C06EDE8CE38ADEC113EACF2EC0F8
S11305508DECC89F812D112486958695982F990F2F
S1130560990F890FC81301C0615082E017DE60E063
S113057070E084E0F8DDC117A9F00DECC150C09F14
S1130580D12D1124D695D6958D2F880F880FD80F8D
S11305908C2F8D1BD82F45DEDD2311F08EE35FDE1B
S11305A0C113ECCF60E070E086E0DDDD10932C0138
S11305B0DF91CF911F910F910895CF93C82FA9DD9B
S11305C080E090E099DD80E090E096DD8C2FB6DD50
S11305D080E090E091DDCF9108958CE2EEDF60E061
S11305E070E08CE0C0DD60E070E086E0BCDD62E0DD
S11305F070E081E0B8DD62E070E082E0B4DD5CDFF1
S11306000895CF9380E090E013D5C82F882321F07C
S113061060E080E090E019D588E090E009D59CEE98
S1130620980F973418F48093420103C084E18093B7
S1130630420186E090E004D59C0124563109293416
S1130640364228F4909341018093400106C024E689
S113065030E0309341012093400185E090E0E8D4FC
S11306609CE4980F973418F480933F0103C08CEDF9
S113067080933F0184E090E0DBD4893718F48093C1
S11306803E0102C010923E0183E090E0D1D48093F9
S11306903D0182E090E0CCD4CF3F19F080933C013F
S11306A003C084E680933C0181E090E0C1D48111D1
S11306B003C010923B0103C081E080933B01CF91C2
S11306C008956091420188E090E0BFD460914001B8
S11306D07091410186E090E0C5D460913F0185E0CE
S11306E090E0B3D460913E0184E090E0AED4609198
S11306F03D0183E090E0A9D460913C0182E090E068
S1130700A4D460913B0181E090E09FD40895CF93FD
S1130710DF93CDB7DEB7C054D1090FB6F894DEBF6E
S11307200FBECDBF88E0E2E6F0E0DE011196019055
S11307300D928A95E1F788E0EAE6F0E0DE01199689
S113074001900D928A95E1F788E0E2E7F0E0DE019E
S1130750519601900D928A95E1F788E0EAE7F0E07E
S1130760DE01599601900D928A95E1F788E0E2E85E
S1130770F0E0DE01919601900D928A95E1F788E010
S1130780EAE8F0E0DE01999601900D928A95E1F78E
S113079088E0E2E9F0E0DE01D19601900D928A95BD
S11307A0E1F788E0EAE9F0E0DE01D99601900D92E4
S11307B08A95E1F760E0CE01019639DD61E0CE0172
S11307C0099635DD62E0CE01419631DD63E0CE016C
S11307D049962DDD64E0CE01819629DD65E0CE01E8
S11307E0899625DD66E0CE01C19621DD67E0CE0164
S11307F0C9961DDDC05CDF4F0FB6F894DEBF0FBE97
S1130800CDBFDF91CF910895813019F0823039F056
S11308100CC0662311F0AA9A0895AA980895662335
S113082011F0A99A0895A9980895662319F0AA9A2F
S1130830A99A0895AA98A99808958EE387BB87E09A
S113084088BB8FE884BB80E185BB8FE381BB80ECF0
S113085082BB89B7816089BF83B7816083BF8FB54D
S1130860816A8FBD8EB581608EBD85B58B6685BD71
S11308708FE783BD8EB585608EBD85B58F6685BDDA
S113088085B58093320115BC9C9904C081E08093A6
S1130890450102C010924501B4DE9FDE75DC60E0C4
S11308A081E07CDC88EA90E092DC60E082E076DC47
S11308B086EB90E08CDC0895CF9360E081E06EDC01
S11308C084EC90E084DC60E082E068DC80914301A9
S11308D090E08730910508F090C0FC01ED5EFF4F79
S11308E0099488EE90E073DC81E09BDC8FEC90E06F
S11308F06EDC8091420162E090E054DD80E091DCA6
S113090085ED90E064DC79C083EE90E060DC82E009
S113091088DC8FEC90E05BDC64E080914001909196
S1130920410140DD87ED90E052DC67C088EE90E045
S11309304EDC84E076DC8AED90E049DC80913F0176
S113094063E090E02FDD8FED90E041DC56C082EE55
S113095090E03DDC83E065DC8CED90E038DC809158
S11309603E01C9E88C9F812D11248295869587705C
S113097062E090E017DD85EE90E029DC80913E0195
S11309808C9FC12D1124C295C695C7709CE3C99F45
S11309908019112462E090E005DD2FC087EE90E01D
S11309A016DC87E03EDC8CED90E011DC80913B01AD
S11309B0882321F08BEE90E00ADC1FC08FEE90E0DC
S11309C006DC1BC087EE90E002DC85E02ADC8CEDBF
S11309D090E0FDDB80913D0163E090E0E3DC0DC03D
S11309E087EE90E0F4DB86E01CDC8CED90E0EFDB3E
S11309F080913C0163E090E0D5DCCF910895209193
S1130A002E0130912F0180914001909141012817CE
S1130A10390758F081E080932D0160E080E0F4DE36
S1130A2080912D01811124C002C010922D0180916A
S1130A3044018823E9F08330D9F090913101809109
S1130A404201981720F461E081E0DEDE03C060E03B
S1130A5081E0DADE9091300180914201981720F410
S1130A6061E082E0D1DE07C060E082E0CDDE03C059
S1130A7060E080E0C9DE2AB53BB580913D0190E09D
S1130A802817390711F09BBD8ABD28B539B5809167
S1130A903C0190E02817390711F099BD88BD0895ED
S1130AA01F93CF93DF93C82FD62F142F60E076DBEC
S1130AB0112321F083EF90E08ADB03C089EE90E0FC
S1130AC086DB81E0AEDB6C2F70E080E090E0D5DB6C
S1130AD085EF90E07CDB62E08D2F90E063DC80E0CA
S1130AE0A0DB85ED90E073DBDF91CF911F9108953A
S1130AF0CF93DF93EC0169E081E050DB82E091DB8E
S1130B0085EF90E064DB64E0CE014CDC88ED90E09E
S1130B105EDBDF91CF910895CF93DF9390913801FD
S1130B20992389F190913701911139C0861BD9E835
S1130B308D9FD12D1124CD2FC295C695C7709CE3EE
S1130B40C99F80191124C82F69E082E027DB83E064
S1130B5068DB85EF90E03BDB8D2F8295869587706F
S1130B6062E090E01FDC8091360180FD04C085EED8
S1130B7090E02DDB03C089EE90E029DB62E08C2F4E
S1130B8090E010DC0CC080913701882341F069E0CB
S1130B9082E004DB83E045DB87EF90E018DBDF9144
S1130BA0CF91089580912D01811123C08091370147
S1130BB0811105C080913B01811101C015BCE4DAAB
S1130BC043B344706091310181E06ADF43B3427002
S1130BD06091300182E064DF80912E0190912F01B9
S1130BE087DF80913E018823A9F06091350194DF6D
S1130BF00895109238018091320185BD60E081E052
S1130C00CDDA8EEF90E0E3DA60E082E0C7DA8EE0DE
S1130C1091E0DDDA0895CF93B7DA60E081E0BEDADF
S1130C208CE191E0D4DA60E082E0B8DAC0E08C2FA5
S1130C3063DC8FE097E20197F1F700C00000CF5F1B
S1130C40C035A9F7A1DA63DD7894ACDF81E0809345
S1130C504401CF910895869941C02FEF84E39CE02D
S1130C60215080409040E1F700C000008091600076
S1130C70813031F41092600083E080934401EDC030
S1130C8083DA809144018230F1F440914301242FAE
S1130C9030E08091610090E001972817390724F42F
S1130CA04F5F409343011AC00CDD109243018091C1
S1130CB03E01882319F081E08093380173DF81E0DD
S1130CC080934401CAC0823020F48F5F8093440132
S1130CD005C068DF81E080934401BFC08091440176
S1130CE0823009F0ACC0879957C02FEF84E39CE0B1
S1130CF0215080409040E1F700C000008091430102
S1130D0090E08730910508F0ABC0FC01E65EFF4F30
S1130D100994809142018A3508F0A2C0865F8093CD
S1130D204201089580914001909141018C3A26E25C
S1130D30920708F095C08C599F4F9093410180937E
S1130D404001089580913F018A3F08F089C0865F81
S1130D5080933F01089580913E01883708F080C058
S1130D608F5F80933E01089580913B01809580932D
S1130D703B01089580913D018F3F09F471C08B5F61
S1130D8080933D01089580913C018F3F09F468C030
S1130D908B5F80933C010895B09962C08FEF94E318
S1130DA02CE0815090402040E1F700C00000809189
S1130DB0430190E08730910508F052C0FC01EF5DDB
S1130DC0FF4F099480914201853108F449C08A504B
S1130DD080934201089580914001909141018536AC
S1130DE09105F0F18456910990934101809340015B
S1130DF0089580913F01853B98F18A5080933F018B
S1130E00089580913E01882359F1815080933E01D9
S1130E10089580913B01809580933B0108958091D2
S1130E203D018823E9F0855080933D010895809128
S1130E303C018823A9F0855080933C01089590914A
S1130E404501992369F0813059F4879909C0B09913
S1130E5007C087E080936100089580914401EFCF3B
S1130E6008951F920F920FB60F9211242F933F9360
S1130E704F935F936F937F938F939F93AF93BF939E
S1130E80EF93FF938091390190913A0101969093E9
S1130E903A018093390182319A4708F454C0809111
S1130EA038018823F1F0809136018F5F80933601F9
S1130EB08C33B8F0809135018F5F809335011092A7
S1130EC0360190913E01891760F01092380160E07C
S1130ED080E09ADC109235011092360181E0809313
S1130EE0370180913B01882319F1809137018823D0
S1130EF0F9F0809134018530B0F48091330181118F
S1130F0009C08091320185BD809133018F5F809348
S1130F10330110C015BC10923301809134018F5FEE
S1130F208093340107C0109237011092340102C03B
S1130F301092370180914401813009F433DE10921C
S1130F403A0110923901FF91EF91BF91AF919F91B6
S1130F508F917F916F915F914F913F912F910F905E
S1130F600FBE0F901F90189568DC82E390E0909379
S1130F702F0180932E0183E18093310184E18093DA
S1130F80300169DE80914401823019F0833019F018
S1130F9003C092DC01C03FDE32DDF3CF052E97FBA8
S1130FA016F400940FD057FD05D020D007FC02D0D2
S1130FB046F408C050954095309521953F4F4F4FCA
S1130FC05F4F089590958095709561957F4F8F4FF1
S1130FD09F4F0895A29FB001B39FC001A39F01D06A
S1130FE0B29F700D811D1124911D0895A1E21A2E46
S1130FF0AA1BBB1BFD010DC0AA1FBB1FEE1FFF1FB9
S1131000A217B307E407F50720F0A21BB30BE40B08
S1131010F50B661F771F881F991F1A9469F760954F
S11310207095809590959B01AC01BD01CF01089509
S1131030E199FECF9FBB8EBBE09A99278DB30895AB
S1131040A8E1B0E042E050E012C0262FE199FECFC3
S11310509FBB8EBB2DBB0FB6F894E29AE19A0FBEEC
S113106001960895F2DF272FF1CFDC01CB01FC01BB
S1131070E199FECF06C0FFBBEEBBE09A31960DB2FC
S11110800D9241505040B8F70895F894FFCFF8
S113108E01030609090600000000040A0A0E1F1FC8
S113109E0E00070E1C1F0E1C10001F1F0E040E1F29
S11310AE1F000A0A1F1F0E0402040E111B150E0E3A
S11310BE04000E17131313170E00060A1313130A44
S11310CE06000010181C1E1F09546F2063616C6902
S11310DE62726174650009507265737320224D4FFC
S11310EE44452200090953455454494E4753006D53
S11310FE61783A20004300205700696E3A200020A0
S113110E56000909003A00090920004F4E20004FED
S113111E4646003E003D003D2D2D3A2D2D00572014
S113112E412052204E2049204E2047202100094FB5
S113113E564552504F574552212121002043414CD0
S10F114E4942524154494E472E2E2E00B7
S9030000FC
