S010000054502D4D657465722E7372656346
S113000027C041C040C03FC03EC03DC03CC03BC013
S11300103AC024CB38C037C036C035C0A3CB33C0B8
S113002032C031C030C0A2C6B4C6C5C6D5C60FC71B
S113003022C72FC75ECA66CA74CA7CCA8ACA90CA53
S113004098CAB6CABECACBCAD2CADDCAE3CAEACA09
S113005011241FBECFE5D4E0DEBFCDBF11E0A0E682
S1130060B0E0E2E2FBE102C005900D92A435B107D5
S1130070D9F721E0A4E5B1E001C01D92A139B2078E
S1130080E1F78EDB4CCDBCCFCF93DF9300D000D013
S113009000D0CDB7DEB79E838D831A821982298161
S11300A03A818D819E8128173907E8F41C821B82CE
S11300B08B819C818831914050F48B819C81019685
S11300C09C838B838B819C8188319140B0F389819F
S11300D09A8101969A83898329813A818D819E81AF
S11300E02817390718F326960FB6F894DEBF0FBE0B
S11300F0CDBFDF91CF910895CF93DF93EC01949A14
S113010083E090E0C1DF9498CE01BEDFDF91CF9110
S11301100895882314F4909A01C0909886FF02C031
S1130120919A01C0919885FF02C0929A01C0929859
S113013084FF02C0939A08959398089583FF02C0A0
S1130140909A01C0909882FF02C0919A01C0919840
S113015081FF02C0929A01C0929880FF02C0939AD4
S11301600895939808951F93CF93DF93182FEB016D
S1130170D0DF80E090E0C0DF812FE0DFCE01BCDF84
S1130180DF91CF911F91089562E070E081E0EBDF91
S1130190089562E070E082E0E6DF0895962F8230F1
S11301A051F0853071F0813089F460E070E0892F7E
S11301B08068D9DF089560E070E0892F806CD3DF18
S11301C0089560E070E0892F8064CDDF0895CF93B7
S11301D0DF93959AEC011EC08A3031F4959860E063
S11301E082E0DCDF959A16C08D3021F49598D1DF3A
S11301F0959A10C0893059F4959860E070E084E1D4
S1130200B2DF60E070E084E1AEDF959A03C060E0A5
S113021070E0A9DF89918111DFCF9598DF91CF91AB
S11302200895959A60E070E09EDF959808950F9385
S11302301F93CF93DF93082F192F660F660F660F56
S113024085E0ACDFC02FD12F10E08991EADF1F5F7A
S11302501830D9F7DF91CF911F910F9108958C3306
S113026039F08E3349F460E070E084E17CDF089576
S113027060E070E080E177DF08954F925F926F92C3
S11302807F928F929F92AF92BF92CF92DF92EF9222
S1130290FF924B015C01992354F48DE2C2DFB094C8
S11302A0A09490948094811C911CA11CB11C8AE0A0
S11302B088169104A104B1040CF464C0C12CD12C9F
S11302C07601C394CC0CDD1CEE1CFF1CD701C601C7
S11302D0880F991FAA1FBB1F880F991FAA1FBB1F36
S11302E0C80ED91EEA1EFB1EC501B401A701960162
S11302F0C1DB2A3031054105510524F780E3820F23
S113030090DFC701B6012AE030E040E050E0B2DB04
S113031069017A012115310541055105B1F10F2E0D
S1130320FAE04F2E512C612C712CF02DD701C6010F
S1130330880F991FAA1FBB1FAC01BD01440F551F95
S1130340661F771F440F551F661F771F9A01AB0165
S1130350280F391F4A1F5B1FC501B4018BDBA7019E
S1130360960188DB80E3820F5CDFC701B601A3013D
S1130370920180DB69017A0121153105410551059E
S1130380A9F603C080E3880D4CDFFF90EF90DF9067
S1130390CF90BF90AF909F908F907F906F905F9021
S11303A04F900895CF93DF93EC01623009F442C07B
S11303B020F4613009F462C07CC06330A9F0643079
S11303C009F077C09C013695279536952795369583
S11303D02795A5ECB0E26ADB929582958F70892708
S11303E09F708927805D1DDF9E0136952795369580
S11303F02795ABE7B4E15ADBAC01569547959A01D2
S1130400ADECBCEC53DB96958795969587959695C0
S113041087959C01220F331F880F991F880F991FFE
S1130420880F991F820F931F9A01281B390BC9014A
S1130430805DF7DE9E01ADECBCEC38DBAC0156957B
S1130440479556954795569547959A012FDB96956E
S1130450879596958795969587959C01220F331FCE
S1130460880F991F880F991F880F991F820F931F58
S11304709A01281B390BC901805DD3DE9E01ADECC6
S1130480BCEC14DB969587959695879596958795FC
S11304909C01220F331F880F991F880F991F880F03
S11304A0991F820F931F9E01281B390BC901805D80
S11304B0B8DEDF91CF910895FF920F931F93CF93EE
S11304C0DF93C4EAD0E000E06894FF24F3F8602FDF
S11304D085E064DE1F2D8881A4DE1150E1F7085FFA
S11304E021960033A1F760E081E058DEDF91CF91DF
S11304F01F910F91FF9008950F931F93CF93DF9354
S1130500C09154016DECC69F612D112466956695CA
S1130510182F813508F010E5C117D0F482E03EDED3
S1130520DDECCF5FCD9F812D112486958695982F84
S1130530990F990F890F9C2F981B892F19F485E027
S113054070DE03C06EDE8CE38ADEC113EACF2EC0F8
S11305508DECC89F812D112486958695982F990F2F
S1130560990F890FC81301C0615082E017DE60E063
S113057070E084E0F8DDC117A9F00DECC150C09F14
S1130580D12D1124D695D6958D2F880F880FD80F8D
S11305908C2F8D1BD82F45DEDD2311F08EE35FDE1B
S11305A0C113ECCF60E070E086E0DDDD1093540110
S11305B0DF91CF911F910F910895CF93C82FA9DD9B
S11305C080E090E099DD80E090E096DD8C2FB6DD50
S11305D080E090E091DDCF9108958CE2EEDF60E061
S11305E070E08CE0C0DD60E070E086E0BCDD62E0DD
S11305F070E081E0B8DD62E070E082E0B4DD5CDFF1
S1130600089598E038E1262F282720FD02C066953A
S113061003C063276695606886959150A1F7862F7D
S11306200895EF92FF920F931F93CF93DF937C0172
S11306308C01095F1F4FEC0160E08991E2DF682FB4
S1130640C017D107D1F781E0F7019781691301C081
S113065080E0DF91CF911F910F91FF90EF9008956B
S1130660EF92FF920F931F93CF93DF937C018C0142
S1130670085F1F4FEC0160E08991C3DF682FC0174A
S1130680D107D1F781E0F7019085691301C080E0BB
S1130690DF91CF911F910F91FF90EF9008951F93D9
S11306A0CF93DF93D82F162FC8E0D0FF03C0812F3C
S11306B00CD102C0812F23D1D695C150B1F7DF915F
S11306C0CF911F9108951F93CF93DF93182FD8E0F4
S11306D0C0E0C695812F2DD18111C068D150C9F7D2
S11306E08C2FDF91CF911F910895FF920F931F9349
S11306F0CF93DF938C01F62E85E5D1DFE801085F07
S11307001F4F6F2D8991CBDFC017D107D1F7DF9130
S1130710CF911F910F91FF900895BF92CF92DF92D6
S1130720EF92FF920F931F93CF93DF93EC01D62E9A
S1130730F42E642F80EFB3DF11E0B12C01E0CC2460
S1130740C3948F2DF6D0E82E8F2DF3D0EE20A1F197
S113075081112EC09881912B988319C02881912FE3
S113076090959223988313C00D1104C08881812B26
S113077088830DC0D01638F49881812F8095892301
S11307808883B02E04C09881912339F003C09881E6
S1130790912321F08F2D99D003C0B02E8F2DAFD08F
S11307A00F5F110F11F421961C2D013451F602C074
S11307B08FEF05C08B2D03C08111D0CFD5CFDF9132
S11307C0CF911F910F91FF90EF90DF90CF90BF904A
S11307D008958F929F92AF92BF92CF92DF92EF9241
S11307E0FF920F931F93CF93DF938C01942E790183
S11307F0662371F0DC0120E088E007C0119291507B
S1130800E9F72F5F1896261719F0FD01982FF6CFF8
S1130810C02ED12EE02FF12FB12CA12C6894882466
S113082083F8AC2DBD2D882D01900D928A95E1F7AA
S1130830892DA0D0882351F1492D6A2D8C2D9D2D11
S11308406CDFA82EB394E80188E0B89EC00DD11DDA
S11308501124AA2029F0EC2DFD2DCC2EDD2EE1CF84
S1130860BB20B1F0D0E0C0E0DD24D394C801D9DED0
S1130870811105C0F70190819F5F908301C0DD2D38
S1130880CF5F085F1F4FCB11F1CF04C08FEF03C0C0
S113089080E001C08D2FDF91CF911F910F91FF90C8
S11308A0EF90DF90CF90BF90AF909F908F9008957E
S11308B094B38095982394BB95B3892385BB8CE529
S11308C099E00197F1F700C008959FB7F89424B315
S11308D0282B24BB25B38095282325BB23E22A9506
S11308E0F1F700C024B3282324BB25B3822385BB9E
S11308F0ECE3F1E03197F1F700C09FBF08959FB793
S1130900F89424B3282B24BB25B38095282325BB36
S1130910E8E2F1E03197F1F700C024B3282324BBC7
S113092025B3822385BBFEE3FA95F1F700009FBF50
S113093008952FB7F89494B3982B94BB35B3982F9C
S11309409095392335BB33E23A95F1F700C034B3BF
S1130950392334BB35B3932395BB97E39A95F1F7C9
S113096000C093B3EFE0F1E03197F1F700C02FBF7F
S1130970892308952FB7F89494B3982B94BB35B377
S1130980982F9095392335BBECE5F9E03197F1F7D1
S113099000C034B3392334BB35B3932395BBEAE5A4
S11309A0F1E03197F1F700C093B3EEEFF7E0319740
S11309B0F1F700C02FBF909589230895CF9380E06D
S11309C090E080D8C82F882321F060E080E090E098
S11309D086D889E090E076D89CEE980F923418F48B
S11309E08093730103C084E18093730187E090E0F6
S11309F071D89C01245631092934364228F4909345
S1130A0072018093710106C024E630E030937201D4
S1130A102093710186E090E055D89CE4980F9734B8
S1130A2018F48093700103C086EE8093700184E013
S1130A3090E050D881322CE1920728F490936F0112
S1130A4080936E0104C010926F0110926E0183E0D6
S1130A5090E038D880936D0182E090E033D8CF3FA6
S1130A6019F080936C0103C084E680936C0181E0EB
S1130A7090E028D8811103C01092610003C081E086
S1130A8080936100CF9108956091730189E090E0B3
S1130A9026D8609171017091720187E090E02CD8A2
S1130AA06091700186E090E01AD860916E017091B7
S1130AB06F0184E090E020D860916D0183E090E0C4
S1130AC00ED860916C0182E090E009D860916100D9
S1130AD081E090E004D80895CF93DF93CDB7DEB7DB
S1130AE0C054D1090FB6F894DEBF0FBECDBF88E065
S1130AF0E4E6F0E0DE01119601900D928A95E1F7AB
S1130B0088E0ECE6F0E0DE01199601900D928A95FA
S1130B10E1F788E0E4E7F0E0DE01519601900D9200
S1130B208A95E1F788E0ECE7F0E0DE015996019060
S1130B300D928A95E1F788E0E4E8F0E0DE01919611
S1130B4001900D928A95E1F788E0ECE8F0E0DE018F
S1130B50999601900D928A95E1F788E0E4E9F0E036
S1130B60DE01D19601900D928A95E1F788E0ECE9D7
S1130B70F0E0DE01D99601900D928A95E1F760E0EC
S1130B80CE01019654DB61E0CE01099650DB62E0B0
S1130B90CE0141964CDB63E0CE01499648DB64E02C
S1130BA0CE01819644DB65E0CE01899640DB66E0A8
S1130BB0CE01C1963CDB67E0CE01C99638DBC05C50
S1130BC0DF4F0FB6F894DEBF0FBECDBFDF91CF91DC
S1130BD00895813019F0823039F00CC0662311F089
S1130BE0AA980895AA9A0895662311F0A9980895D9
S1130BF0A99A0895662319F0AA98A9980895AA9A1B
S1130C00A99A089580917801811114C010927601F7
S1130C1026E731E048E062E081E891E0DADD8093A4
S1130C20770190917601923029F4813019F08FEF99
S1130C308093780108950F931F93CF93DF93182F18
S1130C40EB01042F97DE612FCE014FDD612F8EE47F
S1130C5026DD612F80E023DD612F80E020DD612F20
S1130C60802F1DDDDF91CF911F910F9108958EE3A9
S1130C7087BB87E088BB8FE884BB86E285BB8FE3B4
S1130C8081BB80EC82BB89B7816089BF83B78160F7
S1130C9083BF8FB5816A8FBD8EB581608EBD85B5EA
S1130CA08C6685BD8FE783BD3A9A86B18F6086B91D
S1130CB085B58093630115BC9D9904C081E0809340
S1130CC0550102C01092550179DE80916D0190E0CA
S1130CD09BBD8ABD80916C0190E099BD88BD7DDC8F
S1130CE053DA60E081E05ADA8AEA90E070DA60E090
S1130CF082E054DA89EB90E06ADA88E0D9DD809109
S1130D0078018F3F29F07EDF809178018F3FD9F7FA
S1130D10109263004FE161E871E088E08CDF4FE1FD
S1130D2069E871E088E087DF2FDA60E081E036DA95
S1130D3087EC90E04CDA60E082E030DA85ED90E018
S1130D4046DA089560E081E029DA83EE90E03FDA44
S1130D5060E082E023DA8091740190E087309105AD
S1130D6008F0A4C0FC01ED5EFF4F099487E091E018
S1130D702EDA81E056DA8EEE90E029DA8091730162
S1130D8062E090E00FDB80E04CDA84EF90E01FDA61
S1130D90089582E091E01BDA82E043DA8EEE90E07F
S1130DA016DA64E08091710190917201FBDA86EFAA
S1130DB090E00DDA089587E091E009DA84E031DA11
S1130DC089EF90E004DA8091700163E090E0EADA60
S1130DD08EEF90E0FCD9089581E091E0F8D983E0AA
S1130DE020DA8BEF90E0F3D980916E0190916F013E
S1130DF060E17EE009D6CB0162E0D4DA84E091E0E0
S1130E00E6D920916E0130916F01A9E8B8E84ED679
S1130E10AC0156954795529542954F7045275F70A2
S1130E2045279A0143D696958795929582958F701A
S1130E3089279F7089276CE3689F9001699F300D13
S1130E40112462E0CA01821B930BACDA089586E098
S1130E5091E0BDD987E0E5D98BEF90E0B8D98091D6
S1130E606100882321F08AE091E0B1D908958EE0F1
S1130E7091E0ADD9089586E091E0A9D985E0D1D972
S1130E808BEF90E0A4D980916D0163E090E08ADA61
S1130E90089586E091E09BD986E0C3D98BEF90E07A
S1130EA096D980916C0163E090E07CDA0895109209
S1130EB06901109268011092670110926601089509
S1130EC0BF92CF92DF92EF92FF920F931F93CF9333
S1130ED0DF93CDB7DEB729970FB6F894DEBF0FBE08
S1130EE0CDBFB82E8B016A0145DD6B2DC801FDDB3A
S1130EF06B2D84E4D4DB8B2D1CDD8823E1F38B2D57
S1130F0039DD6B2DC801F1DB6B2D8EEBC8DB8E0157
S1130F100F5F1F4F7E018AE0E80EF11C8B2DD3DB9F
S1130F20F80181938F01EE15FF05C1F7CE010196FB
S1130F3097DB81110AC02A8130E0322F2227998160
S1130F40292BF6013183208301C081E029960FB655
S1130F50F894DEBF0FBECDBFDF91CF911F910F91EB
S1130F60FF90EF90DF90CF90BF900895CF93DF93E1
S1130F7000D0CDB7DEB71A82198228E0829FC00163
S1130F801124BC016F577E4FAE014F5F5F4F88E065
S1130F9097DF80937701813091F089819A81992339
S1130FA02CF49195819591099A83898389819A81F9
S1130FB0929582958F7089279F70892701C080E060
S1130FC00F900F90DF91CF9108959F92AF92BF92AF
S1130FD0CF92DF92EF92FF920F931F93CF93DF9301
S1130FE08C019C01ADECBCEC61D55C010024AA0C25
S1130FF0BB1C001CAA0CBB1C001CAB2CB02C90907E
S113100075010115110501F1C0E0D0E0C12CD12C0E
S11310107601369A83E09816D9F08FE99FE001971C
S1131020F1F700C000008091580190915901A091FE
S11310305A01B0915B01C80ED91EEA1EFB1E21960F
S1131040C017D10731F716C0C12CD12C760112C0BC
S11310508091580190915901A0915A01B0915B017E
S1131060C80ED91EEA1EFB1ECE01B501CDD4862FB3
S113107043DAE5CF980140E050E0C701B601D8D487
S1131080DA01C901DF91CF911F910F91FF90EF9089
S1131090DF90CF90BF90AF909F900895CF92DF9252
S11310A0EF92FF9284E690E090DF20915601309118
S11310B057012817390720F4BC01621B730B02C0C7
S11310C060E070E080E090E0AED320E030E040E209
S11310D050E40FD420E030E040E85AE30AD420E0A2
S11310E030E040EF51E405D423EF34E045EB5FE317
S11310F000D46B017C016091700170E080E090E0AD
S113110094D39B01AC01C701B601F3D360D3CB01E7
S1131110FF90EF90DF90CF900895C0DF909360012F
S113112080935F0180915E01882351F010925E01EB
S113113080E01CDF8093620181E018DF809361010D
S113114020915F0130916001809171019091720151
S113115028173907A0F080915C01811149C014D887
S113116081E080935C01A3DE60E080E032DD809169
S1131170630185BD80915C01882349F039C0809169
S11311805C01882321F015BCFFD710925C0180918B
S11311906E0190916F01892B21F080916901882360
S11311A051F18091620190917301891750F4882361
S11311B021F061E081E00DDD07C060E082E009DD3F
S11311C003C060E081E005DD8091610190917301CD
S11311D0891750F4882321F061E082E0FADC0BC027
S11311E060E082E0F6DC07C060E082E0F2DC03C08D
S11311F060E080E0EEDC809175018230A1F42AB5D4
S11312003BB580916D0190E02817390711F09BBD23
S11312108ABD28B539B580916C0190E0281739074B
S113122011F099BD88BD08951F93CF93DF93C82F04
S1131230D62F142F60E0B2D7112321F088E091E07B
S1131240C6D703C082E191E0C2D781E0EAD76C2F10
S113125070E080E090E011D884E191E0B8D762E0DA
S11312608D2F90E09FD880E0DCD784EF90E0AFD75B
S1131270DF91CF911F910895CF93DF93EC0169E043
S113128081E08CD782E0CDD784E191E0A0D764E0FF
S1131290CE0188D887EF90E09AD7DF91CF91089557
S11312A00F931F93CF93DF93EB01209169012223C6
S11312B009F457C020916801211157C0FC01E61BB5
S11312C0F70B20E13EE0CF01B9019ED3629FA0015C
S11312D0639F500D729F500D1124E0312EE0F207F0
S11312E0B0F49F01241B350BA9E8B8E8DFD3969529
S11312F08795929582958F7089279F708927082FEB
S1131300E41B1E2F2CE3829F1019112410C0062FFA
S11313109F01241B350BA9E8B8E8C8D39695879597
S1131320929582958F7089279F708927182F69E07D
S113133082E034D783E075D784E191E048D762E056
S1131340802F90E02FD8C0FD04C084E091E03FD707
S113135003C088E091E03BD762E0812F90E022D87F
S113136013C080916801882349F069E082E016D7B0
S113137083E057D786E191E02AD706C069E082E08E
S11313800DD78DE191E023D7DF91CF911F910F917C
S1131390089580915C0181111BC043B34470609136
S11313A0620181E041DF43B342706091610182E0F8
S11313B03BDF80915F01909160015EDF6091660187
S11313C07091670180916E0190916F0169DF0895BA
S11313D060E081E0E3D685E291E0F9D660E082E066
S11313E0DDD686E391E0F3D60895379A369ACCD6C3
S11313F060E081E0D3D684E491E0E9D660E082E065
S1131400CDD6789484EF91E0E0DD909357018093FA
S11314105601F89461DB7894B7D681E08093750126
S1131420089586994BC080916300811147C02FEFC6
S113143080E792E0215080409040E1F700C0000036
S113144080916200813031F41092620083E08093D5
S1131450750100C199D680917501823029F54091BA
S11314607401242F30E08091600090E001972817E8
S1131470390724F44F5F4093740120C005DB1092B8
S1131480740180916E0190916F01892B29F00FDD19
S113149081E08093690104C080916901811107DDB5
S11314A081E080937501D6C0823020F48F5F8093F1
S11314B0750104C081E080937501CCC080917501F1
S11314C0823009F0B7C087995DC02FEF80E792E0C2
S11314D0215080409040E1F700C0000080917401E9
S11314E090E08730910508F0B8C0FC01E65EFF4F3C
S11314F0099480917301853508F0AFC08B5F8093A8
S11315007301089580917101909172018C3A26E2E1
S1131510920708F0A2C0C296909372018093710161
S11315200895809170018A3F08F097C08B5F809383
S11315307001089580916E0190916F0180322CE1C9
S1131540920708F08AC0CC9690936F0180936E0145
S113155008959091610081E0892780936100089546
S113156080916D018F3F09F478C08B5F80936D018A
S1131570089580916C018F3F09F46FC08B5F809355
S11315806C010895B09969C08FEF90E722E0815013
S113159090402040E1F700C000008091740190E089
S11315A08730910508F059C0FC01EF5DFF4F0994A5
S11315B080917301853108F450C085508093730184
S11315C0089580917101909172018536910508F416
S11315D044C0C297909372018093710108958091E1
S11315E07001853BD0F185508093700108958091FE
S11315F06E0190916F01009781F1CC9790936F01E8
S113160080936E0108959091610081E08927809311
S11316106100089580916D018823F9F085508093CD
S11316206D01089580916C018823B9F085508093F1
S11316306C01089590915501992379F09D9B0DC0FB
S1131640813059F4879909C0B09907C087E0809325
S11316506000089580917501EDCF08951F920F9257
S11316600FB60F9211242F933F934F935F936F9371
S11316707F938F939F93AF93BF93EF93FF93809147
S11316806A0190916B01019690936B0180936A01BA
S11316908432944F08F455C0809169018823B9F0CD
S11316A08091660190916701019690936701809300
S11316B0660120916E0130916F018217930738F013
S11316C0F6DB60E080E085DA81E080936801809158
S11316D06100882319F1809168018823F9F08091D1
S11316E065018530B0F480916401811109C0809155
S11316F0630185BD809164018F5F8093640110C094
S113170015BC10926401809165018F5F809365011F
S113171007C0109268011092650102C0109268011E
S113172080915D01843020F48F5F80935D0105C05A
S113173010925D0181E080935E0110926B01109222
S11317406A01FF91EF91BF91AF919F918F917F912A
S11317506F915F914F913F912F910F900FBE0F901A
S11317601F9018951F920F920FB60F9211248F930A
S11317709F93AF93BF9384B195B1A0E0B0E0809301
S1131780580190935901A0935A01B0935B01BF9102
S1131790AF919F918F910F900FBE0F901F9018954E
S11317A066DA3FDE80917501823031F0833031F0AA
S11317B0813029F4EEDD03C0C5DA01C016DE809164
S11317C07501882371F3833061F3A7DCEACF70D00D
S11317D088F09F5790F0B92F9927B751A0F0D1F016
S11317E0660F771F881F991F1AF0BA95C9F712C0A0
S11317F0B13081F077D0B1E0089574C0672F782FAD
S11318008827B85F39F0B93FCCF38695779567950B
S1131810B395D9F73EF490958095709561957F4F77
S11318208F4F9F4F0895E89409C097FB3EF490951D
S11318308095709561957F4F8F4F9F4F9923A9F0A5
S1131840F92F96E9BB279395F69587957795679534
S1131850B795F111F8CFFAF4BB0F11F460FF1BC078
S11318606F5F7F4F8F4F9F4F16C0882311F096E90B
S113187011C0772321F09EE8872F762F05C06623B9
S113188071F096E8862F70E060E02AF09A95660F72
S1131890771F881FDAF7880F9695879597F908952B
S11318A057FD9058440F551F59F05F3F71F047950D
S11318B0880F97FB991F61F09F3F79F087950895F2
S11318C0121613061406551FF2CF4695F1DF08C011
S11318D0161617061806991FF1CF8695710561052E
S11318E008940895E894BB2766277727CB0197F9D6
S11318F008950BD078C069D028F06ED018F09523E5
S113190009F05AC05FC01124EECFCADFA0F3959F3F
S1131910D1F3950F50E0551F629FF001729FBB27D2
S1131920F00DB11D639FAA27F00DB11DAA1F649F7E
S11319306627B00DA11D661F829F2227B00DA11D31
S1131940621F739FB00DA11D621F839FA00D611DB7
S1131950221F749F3327A00D611D231F849F600DD8
S1131960211D822F762F6A2F11249F5750408AF011
S1131970E1F088234AF0EE0FFF1FBB1F661F771F9D
S1131980881F91505040A9F79E3F510570F014C034
S1131990AACF5F3FECF3983EDCF386957795679585
S11319A0B795F795E7959F5FC1F7FE2B880F911DBB
S11319B09695879597F9089597F99F6780E870E061
S11319C060E008959FEF80EC089500240A941616B1
S11319D0170618060906089500240A941216130619
S11319E0140605060895092E0394000C11F48823A7
S11319F052F0BB0F40F4BF2B11F460FF04C06F5FC3
S1131A007F4F8F4F9F4F0895AA1BBB1B51E107C007
S1131A10AA1FBB1FA617B70710F0A61BB70B881F7A
S1131A20991F5A95A9F780959095BC01CD01089509
S1131A30A1E21A2EAA1BBB1BFD010DC0AA1FBB1FCE
S1131A40EE1FFF1FA217B307E407F50720F0A21B40
S1131A50B30BE40BF50B661F771F881F991F1A94AD
S1131A6069F760957095809590959B01AC01BD01D7
S1131A70CF010895052E97FB16F400940FD057FD5F
S1131A8005D0D6DF07FC02D046F408C05095409537
S1131A90309521953F4F4F4F5F4F08959095809516
S1131AA0709561957F4F8F4F9F4F0895A29FB0010E
S1131AB0B39FC001A39F01D0B29F700D811D11245B
S1131AC0911D0895E199FECF9FBB8EBBE09A9927A3
S1131AD08DB30895A8E1B0E042E050E012C0262F93
S1131AE0E199FECF9FBB8EBB2DBB0FB6F894E29A53
S1131AF0E19A0FBE01960895F2DF272FF1CFDC01A2
S1131B00CB01FC01E199FECF06C0FFBBEEBBE09A1E
S1131B1031960DB20D9241505040B8F70895F894A3
S1051B20FFCFF1
S1131B22030101010609090600000000040A0A0E65
S1131B321F1F0E00070E1C1F0E1C10001F1F0E0479
S1131B420E1F1F000A0A1F1F0E0402040E111B158A
S1131B520E0E04000E17131313170E00060A1313A6
S1131B62130A06000010181C1E1F0954656D702EFE
S1131B722073656E736F72730009646574656374B0
S1131B82696E672E2E2E0009546F2063616C6962A0
S1131B92726174650009507265737320224D4F445B
S1131BA2452200090953455454494E4753006D6177
S1131BB2783A20004300205700696E3A20002056EC
S1131BC2000909003A00090920004F4E20004F463F
S1131BD246003E003D003D2D2D3A2D2D00202020B3
S1131BE220202020005720412052204E2049204E00
S1131BF2204721212100094F564552504F57455243
S1131C02212121002043414C4942524154494E472B
S1071C122E2E2E0040
S9030000FC
